{
    "_format": "hh-sol-artifact-1",
    "contractName": "MilestoneTracker",
    "sourceName": "contracts/MilestoneTracker.sol",
    "abi": [
        {
            "inputs": [],
            "stateMutability": "nonpayable",
            "type": "constructor"
        },
        {
            "anonymous": false,
            "inputs": [
                {
                    "indexed": true,
                    "internalType": "address",
                    "name": "user",
                    "type": "address"
                },
                {
                    "indexed": false,
                    "internalType": "uint256",
                    "name": "milestoneIndex",
                    "type": "uint256"
                },
                {
                    "indexed": false,
                    "internalType": "string",
                    "name": "description",
                    "type": "string"
                },
                {
                    "indexed": false,
                    "internalType": "uint256",
                    "name": "timeStamp",
                    "type": "uint256"
                },
                {
                    "indexed": false,
                    "internalType": "string",
                    "name": "id",
                    "type": "string"
                }
            ],
            "name": "GroupMilestoneAdded",
            "type": "event"
        },
        {
            "anonymous": false,
            "inputs": [
                {
                    "indexed": true,
                    "internalType": "address",
                    "name": "user",
                    "type": "address"
                },
                {
                    "indexed": false,
                    "internalType": "uint256",
                    "name": "milestoneIndex",
                    "type": "uint256"
                },
                {
                    "indexed": false,
                    "internalType": "string",
                    "name": "description",
                    "type": "string"
                },
                {
                    "indexed": false,
                    "internalType": "uint256",
                    "name": "timeStamp",
                    "type": "uint256"
                },
                {
                    "indexed": false,
                    "internalType": "string",
                    "name": "id",
                    "type": "string"
                }
            ],
            "name": "MilestoneAdded",
            "type": "event"
        },
        {
            "anonymous": false,
            "inputs": [
                {
                    "indexed": true,
                    "internalType": "address",
                    "name": "owner",
                    "type": "address"
                },
                {
                    "indexed": false,
                    "internalType": "uint256",
                    "name": "milestoneIndex",
                    "type": "uint256"
                },
                {
                    "indexed": false,
                    "internalType": "string",
                    "name": "id",
                    "type": "string"
                }
            ],
            "name": "MilestoneFinalized",
            "type": "event"
        },
        {
            "anonymous": false,
            "inputs": [
                {
                    "indexed": true,
                    "internalType": "address",
                    "name": "owner",
                    "type": "address"
                },
                {
                    "indexed": false,
                    "internalType": "uint256",
                    "name": "milestoneIndex",
                    "type": "uint256"
                },
                {
                    "indexed": false,
                    "internalType": "string",
                    "name": "id",
                    "type": "string"
                }
            ],
            "name": "MilestoneRemoved",
            "type": "event"
        },
        {
            "anonymous": false,
            "inputs": [
                {
                    "indexed": true,
                    "internalType": "address",
                    "name": "owner",
                    "type": "address"
                },
                {
                    "indexed": true,
                    "internalType": "address",
                    "name": "signer",
                    "type": "address"
                },
                {
                    "indexed": false,
                    "internalType": "uint256",
                    "name": "milestoneIndex",
                    "type": "uint256"
                },
                {
                    "indexed": false,
                    "internalType": "uint256",
                    "name": "currentSignatureCount",
                    "type": "uint256"
                },
                {
                    "indexed": false,
                    "internalType": "uint256",
                    "name": "requiredSignatures",
                    "type": "uint256"
                }
            ],
            "name": "MilestoneSigned",
            "type": "event"
        },
        {
            "inputs": [
                {
                    "internalType": "string",
                    "name": "_description",
                    "type": "string"
                },
                {
                    "internalType": "address[]",
                    "name": "_participants",
                    "type": "address[]"
                },
                {
                    "internalType": "string",
                    "name": "_hash",
                    "type": "string"
                },
                {
                    "internalType": "string",
                    "name": "_id",
                    "type": "string"
                }
            ],
            "name": "addGroupMilestone",
            "outputs": [],
            "stateMutability": "nonpayable",
            "type": "function"
        },
        {
            "inputs": [
                {
                    "internalType": "string",
                    "name": "_description",
                    "type": "string"
                },
                {
                    "internalType": "string",
                    "name": "_hash",
                    "type": "string"
                },
                {
                    "internalType": "string",
                    "name": "_id",
                    "type": "string"
                }
            ],
            "name": "addMilestone",
            "outputs": [],
            "stateMutability": "nonpayable",
            "type": "function"
        },
        {
            "inputs": [],
            "name": "admin",
            "outputs": [
                {
                    "internalType": "address",
                    "name": "",
                    "type": "address"
                }
            ],
            "stateMutability": "view",
            "type": "function"
        },
        {
            "inputs": [
                {
                    "internalType": "address",
                    "name": "_user",
                    "type": "address"
                }
            ],
            "name": "getAllMilestones",
            "outputs": [
                {
                    "internalType": "address[]",
                    "name": "owners",
                    "type": "address[]"
                },
                {
                    "internalType": "string[]",
                    "name": "descriptions",
                    "type": "string[]"
                },
                {
                    "internalType": "uint256[]",
                    "name": "timeStamps",
                    "type": "uint256[]"
                },
                {
                    "internalType": "string[]",
                    "name": "hashes",
                    "type": "string[]"
                },
                {
                    "internalType": "string[]",
                    "name": "ids",
                    "type": "string[]"
                },
                {
                    "internalType": "bool[]",
                    "name": "isPendings",
                    "type": "bool[]"
                },
                {
                    "internalType": "uint256[]",
                    "name": "totalParticipants",
                    "type": "uint256[]"
                },
                {
                    "internalType": "uint256[]",
                    "name": "signatureCounts",
                    "type": "uint256[]"
                },
                {
                    "internalType": "uint256[]",
                    "name": "expiryDates",
                    "type": "uint256[]"
                }
            ],
            "stateMutability": "view",
            "type": "function"
        },
        {
            "inputs": [
                {
                    "internalType": "address",
                    "name": "_user",
                    "type": "address"
                },
                {
                    "internalType": "uint256",
                    "name": "_index",
                    "type": "uint256"
                }
            ],
            "name": "getMilestone",
            "outputs": [
                {
                    "internalType": "address",
                    "name": "owner",
                    "type": "address"
                },
                {
                    "internalType": "string",
                    "name": "description",
                    "type": "string"
                },
                {
                    "internalType": "uint256",
                    "name": "timeStamp",
                    "type": "uint256"
                },
                {
                    "internalType": "string",
                    "name": "hash",
                    "type": "string"
                },
                {
                    "internalType": "string",
                    "name": "id",
                    "type": "string"
                },
                {
                    "internalType": "bool",
                    "name": "isPending",
                    "type": "bool"
                },
                {
                    "internalType": "uint256",
                    "name": "totalParticpants",
                    "type": "uint256"
                },
                {
                    "internalType": "uint256",
                    "name": "signatureCount",
                    "type": "uint256"
                },
                {
                    "internalType": "uint256",
                    "name": "expiryDate",
                    "type": "uint256"
                }
            ],
            "stateMutability": "view",
            "type": "function"
        },
        {
            "inputs": [],
            "name": "implementation",
            "outputs": [
                {
                    "internalType": "address",
                    "name": "",
                    "type": "address"
                }
            ],
            "stateMutability": "view",
            "type": "function"
        },
        {
            "inputs": [
                {
                    "internalType": "address",
                    "name": "_user",
                    "type": "address"
                },
                {
                    "internalType": "uint256",
                    "name": "_index",
                    "type": "uint256"
                }
            ],
            "name": "removeMilestone",
            "outputs": [],
            "stateMutability": "nonpayable",
            "type": "function"
        },
        {
            "inputs": [
                {
                    "internalType": "address",
                    "name": "_owner",
                    "type": "address"
                },
                {
                    "internalType": "uint256",
                    "name": "_index",
                    "type": "uint256"
                }
            ],
            "name": "signMilestone",
            "outputs": [],
            "stateMutability": "nonpayable",
            "type": "function"
        },
        {
            "inputs": [
                {
                    "internalType": "address",
                    "name": "",
                    "type": "address"
                },
                {
                    "internalType": "uint256",
                    "name": "",
                    "type": "uint256"
                }
            ],
            "name": "userMilestones",
            "outputs": [
                {
                    "internalType": "address",
                    "name": "owner",
                    "type": "address"
                },
                {
                    "internalType": "string",
                    "name": "description",
                    "type": "string"
                },
                {
                    "internalType": "uint256",
                    "name": "timeStamp",
                    "type": "uint256"
                },
                {
                    "internalType": "string",
                    "name": "hash",
                    "type": "string"
                },
                {
                    "internalType": "string",
                    "name": "id",
                    "type": "string"
                },
                {
                    "internalType": "uint256",
                    "name": "expiryDate",
                    "type": "uint256"
                },
                {
                    "internalType": "bool",
                    "name": "isPending",
                    "type": "bool"
                },
                {
                    "internalType": "uint256",
                    "name": "totalParticpants",
                    "type": "uint256"
                },
                {
                    "internalType": "uint256",
                    "name": "signatureCount",
                    "type": "uint256"
                }
            ],
            "stateMutability": "view",
            "type": "function"
        }
    ],
    "bytecode": "0x6080604052348015600f57600080fd5b5033600160006101000a81548173ffffffffffffffffffffffffffffffffffffffff021916908373ffffffffffffffffffffffffffffffffffffffff160217905550612cda806100606000396000f3fe608060405234801561001057600080fd5b50600436106100935760003560e01c8063848bbcd311610066578063848bbcd3146101425780639d8f63011461017a578063e9479edb14610196578063f6e9d082146101b2578063f851a440146101ce57610093565b80630112f7491461009857806356a3150b146100d05780635940aa5b146101085780635c60da1b14610124575b600080fd5b6100b260048036038101906100ad9190611a74565b6101ec565b6040516100c799989796959493929190611b7d565b60405180910390f35b6100ea60048036038101906100e59190611a74565b61041c565b6040516100ff99989796959493929190611c1f565b60405180910390f35b610122600480360381019061011d9190611ebe565b61072d565b005b61012c61098f565b6040516101399190611f95565b60405180910390f35b61015c60048036038101906101579190611fb0565b6109b3565b60405161017199989796959493929190612323565b60405180910390f35b610194600480360381019061018f9190611a74565b61107f565b005b6101b060048036038101906101ab9190611a74565b6113af565b005b6101cc60048036038101906101c791906123ef565b6117d3565b005b6101d66119a6565b6040516101e39190611f95565b60405180910390f35b6002602052816000526040600020818154811061020857600080fd5b90600052602060002090600a0201600091509150508060000160009054906101000a900473ffffffffffffffffffffffffffffffffffffffff1690806001018054610252906124c5565b80601f016020809104026020016040519081016040528092919081815260200182805461027e906124c5565b80156102cb5780601f106102a0576101008083540402835291602001916102cb565b820191906000526020600020905b8154815290600101906020018083116102ae57829003601f168201915b5050505050908060020154908060030180546102e6906124c5565b80601f0160208091040260200160405190810160405280929190818152602001828054610312906124c5565b801561035f5780601f106103345761010080835404028352916020019161035f565b820191906000526020600020905b81548152906001019060200180831161034257829003601f168201915b505050505090806004018054610374906124c5565b80601f01602080910402602001604051908101604052809291908181526020018280546103a0906124c5565b80156103ed5780601f106103c2576101008083540402835291602001916103ed565b820191906000526020600020905b8154815290600101906020018083116103d057829003601f168201915b5050505050908060050154908060060160009054906101000a900460ff16908060080154908060090154905089565b600060606000606080600080600080600260008c73ffffffffffffffffffffffffffffffffffffffff1673ffffffffffffffffffffffffffffffffffffffff168152602001908152602001600020805490508a106104af576040517f08c379a00000000000000000000000000000000000000000000000000000000081526004016104a690612542565b60405180910390fd5b6000600260008d73ffffffffffffffffffffffffffffffffffffffff1673ffffffffffffffffffffffffffffffffffffffff1681526020019081526020016000208b8154811061050257610501612562565b5b90600052602060002090600a020190508060000160009054906101000a900473ffffffffffffffffffffffffffffffffffffffff1681600101826002015483600301846004018560060160009054906101000a900460ff16866008015487600901548860050154878054610575906124c5565b80601f01602080910402602001604051908101604052809291908181526020018280546105a1906124c5565b80156105ee5780601f106105c3576101008083540402835291602001916105ee565b820191906000526020600020905b8154815290600101906020018083116105d157829003601f168201915b50505050509750858054610601906124c5565b80601f016020809104026020016040519081016040528092919081815260200182805461062d906124c5565b801561067a5780601f1061064f5761010080835404028352916020019161067a565b820191906000526020600020905b81548152906001019060200180831161065d57829003601f168201915b5050505050955084805461068d906124c5565b80601f01602080910402602001604051908101604052809291908181526020018280546106b9906124c5565b80156107065780601f106106db57610100808354040283529160200191610706565b820191906000526020600020905b8154815290600101906020018083116106e957829003601f168201915b50505050509450995099509950995099509950995099509950509295985092959850929598565b6000600260003373ffffffffffffffffffffffffffffffffffffffff1673ffffffffffffffffffffffffffffffffffffffff1681526020019081526020016000206001816001815401808255809150500390600052602060002090600a02019050338160000160006101000a81548173ffffffffffffffffffffffffffffffffffffffff021916908373ffffffffffffffffffffffffffffffffffffffff160217905550848160010190816107e2919061273d565b50428160020181905550828160030190816107fd919061273d565b508181600401908161080f919061273d565b5060018160060160006101000a81548160ff02191690831515021790555060008160090181905550835181600801819055506203f48042610850919061283e565b816005018190555060005b84518110156108e557600182600701600087848151811061087f5761087e612562565b5b602002602001015173ffffffffffffffffffffffffffffffffffffffff1673ffffffffffffffffffffffffffffffffffffffff16815260200190815260200160002060006101000a81548160ff021916908315150217905550808060010191505061085b565b503373ffffffffffffffffffffffffffffffffffffffff167fc48eeb7d484b3054ecd0b4f5f616cdbbc0c4da1fb97719628ba7693a2a2d0e476001600260003373ffffffffffffffffffffffffffffffffffffffff1673ffffffffffffffffffffffffffffffffffffffff1681526020019081526020016000208054905061096d9190612872565b87428660405161098094939291906128a6565b60405180910390a25050505050565b60008054906101000a900473ffffffffffffffffffffffffffffffffffffffff1681565b60608060608060608060608060606000600260008c73ffffffffffffffffffffffffffffffffffffffff1673ffffffffffffffffffffffffffffffffffffffff1681526020019081526020016000208054905090508067ffffffffffffffff811115610a2257610a21611ccb565b5b604051908082528060200260200182016040528015610a505781602001602082028036833780820191505090505b5099508067ffffffffffffffff811115610a6d57610a6c611ccb565b5b604051908082528060200260200182016040528015610aa057816020015b6060815260200190600190039081610a8b5790505b5098508067ffffffffffffffff811115610abd57610abc611ccb565b5b604051908082528060200260200182016040528015610aeb5781602001602082028036833780820191505090505b5097508067ffffffffffffffff811115610b0857610b07611ccb565b5b604051908082528060200260200182016040528015610b3b57816020015b6060815260200190600190039081610b265790505b5096508067ffffffffffffffff811115610b5857610b57611ccb565b5b604051908082528060200260200182016040528015610b8b57816020015b6060815260200190600190039081610b765790505b5095508067ffffffffffffffff811115610ba857610ba7611ccb565b5b604051908082528060200260200182016040528015610bd65781602001602082028036833780820191505090505b5094508067ffffffffffffffff811115610bf357610bf2611ccb565b5b604051908082528060200260200182016040528015610c215781602001602082028036833780820191505090505b5093508067ffffffffffffffff811115610c3e57610c3d611ccb565b5b604051908082528060200260200182016040528015610c6c5781602001602082028036833780820191505090505b5092508067ffffffffffffffff811115610c8957610c88611ccb565b5b604051908082528060200260200182016040528015610cb75781602001602082028036833780820191505090505b50915060005b81811015611070576000600260008e73ffffffffffffffffffffffffffffffffffffffff1673ffffffffffffffffffffffffffffffffffffffff1681526020019081526020016000208281548110610d1857610d17612562565b5b90600052602060002090600a020190508060000160009054906101000a900473ffffffffffffffffffffffffffffffffffffffff168c8381518110610d6057610d5f612562565b5b602002602001019073ffffffffffffffffffffffffffffffffffffffff16908173ffffffffffffffffffffffffffffffffffffffff1681525050806001018054610da9906124c5565b80601f0160208091040260200160405190810160405280929190818152602001828054610dd5906124c5565b8015610e225780601f10610df757610100808354040283529160200191610e22565b820191906000526020600020905b815481529060010190602001808311610e0557829003601f168201915b50505050508b8381518110610e3a57610e39612562565b5b602002602001018190525080600201548a8381518110610e5d57610e5c612562565b5b602002602001018181525050806003018054610e78906124c5565b80601f0160208091040260200160405190810160405280929190818152602001828054610ea4906124c5565b8015610ef15780601f10610ec657610100808354040283529160200191610ef1565b820191906000526020600020905b815481529060010190602001808311610ed457829003601f168201915b5050505050898381518110610f0957610f08612562565b5b6020026020010181905250806004018054610f23906124c5565b80601f0160208091040260200160405190810160405280929190818152602001828054610f4f906124c5565b8015610f9c5780601f10610f7157610100808354040283529160200191610f9c565b820191906000526020600020905b815481529060010190602001808311610f7f57829003601f168201915b5050505050888381518110610fb457610fb3612562565b5b60200260200101819052508060060160009054906101000a900460ff16878381518110610fe457610fe3612562565b5b602002602001019015159081151581525050806008015486838151811061100e5761100d612562565b5b602002602001018181525050806009015485838151811061103257611031612562565b5b602002602001018181525050806005015484838151811061105657611055612562565b5b602002602001018181525050508080600101915050610cbd565b50509193959799909294969850565b600260008373ffffffffffffffffffffffffffffffffffffffff1673ffffffffffffffffffffffffffffffffffffffff168152602001908152602001600020805490508110611103576040517f08c379a00000000000000000000000000000000000000000000000000000000081526004016110fa90612542565b60405180910390fd5b6000600260008473ffffffffffffffffffffffffffffffffffffffff1673ffffffffffffffffffffffffffffffffffffffff168152602001908152602001600020828154811061115657611155612562565b5b90600052602060002090600a020190508060060160009054906101000a900460ff166111b7576040517f08c379a00000000000000000000000000000000000000000000000000000000081526004016111ae9061296b565b60405180910390fd5b8060070160003373ffffffffffffffffffffffffffffffffffffffff1673ffffffffffffffffffffffffffffffffffffffff16815260200190815260200160002060009054906101000a900460ff16611245576040517f08c379a000000000000000000000000000000000000000000000000000000000815260040161123c90612a23565b60405180910390fd5b60008160070160003373ffffffffffffffffffffffffffffffffffffffff1673ffffffffffffffffffffffffffffffffffffffff16815260200190815260200160002060006101000a81548160ff0219169083151502179055508060090160008154809291906112b490612a43565b91905055503373ffffffffffffffffffffffffffffffffffffffff168373ffffffffffffffffffffffffffffffffffffffff167f07456a4e3c63a8e4a31fe6e03a975ee770be226358c26fb2d995299087e64b50848460090154856008015460405161132293929190612a8b565b60405180910390a380600801548160090154036113aa5760008160060160006101000a81548160ff0219169083151502179055508273ffffffffffffffffffffffffffffffffffffffff167f1acc7f85d47b75a6911ae03211e090e74d75109a698c60eac6eaac5b7df7acd283836004016040516113a1929190612b46565b60405180910390a25b505050565b600260008373ffffffffffffffffffffffffffffffffffffffff1673ffffffffffffffffffffffffffffffffffffffff168152602001908152602001600020805490508110611433576040517f08c379a000000000000000000000000000000000000000000000000000000000815260040161142a90612542565b60405180910390fd5b42600260008473ffffffffffffffffffffffffffffffffffffffff1673ffffffffffffffffffffffffffffffffffffffff168152602001908152602001600020828154811061148557611484612562565b5b90600052602060002090600a020160050154106114d7576040517f08c379a00000000000000000000000000000000000000000000000000000000081526004016114ce90612bc2565b60405180910390fd5b600160009054906101000a900473ffffffffffffffffffffffffffffffffffffffff1673ffffffffffffffffffffffffffffffffffffffff163373ffffffffffffffffffffffffffffffffffffffff16148061155e57508173ffffffffffffffffffffffffffffffffffffffff163373ffffffffffffffffffffffffffffffffffffffff16145b61159d576040517f08c379a000000000000000000000000000000000000000000000000000000000815260040161159490612c54565b60405180910390fd5b6000600260008473ffffffffffffffffffffffffffffffffffffffff1673ffffffffffffffffffffffffffffffffffffffff16815260200190815260200160002082815481106115f0576115ef612562565b5b90600052602060002090600a020190506000816004018054611611906124c5565b80601f016020809104026020016040519081016040528092919081815260200182805461163d906124c5565b801561168a5780601f1061165f5761010080835404028352916020019161168a565b820191906000526020600020905b81548152906001019060200180831161166d57829003601f168201915b5050505050905060008260000160006101000a81548173ffffffffffffffffffffffffffffffffffffffff021916908373ffffffffffffffffffffffffffffffffffffffff160217905550604051806020016040528060008152508260010190816116f5919061273d565b506000826002018190555060405180602001604052806000815250826003019081611720919061273d565b5060405180602001604052806000815250826004019081611741919061273d565b506000826005018190555060008260060160006101000a81548160ff02191690831515021790555060008260080181905550600082600901819055508373ffffffffffffffffffffffffffffffffffffffff167f352512ac33729370aa49398cef8f80ada2b727f81c5d8c0815e5179bff4499be84836040516117c5929190612c74565b60405180910390a250505050565b6000600260003373ffffffffffffffffffffffffffffffffffffffff1673ffffffffffffffffffffffffffffffffffffffff1681526020019081526020016000206001816001815401808255809150500390600052602060002090600a02019050338160000160006101000a81548173ffffffffffffffffffffffffffffffffffffffff021916908373ffffffffffffffffffffffffffffffffffffffff16021790555083816001019081611888919061273d565b50428160020181905550828160030190816118a3919061273d565b50818160040190816118b5919061273d565b5060008160060160006101000a81548160ff02191690831515021790555060008160090181905550600181600801819055506203f480426118f6919061283e565b81600501819055503373ffffffffffffffffffffffffffffffffffffffff167f42ab42183ca272fd67bb188062e821ea9f65fb0cace0f95abb06f348d0fc6a2e6001600260003373ffffffffffffffffffffffffffffffffffffffff1673ffffffffffffffffffffffffffffffffffffffff168152602001908152602001600020805490506119859190612872565b86428660405161199894939291906128a6565b60405180910390a250505050565b600160009054906101000a900473ffffffffffffffffffffffffffffffffffffffff1681565b6000604051905090565b600080fd5b600080fd5b600073ffffffffffffffffffffffffffffffffffffffff82169050919050565b6000611a0b826119e0565b9050919050565b611a1b81611a00565b8114611a2657600080fd5b50565b600081359050611a3881611a12565b92915050565b6000819050919050565b611a5181611a3e565b8114611a5c57600080fd5b50565b600081359050611a6e81611a48565b92915050565b60008060408385031215611a8b57611a8a6119d6565b5b6000611a9985828601611a29565b9250506020611aaa85828601611a5f565b9150509250929050565b611abd81611a00565b82525050565b600081519050919050565b600082825260208201905092915050565b60005b83811015611afd578082015181840152602081019050611ae2565b60008484015250505050565b6000601f19601f8301169050919050565b6000611b2582611ac3565b611b2f8185611ace565b9350611b3f818560208601611adf565b611b4881611b09565b840191505092915050565b611b5c81611a3e565b82525050565b60008115159050919050565b611b7781611b62565b82525050565b600061012082019050611b93600083018c611ab4565b8181036020830152611ba5818b611b1a565b9050611bb4604083018a611b53565b8181036060830152611bc68189611b1a565b90508181036080830152611bda8188611b1a565b9050611be960a0830187611b53565b611bf660c0830186611b6e565b611c0360e0830185611b53565b611c11610100830184611b53565b9a9950505050505050505050565b600061012082019050611c35600083018c611ab4565b8181036020830152611c47818b611b1a565b9050611c56604083018a611b53565b8181036060830152611c688189611b1a565b90508181036080830152611c7c8188611b1a565b9050611c8b60a0830187611b6e565b611c9860c0830186611b53565b611ca560e0830185611b53565b611cb3610100830184611b53565b9a9950505050505050505050565b600080fd5b600080fd5b7f4e487b7100000000000000000000000000000000000000000000000000000000600052604160045260246000fd5b611d0382611b09565b810181811067ffffffffffffffff82111715611d2257611d21611ccb565b5b80604052505050565b6000611d356119cc565b9050611d418282611cfa565b919050565b600067ffffffffffffffff821115611d6157611d60611ccb565b5b611d6a82611b09565b9050602081019050919050565b82818337600083830152505050565b6000611d99611d9484611d46565b611d2b565b905082815260208101848484011115611db557611db4611cc6565b5b611dc0848285611d77565b509392505050565b600082601f830112611ddd57611ddc611cc1565b5b8135611ded848260208601611d86565b91505092915050565b600067ffffffffffffffff821115611e1157611e10611ccb565b5b602082029050602081019050919050565b600080fd5b6000611e3a611e3584611df6565b611d2b565b90508083825260208201905060208402830185811115611e5d57611e5c611e22565b5b835b81811015611e865780611e728882611a29565b845260208401935050602081019050611e5f565b5050509392505050565b600082601f830112611ea557611ea4611cc1565b5b8135611eb5848260208601611e27565b91505092915050565b60008060008060808587031215611ed857611ed76119d6565b5b600085013567ffffffffffffffff811115611ef657611ef56119db565b5b611f0287828801611dc8565b945050602085013567ffffffffffffffff811115611f2357611f226119db565b5b611f2f87828801611e90565b935050604085013567ffffffffffffffff811115611f5057611f4f6119db565b5b611f5c87828801611dc8565b925050606085013567ffffffffffffffff811115611f7d57611f7c6119db565b5b611f8987828801611dc8565b91505092959194509250565b6000602082019050611faa6000830184611ab4565b92915050565b600060208284031215611fc657611fc56119d6565b5b6000611fd484828501611a29565b91505092915050565b600081519050919050565b600082825260208201905092915050565b6000819050602082019050919050565b61201281611a00565b82525050565b60006120248383612009565b60208301905092915050565b6000602082019050919050565b600061204882611fdd565b6120528185611fe8565b935061205d83611ff9565b8060005b8381101561208e5781516120758882612018565b975061208083612030565b925050600181019050612061565b5085935050505092915050565b600081519050919050565b600082825260208201905092915050565b6000819050602082019050919050565b600082825260208201905092915050565b60006120e382611ac3565b6120ed81856120c7565b93506120fd818560208601611adf565b61210681611b09565b840191505092915050565b600061211d83836120d8565b905092915050565b6000602082019050919050565b600061213d8261209b565b61214781856120a6565b935083602082028501612159856120b7565b8060005b8581101561219557848403895281516121768582612111565b945061218183612125565b925060208a0199505060018101905061215d565b50829750879550505050505092915050565b600081519050919050565b600082825260208201905092915050565b6000819050602082019050919050565b6121dc81611a3e565b82525050565b60006121ee83836121d3565b60208301905092915050565b6000602082019050919050565b6000612212826121a7565b61221c81856121b2565b9350612227836121c3565b8060005b8381101561225857815161223f88826121e2565b975061224a836121fa565b92505060018101905061222b565b5085935050505092915050565b600081519050919050565b600082825260208201905092915050565b6000819050602082019050919050565b61229a81611b62565b82525050565b60006122ac8383612291565b60208301905092915050565b6000602082019050919050565b60006122d082612265565b6122da8185612270565b93506122e583612281565b8060005b838110156123165781516122fd88826122a0565b9750612308836122b8565b9250506001810190506122e9565b5085935050505092915050565b600061012082019050818103600083015261233e818c61203d565b90508181036020830152612352818b612132565b90508181036040830152612366818a612207565b9050818103606083015261237a8189612132565b9050818103608083015261238e8188612132565b905081810360a08301526123a281876122c5565b905081810360c08301526123b68186612207565b905081810360e08301526123ca8185612207565b90508181036101008301526123df8184612207565b90509a9950505050505050505050565b600080600060608486031215612408576124076119d6565b5b600084013567ffffffffffffffff811115612426576124256119db565b5b61243286828701611dc8565b935050602084013567ffffffffffffffff811115612453576124526119db565b5b61245f86828701611dc8565b925050604084013567ffffffffffffffff8111156124805761247f6119db565b5b61248c86828701611dc8565b9150509250925092565b7f4e487b7100000000000000000000000000000000000000000000000000000000600052602260045260246000fd5b600060028204905060018216806124dd57607f821691505b6020821081036124f0576124ef612496565b5b50919050565b7f696e76616c696420696e64657800000000000000000000000000000000000000600082015250565b600061252c600d83611ace565b9150612537826124f6565b602082019050919050565b6000602082019050818103600083015261255b8161251f565b9050919050565b7f4e487b7100000000000000000000000000000000000000000000000000000000600052603260045260246000fd5b60008190508160005260206000209050919050565b60006020601f8301049050919050565b600082821b905092915050565b6000600883026125f37fffffffffffffffffffffffffffffffffffffffffffffffffffffffffffffffff826125b6565b6125fd86836125b6565b95508019841693508086168417925050509392505050565b6000819050919050565b600061263a61263561263084611a3e565b612615565b611a3e565b9050919050565b6000819050919050565b6126548361261f565b61266861266082612641565b8484546125c3565b825550505050565b600090565b61267d612670565b61268881848461264b565b505050565b5b818110156126ac576126a1600082612675565b60018101905061268e565b5050565b601f8211156126f1576126c281612591565b6126cb846125a6565b810160208510156126da578190505b6126ee6126e6856125a6565b83018261268d565b50505b505050565b600082821c905092915050565b6000612714600019846008026126f6565b1980831691505092915050565b600061272d8383612703565b9150826002028217905092915050565b61274682611ac3565b67ffffffffffffffff81111561275f5761275e611ccb565b5b61276982546124c5565b6127748282856126b0565b600060209050601f8311600181146127a75760008415612795578287015190505b61279f8582612721565b865550612807565b601f1984166127b586612591565b60005b828110156127dd578489015182556001820191506020850194506020810190506127b8565b868310156127fa57848901516127f6601f891682612703565b8355505b6001600288020188555050505b505050505050565b7f4e487b7100000000000000000000000000000000000000000000000000000000600052601160045260246000fd5b600061284982611a3e565b915061285483611a3e565b925082820190508082111561286c5761286b61280f565b5b92915050565b600061287d82611a3e565b915061288883611a3e565b92508282039050818111156128a05761289f61280f565b5b92915050565b60006080820190506128bb6000830187611b53565b81810360208301526128cd8186611b1a565b90506128dc6040830185611b53565b81810360608301526128ee8184611b1a565b905095945050505050565b7f4d696c6573746f6e65206973206e6f742077616974696e6720666f7220616e7960008201527f207369676e617475726573000000000000000000000000000000000000000000602082015250565b6000612955602b83611ace565b9150612960826128f9565b604082019050919050565b6000602082019050818103600083015261298481612948565b9050919050565b7f43616c6c6572206973206e6f742061207061727469636970616e74206f72206360008201527f616c6c65722068617320616c7265616479207369676e6564206d696c6573746f60208201527f6e65000000000000000000000000000000000000000000000000000000000000604082015250565b6000612a0d604283611ace565b9150612a188261298b565b606082019050919050565b60006020820190508181036000830152612a3c81612a00565b9050919050565b6000612a4e82611a3e565b91507fffffffffffffffffffffffffffffffffffffffffffffffffffffffffffffffff8203612a8057612a7f61280f565b5b600182019050919050565b6000606082019050612aa06000830186611b53565b612aad6020830185611b53565b612aba6040830184611b53565b949350505050565b60008154612acf816124c5565b612ad98186611ace565b94506001821660008114612af45760018114612b0a57612b3d565b60ff198316865281151560200286019350612b3d565b612b1385612591565b60005b83811015612b3557815481890152600182019150602081019050612b16565b808801955050505b50505092915050565b6000604082019050612b5b6000830185611b53565b8181036020830152612b6d8184612ac2565b90509392505050565b7f6578706972792074696d65206e6f742072656163686564207965740000000000600082015250565b6000612bac601b83611ace565b9150612bb782612b76565b602082019050919050565b60006020820190508181036000830152612bdb81612b9f565b9050919050565b7f6f6e6c792061646d696e73206f72206f776e6572732063616e2072656d6f766560008201527f206d696c6573746f6e6573000000000000000000000000000000000000000000602082015250565b6000612c3e602b83611ace565b9150612c4982612be2565b604082019050919050565b60006020820190508181036000830152612c6d81612c31565b9050919050565b6000604082019050612c896000830185611b53565b8181036020830152612c9b8184611b1a565b9050939250505056fea2646970667358221220be82f5239a14288302444d4aed3312c212c5099ff177b6c0ee50170f948996cf64736f6c634300081c0033",
    "linkReferences": {},
    "deployedLinkReferences": {}
}