{
  "_format": "hh-sol-artifact-1",
  "contractName": "MilestoneTracker",
  "sourceName": "contracts/MilestoneTracker.sol",
  "abi": [
    {
      "inputs": [],
      "stateMutability": "nonpayable",
      "type": "constructor"
    },
    {
      "anonymous": false,
      "inputs": [
        {
          "indexed": true,
          "internalType": "address",
          "name": "user",
          "type": "address"
        },
        {
          "indexed": false,
          "internalType": "string",
          "name": "id",
          "type": "string"
        },
        {
          "indexed": false,
          "internalType": "string",
          "name": "description",
          "type": "string"
        },
        {
          "indexed": false,
          "internalType": "uint256",
          "name": "timeStamp",
          "type": "uint256"
        },
        {
          "indexed": false,
          "internalType": "uint256",
          "name": "particpantCount",
          "type": "uint256"
        }
      ],
      "name": "GroupMilestoneAdded",
      "type": "event"
    },
    {
      "anonymous": false,
      "inputs": [
        {
          "indexed": true,
          "internalType": "address",
          "name": "user",
          "type": "address"
        },
        {
          "indexed": false,
          "internalType": "string",
          "name": "id",
          "type": "string"
        },
        {
          "indexed": false,
          "internalType": "string",
          "name": "description",
          "type": "string"
        },
        {
          "indexed": false,
          "internalType": "uint256",
          "name": "timeStamp",
          "type": "uint256"
        }
      ],
      "name": "MilestoneAdded",
      "type": "event"
    },
    {
      "anonymous": false,
      "inputs": [
        {
          "indexed": true,
          "internalType": "address",
          "name": "owner",
          "type": "address"
        },
        {
          "indexed": false,
          "internalType": "string",
          "name": "id",
          "type": "string"
        }
      ],
      "name": "MilestoneFinalized",
      "type": "event"
    },
    {
      "anonymous": false,
      "inputs": [
        {
          "indexed": true,
          "internalType": "address",
          "name": "owner",
          "type": "address"
        },
        {
          "indexed": false,
          "internalType": "string",
          "name": "id",
          "type": "string"
        }
      ],
      "name": "MilestoneRemoved",
      "type": "event"
    },
    {
      "anonymous": false,
      "inputs": [
        {
          "indexed": true,
          "internalType": "address",
          "name": "owner",
          "type": "address"
        },
        {
          "indexed": true,
          "internalType": "address",
          "name": "signer",
          "type": "address"
        },
        {
          "indexed": false,
          "internalType": "string",
          "name": "id",
          "type": "string"
        },
        {
          "indexed": false,
          "internalType": "uint256",
          "name": "currentSignatureCount",
          "type": "uint256"
        },
        {
          "indexed": false,
          "internalType": "uint256",
          "name": "requiredSignatures",
          "type": "uint256"
        }
      ],
      "name": "MilestoneSigned",
      "type": "event"
    },
    {
      "inputs": [
        {
          "internalType": "string",
          "name": "_description",
          "type": "string"
        },
        {
          "internalType": "address[]",
          "name": "_participants",
          "type": "address[]"
        },
        {
          "internalType": "string",
          "name": "_hash",
          "type": "string"
        },
        {
          "internalType": "string",
          "name": "_id",
          "type": "string"
        }
      ],
      "name": "addGroupMilestone",
      "outputs": [],
      "stateMutability": "nonpayable",
      "type": "function"
    },
    {
      "inputs": [
        {
          "internalType": "string",
          "name": "_description",
          "type": "string"
        },
        {
          "internalType": "string",
          "name": "_hash",
          "type": "string"
        },
        {
          "internalType": "string",
          "name": "_id",
          "type": "string"
        }
      ],
      "name": "addMilestone",
      "outputs": [],
      "stateMutability": "nonpayable",
      "type": "function"
    },
    {
      "inputs": [],
      "name": "admin",
      "outputs": [
        {
          "internalType": "address",
          "name": "",
          "type": "address"
        }
      ],
      "stateMutability": "view",
      "type": "function"
    },
    {
      "inputs": [
        {
          "internalType": "address",
          "name": "_user",
          "type": "address"
        }
      ],
      "name": "getAllMilestones",
      "outputs": [
        {
          "internalType": "string[]",
          "name": "ids",
          "type": "string[]"
        },
        {
          "internalType": "address[]",
          "name": "owners",
          "type": "address[]"
        },
        {
          "internalType": "string[]",
          "name": "descriptions",
          "type": "string[]"
        },
        {
          "internalType": "uint256[]",
          "name": "timeStamps",
          "type": "uint256[]"
        },
        {
          "internalType": "string[]",
          "name": "hashes",
          "type": "string[]"
        },
        {
          "internalType": "bool[]",
          "name": "isPendings",
          "type": "bool[]"
        },
        {
          "internalType": "uint256[]",
          "name": "totalParticipants",
          "type": "uint256[]"
        },
        {
          "internalType": "uint256[]",
          "name": "signatureCounts",
          "type": "uint256[]"
        },
        {
          "internalType": "uint256[]",
          "name": "expiryDates",
          "type": "uint256[]"
        }
      ],
      "stateMutability": "view",
      "type": "function"
    },
    {
      "inputs": [
        {
          "internalType": "address",
          "name": "_user",
          "type": "address"
        },
        {
          "internalType": "string",
          "name": "_id",
          "type": "string"
        }
      ],
      "name": "getMilestone",
      "outputs": [
        {
          "internalType": "address",
          "name": "owner",
          "type": "address"
        },
        {
          "internalType": "string",
          "name": "description",
          "type": "string"
        },
        {
          "internalType": "uint256",
          "name": "timeStamp",
          "type": "uint256"
        },
        {
          "internalType": "string",
          "name": "hash",
          "type": "string"
        },
        {
          "internalType": "string",
          "name": "id",
          "type": "string"
        },
        {
          "internalType": "bool",
          "name": "isPending",
          "type": "bool"
        },
        {
          "internalType": "uint256",
          "name": "totalParticpants",
          "type": "uint256"
        },
        {
          "internalType": "uint256",
          "name": "signatureCount",
          "type": "uint256"
        },
        {
          "internalType": "uint256",
          "name": "expiryDate",
          "type": "uint256"
        }
      ],
      "stateMutability": "view",
      "type": "function"
    },
    {
      "inputs": [],
      "name": "implementation",
      "outputs": [
        {
          "internalType": "address",
          "name": "",
          "type": "address"
        }
      ],
      "stateMutability": "view",
      "type": "function"
    },
    {
      "inputs": [
        {
          "internalType": "address",
          "name": "",
          "type": "address"
        },
        {
          "internalType": "string",
          "name": "",
          "type": "string"
        }
      ],
      "name": "milestoneExists",
      "outputs": [
        {
          "internalType": "bool",
          "name": "",
          "type": "bool"
        }
      ],
      "stateMutability": "view",
      "type": "function"
    },
    {
      "inputs": [
        {
          "internalType": "address",
          "name": "_user",
          "type": "address"
        },
        {
          "internalType": "string",
          "name": "_id",
          "type": "string"
        }
      ],
      "name": "removeMilestone",
      "outputs": [],
      "stateMutability": "nonpayable",
      "type": "function"
    },
    {
      "inputs": [
        {
          "internalType": "address",
          "name": "_owner",
          "type": "address"
        },
        {
          "internalType": "string",
          "name": "_id",
          "type": "string"
        }
      ],
      "name": "signMilestone",
      "outputs": [],
      "stateMutability": "nonpayable",
      "type": "function"
    },
    {
      "inputs": [
        {
          "internalType": "address",
          "name": "",
          "type": "address"
        },
        {
          "internalType": "string",
          "name": "",
          "type": "string"
        }
      ],
      "name": "userMilestoneById",
      "outputs": [
        {
          "internalType": "address",
          "name": "owner",
          "type": "address"
        },
        {
          "internalType": "string",
          "name": "description",
          "type": "string"
        },
        {
          "internalType": "uint256",
          "name": "timeStamp",
          "type": "uint256"
        },
        {
          "internalType": "string",
          "name": "hash",
          "type": "string"
        },
        {
          "internalType": "string",
          "name": "id",
          "type": "string"
        },
        {
          "internalType": "uint256",
          "name": "expiryDate",
          "type": "uint256"
        },
        {
          "internalType": "bool",
          "name": "isPending",
          "type": "bool"
        },
        {
          "internalType": "uint256",
          "name": "totalParticpants",
          "type": "uint256"
        },
        {
          "internalType": "uint256",
          "name": "signatureCount",
          "type": "uint256"
        }
      ],
      "stateMutability": "view",
      "type": "function"
    },
    {
      "inputs": [
        {
          "internalType": "address",
          "name": "",
          "type": "address"
        },
        {
          "internalType": "uint256",
          "name": "",
          "type": "uint256"
        }
      ],
      "name": "userMilestoneIds",
      "outputs": [
        {
          "internalType": "string",
          "name": "",
          "type": "string"
        }
      ],
      "stateMutability": "view",
      "type": "function"
    }
  ],
  "bytecode": "0x6080604052348015600f57600080fd5b5033600160006101000a81548173ffffffffffffffffffffffffffffffffffffffff021916908373ffffffffffffffffffffffffffffffffffffffff160217905550613167806100606000396000f3fe608060405234801561001057600080fd5b50600436106100a95760003560e01c806374b57b2f1161007157806374b57b2f14610158578063848bbcd314610190578063a73be67c146101c8578063c4f48463146101f8578063f6e9d08214610228578063f851a44014610244576100a9565b80631b9c242d146100ae57806355b18fe4146100e65780635940aa5b146101025780635c60da1b1461011e5780635c971fa91461013c575b600080fd5b6100c860048036038101906100c39190611f39565b610262565b6040516100dd99989796959493929190612057565b60405180910390f35b61010060048036038101906100fb9190611f39565b610498565b005b61011c600480360381019061011791906121c1565b6107e3565b005b610126610b85565b6040516101339190612298565b60405180910390f35b61015660048036038101906101519190611f39565b610ba9565b005b610172600480360381019061016d9190611f39565b610e83565b604051610187999897969594939291906122b3565b60405180910390f35b6101aa60048036038101906101a59190612355565b6111b4565b6040516101bf999897969594939291906126c8565b60405180910390f35b6101e260048036038101906101dd91906127c0565b61194d565b6040516101ef9190612800565b60405180910390f35b610212600480360381019061020d9190611f39565b611a06565b60405161021f9190612822565b60405180910390f35b610242600480360381019061023d919061283d565b611a4b565b005b61024c611d5b565b6040516102599190612298565b60405180910390f35b600260205281600052604060002081805160208101820180518482526020830160208501208183528095505050505050600091509150508060000160009054906101000a900473ffffffffffffffffffffffffffffffffffffffff16908060010180546102ce90612913565b80601f01602080910402602001604051908101604052809291908181526020018280546102fa90612913565b80156103475780601f1061031c57610100808354040283529160200191610347565b820191906000526020600020905b81548152906001019060200180831161032a57829003601f168201915b50505050509080600201549080600301805461036290612913565b80601f016020809104026020016040519081016040528092919081815260200182805461038e90612913565b80156103db5780601f106103b0576101008083540402835291602001916103db565b820191906000526020600020905b8154815290600101906020018083116103be57829003601f168201915b5050505050908060040180546103f090612913565b80601f016020809104026020016040519081016040528092919081815260200182805461041c90612913565b80156104695780601f1061043e57610100808354040283529160200191610469565b820191906000526020600020905b81548152906001019060200180831161044c57829003601f168201915b5050505050908060050154908060060160009054906101000a900460ff16908060080154908060090154905089565b600460008373ffffffffffffffffffffffffffffffffffffffff1673ffffffffffffffffffffffffffffffffffffffff168152602001908152602001600020816040516104e59190612980565b908152602001604051809103902060009054906101000a900460ff16610540576040517f08c379a000000000000000000000000000000000000000000000000000000000815260040161053790612a09565b60405180910390fd5b6000600260008473ffffffffffffffffffffffffffffffffffffffff1673ffffffffffffffffffffffffffffffffffffffff1681526020019081526020016000208260405161058f9190612980565b908152602001604051809103902090508060060160009054906101000a900460ff166105f0576040517f08c379a00000000000000000000000000000000000000000000000000000000081526004016105e790612a9b565b60405180910390fd5b8060070160003373ffffffffffffffffffffffffffffffffffffffff1673ffffffffffffffffffffffffffffffffffffffff16815260200190815260200160002060009054906101000a900460ff1661067e576040517f08c379a000000000000000000000000000000000000000000000000000000000815260040161067590612b53565b60405180910390fd5b60008160070160003373ffffffffffffffffffffffffffffffffffffffff1673ffffffffffffffffffffffffffffffffffffffff16815260200190815260200160002060006101000a81548160ff0219169083151502179055508060090160008154809291906106ed90612ba2565b91905055503373ffffffffffffffffffffffffffffffffffffffff168373ffffffffffffffffffffffffffffffffffffffff167fd955b88241fc6cba9370941fc909a3795737279a96ce7dfc4c9f9fff3b9753e0848460090154856008015460405161075b93929190612bea565b60405180910390a380600801548160090154036107de5760008160060160006101000a81548160ff0219169083151502179055508273ffffffffffffffffffffffffffffffffffffffff167f036ed56e03f80fd8fc40481c8c469d9d5f5210b6de8f1907d3283b220c616a07836040516107d59190612800565b60405180910390a25b505050565b600460003373ffffffffffffffffffffffffffffffffffffffff1673ffffffffffffffffffffffffffffffffffffffff168152602001908152602001600020816040516108309190612980565b908152602001604051809103902060009054906101000a900460ff161561088c576040517f08c379a000000000000000000000000000000000000000000000000000000000815260040161088390612c9a565b60405180910390fd5b6000600260003373ffffffffffffffffffffffffffffffffffffffff1673ffffffffffffffffffffffffffffffffffffffff168152602001908152602001600020826040516108db9190612980565b90815260200160405180910390209050338160000160006101000a81548173ffffffffffffffffffffffffffffffffffffffff021916908373ffffffffffffffffffffffffffffffffffffffff1602179055508481600101908161093f9190612e66565b504281600201819055508281600301908161095a9190612e66565b508181600401908161096c9190612e66565b5060018160060160006101000a81548160ff02191690831515021790555060008160090181905550835181600801819055506203f480426109ad9190612f38565b816005018190555060005b8451811015610a425760018260070160008784815181106109dc576109db612f6c565b5b602002602001015173ffffffffffffffffffffffffffffffffffffffff1673ffffffffffffffffffffffffffffffffffffffff16815260200190815260200160002060006101000a81548160ff02191690831515021790555080806001019150506109b8565b506001600460003373ffffffffffffffffffffffffffffffffffffffff1673ffffffffffffffffffffffffffffffffffffffff16815260200190815260200160002083604051610a929190612980565b908152602001604051809103902060006101000a81548160ff021916908315150217905550600360003373ffffffffffffffffffffffffffffffffffffffff1673ffffffffffffffffffffffffffffffffffffffff16815260200190815260200160002082908060018154018082558091505060019003906000526020600020016000909190919091509081610b289190612e66565b503373ffffffffffffffffffffffffffffffffffffffff167f816e0a9a08f1436d5ab1c561858563a232943b0ad6254e19655506214ab6a55f8387428851604051610b769493929190612f9b565b60405180910390a25050505050565b60008054906101000a900473ffffffffffffffffffffffffffffffffffffffff1681565b600460008373ffffffffffffffffffffffffffffffffffffffff1673ffffffffffffffffffffffffffffffffffffffff16815260200190815260200160002081604051610bf69190612980565b908152602001604051809103902060009054906101000a900460ff16610c51576040517f08c379a0000000000000000000000000000000000000000000000000000000008152600401610c4890612a09565b60405180910390fd5b6000600260008473ffffffffffffffffffffffffffffffffffffffff1673ffffffffffffffffffffffffffffffffffffffff16815260200190815260200160002082604051610ca09190612980565b9081526020016040518091039020905042816005015410610cf6576040517f08c379a0000000000000000000000000000000000000000000000000000000008152600401610ced9061303a565b60405180910390fd5b600160009054906101000a900473ffffffffffffffffffffffffffffffffffffffff1673ffffffffffffffffffffffffffffffffffffffff163373ffffffffffffffffffffffffffffffffffffffff161480610d7d57508273ffffffffffffffffffffffffffffffffffffffff163373ffffffffffffffffffffffffffffffffffffffff16145b610dbc576040517f08c379a0000000000000000000000000000000000000000000000000000000008152600401610db3906130cc565b60405180910390fd5b6000600460008573ffffffffffffffffffffffffffffffffffffffff1673ffffffffffffffffffffffffffffffffffffffff16815260200190815260200160002083604051610e0b9190612980565b908152602001604051809103902060006101000a81548160ff0219169083151502179055508273ffffffffffffffffffffffffffffffffffffffff167fb7acc9827958344561774ec6877640d64ec42308d91a3c1b55a2a50acfb02c6d83604051610e769190612800565b60405180910390a2505050565b600060606000606080600080600080600460008c73ffffffffffffffffffffffffffffffffffffffff1673ffffffffffffffffffffffffffffffffffffffff1681526020019081526020016000208a604051610edf9190612980565b908152602001604051809103902060009054906101000a900460ff16610f3a576040517f08c379a0000000000000000000000000000000000000000000000000000000008152600401610f3190612a09565b60405180910390fd5b6000600260008d73ffffffffffffffffffffffffffffffffffffffff1673ffffffffffffffffffffffffffffffffffffffff1681526020019081526020016000208b604051610f899190612980565b908152602001604051809103902090508060000160009054906101000a900473ffffffffffffffffffffffffffffffffffffffff1681600101826002015483600301846004018560060160009054906101000a900460ff16866008015487600901548860050154878054610ffc90612913565b80601f016020809104026020016040519081016040528092919081815260200182805461102890612913565b80156110755780601f1061104a57610100808354040283529160200191611075565b820191906000526020600020905b81548152906001019060200180831161105857829003601f168201915b5050505050975085805461108890612913565b80601f01602080910402602001604051908101604052809291908181526020018280546110b490612913565b80156111015780601f106110d657610100808354040283529160200191611101565b820191906000526020600020905b8154815290600101906020018083116110e457829003601f168201915b5050505050955084805461111490612913565b80601f016020809104026020016040519081016040528092919081815260200182805461114090612913565b801561118d5780601f106111625761010080835404028352916020019161118d565b820191906000526020600020905b81548152906001019060200180831161117057829003601f168201915b50505050509450995099509950995099509950995099509950509295985092959850929598565b60608060608060608060608060606000600360008c73ffffffffffffffffffffffffffffffffffffffff1673ffffffffffffffffffffffffffffffffffffffff1681526020019081526020016000208054905090508067ffffffffffffffff81111561122357611222611e0e565b5b60405190808252806020026020018201604052801561125657816020015b60608152602001906001900390816112415790505b5099508067ffffffffffffffff81111561127357611272611e0e565b5b6040519080825280602002602001820160405280156112a15781602001602082028036833780820191505090505b5098508067ffffffffffffffff8111156112be576112bd611e0e565b5b6040519080825280602002602001820160405280156112f157816020015b60608152602001906001900390816112dc5790505b5097508067ffffffffffffffff81111561130e5761130d611e0e565b5b60405190808252806020026020018201604052801561133c5781602001602082028036833780820191505090505b5096508067ffffffffffffffff81111561135957611358611e0e565b5b60405190808252806020026020018201604052801561138c57816020015b60608152602001906001900390816113775790505b5095508067ffffffffffffffff8111156113a9576113a8611e0e565b5b6040519080825280602002602001820160405280156113d75781602001602082028036833780820191505090505b5094508067ffffffffffffffff8111156113f4576113f3611e0e565b5b6040519080825280602002602001820160405280156114225781602001602082028036833780820191505090505b5093508067ffffffffffffffff81111561143f5761143e611e0e565b5b60405190808252806020026020018201604052801561146d5781602001602082028036833780820191505090505b5092508067ffffffffffffffff81111561148a57611489611e0e565b5b6040519080825280602002602001820160405280156114b85781602001602082028036833780820191505090505b50915060005b8181101561193e576000600360008e73ffffffffffffffffffffffffffffffffffffffff1673ffffffffffffffffffffffffffffffffffffffff168152602001908152602001600020828154811061151957611518612f6c565b5b90600052602060002001805461152e90612913565b80601f016020809104026020016040519081016040528092919081815260200182805461155a90612913565b80156115a75780601f1061157c576101008083540402835291602001916115a7565b820191906000526020600020905b81548152906001019060200180831161158a57829003601f168201915b50505050509050600460008e73ffffffffffffffffffffffffffffffffffffffff1673ffffffffffffffffffffffffffffffffffffffff168152602001908152602001600020816040516115fb9190612980565b908152602001604051809103902060009054906101000a900460ff166116215750611931565b6000600260008f73ffffffffffffffffffffffffffffffffffffffff1673ffffffffffffffffffffffffffffffffffffffff168152602001908152602001600020826040516116709190612980565b90815260200160405180910390209050818d848151811061169457611693612f6c565b5b60200260200101819052508060000160009054906101000a900473ffffffffffffffffffffffffffffffffffffffff168c84815181106116d7576116d6612f6c565b5b602002602001019073ffffffffffffffffffffffffffffffffffffffff16908173ffffffffffffffffffffffffffffffffffffffff168152505080600101805461172090612913565b80601f016020809104026020016040519081016040528092919081815260200182805461174c90612913565b80156117995780601f1061176e57610100808354040283529160200191611799565b820191906000526020600020905b81548152906001019060200180831161177c57829003601f168201915b50505050508b84815181106117b1576117b0612f6c565b5b602002602001018190525080600201548a84815181106117d4576117d3612f6c565b5b6020026020010181815250508060030180546117ef90612913565b80601f016020809104026020016040519081016040528092919081815260200182805461181b90612913565b80156118685780601f1061183d57610100808354040283529160200191611868565b820191906000526020600020905b81548152906001019060200180831161184b57829003601f168201915b50505050508984815181106118805761187f612f6c565b5b60200260200101819052508060060160009054906101000a900460ff168884815181106118b0576118af612f6c565b5b60200260200101901515908115158152505080600801548784815181106118da576118d9612f6c565b5b60200260200101818152505080600901548684815181106118fe576118fd612f6c565b5b602002602001018181525050806005015485848151811061192257611921612f6c565b5b60200260200101818152505050505b80806001019150506114be565b50509193959799909294969850565b6003602052816000526040600020818154811061196957600080fd5b9060005260206000200160009150915050805461198590612913565b80601f01602080910402602001604051908101604052809291908181526020018280546119b190612913565b80156119fe5780601f106119d3576101008083540402835291602001916119fe565b820191906000526020600020905b8154815290600101906020018083116119e157829003601f168201915b505050505081565b6004602052816000526040600020818051602081018201805184825260208301602085012081835280955050505050506000915091509054906101000a900460ff1681565b600460003373ffffffffffffffffffffffffffffffffffffffff1673ffffffffffffffffffffffffffffffffffffffff16815260200190815260200160002081604051611a989190612980565b908152602001604051809103902060009054906101000a900460ff1615611af4576040517f08c379a0000000000000000000000000000000000000000000000000000000008152600401611aeb90612c9a565b60405180910390fd5b6000600260003373ffffffffffffffffffffffffffffffffffffffff1673ffffffffffffffffffffffffffffffffffffffff16815260200190815260200160002082604051611b439190612980565b90815260200160405180910390209050338160000160006101000a81548173ffffffffffffffffffffffffffffffffffffffff021916908373ffffffffffffffffffffffffffffffffffffffff16021790555083816001019081611ba79190612e66565b5042816002018190555082816003019081611bc29190612e66565b5081816004019081611bd49190612e66565b5060008160060160006101000a81548160ff02191690831515021790555060008160090181905550600181600801819055506203f48042611c159190612f38565b81600501819055506001600460003373ffffffffffffffffffffffffffffffffffffffff1673ffffffffffffffffffffffffffffffffffffffff16815260200190815260200160002083604051611c6c9190612980565b908152602001604051809103902060006101000a81548160ff021916908315150217905550600360003373ffffffffffffffffffffffffffffffffffffffff1673ffffffffffffffffffffffffffffffffffffffff16815260200190815260200160002082908060018154018082558091505060019003906000526020600020016000909190919091509081611d029190612e66565b503373ffffffffffffffffffffffffffffffffffffffff167f1cda5b5fd2ad27ed0b771f516ec8f15a77b7623efaf8d8402b775f2e6527eec5838642604051611d4d939291906130ec565b60405180910390a250505050565b600160009054906101000a900473ffffffffffffffffffffffffffffffffffffffff1681565b6000604051905090565b600080fd5b600080fd5b600073ffffffffffffffffffffffffffffffffffffffff82169050919050565b6000611dc082611d95565b9050919050565b611dd081611db5565b8114611ddb57600080fd5b50565b600081359050611ded81611dc7565b92915050565b600080fd5b600080fd5b6000601f19601f8301169050919050565b7f4e487b7100000000000000000000000000000000000000000000000000000000600052604160045260246000fd5b611e4682611dfd565b810181811067ffffffffffffffff82111715611e6557611e64611e0e565b5b80604052505050565b6000611e78611d81565b9050611e848282611e3d565b919050565b600067ffffffffffffffff821115611ea457611ea3611e0e565b5b611ead82611dfd565b9050602081019050919050565b82818337600083830152505050565b6000611edc611ed784611e89565b611e6e565b905082815260208101848484011115611ef857611ef7611df8565b5b611f03848285611eba565b509392505050565b600082601f830112611f2057611f1f611df3565b5b8135611f30848260208601611ec9565b91505092915050565b60008060408385031215611f5057611f4f611d8b565b5b6000611f5e85828601611dde565b925050602083013567ffffffffffffffff811115611f7f57611f7e611d90565b5b611f8b85828601611f0b565b9150509250929050565b611f9e81611db5565b82525050565b600081519050919050565b600082825260208201905092915050565b60005b83811015611fde578082015181840152602081019050611fc3565b60008484015250505050565b6000611ff582611fa4565b611fff8185611faf565b935061200f818560208601611fc0565b61201881611dfd565b840191505092915050565b6000819050919050565b61203681612023565b82525050565b60008115159050919050565b6120518161203c565b82525050565b60006101208201905061206d600083018c611f95565b818103602083015261207f818b611fea565b905061208e604083018a61202d565b81810360608301526120a08189611fea565b905081810360808301526120b48188611fea565b90506120c360a083018761202d565b6120d060c0830186612048565b6120dd60e083018561202d565b6120eb61010083018461202d565b9a9950505050505050505050565b600067ffffffffffffffff82111561211457612113611e0e565b5b602082029050602081019050919050565b600080fd5b600061213d612138846120f9565b611e6e565b905080838252602082019050602084028301858111156121605761215f612125565b5b835b8181101561218957806121758882611dde565b845260208401935050602081019050612162565b5050509392505050565b600082601f8301126121a8576121a7611df3565b5b81356121b884826020860161212a565b91505092915050565b600080600080608085870312156121db576121da611d8b565b5b600085013567ffffffffffffffff8111156121f9576121f8611d90565b5b61220587828801611f0b565b945050602085013567ffffffffffffffff81111561222657612225611d90565b5b61223287828801612193565b935050604085013567ffffffffffffffff81111561225357612252611d90565b5b61225f87828801611f0b565b925050606085013567ffffffffffffffff8111156122805761227f611d90565b5b61228c87828801611f0b565b91505092959194509250565b60006020820190506122ad6000830184611f95565b92915050565b6000610120820190506122c9600083018c611f95565b81810360208301526122db818b611fea565b90506122ea604083018a61202d565b81810360608301526122fc8189611fea565b905081810360808301526123108188611fea565b905061231f60a0830187612048565b61232c60c083018661202d565b61233960e083018561202d565b61234761010083018461202d565b9a9950505050505050505050565b60006020828403121561236b5761236a611d8b565b5b600061237984828501611dde565b91505092915050565b600081519050919050565b600082825260208201905092915050565b6000819050602082019050919050565b600082825260208201905092915050565b60006123ca82611fa4565b6123d481856123ae565b93506123e4818560208601611fc0565b6123ed81611dfd565b840191505092915050565b600061240483836123bf565b905092915050565b6000602082019050919050565b600061242482612382565b61242e818561238d565b9350836020820285016124408561239e565b8060005b8581101561247c578484038952815161245d85826123f8565b94506124688361240c565b925060208a01995050600181019050612444565b50829750879550505050505092915050565b600081519050919050565b600082825260208201905092915050565b6000819050602082019050919050565b6124c381611db5565b82525050565b60006124d583836124ba565b60208301905092915050565b6000602082019050919050565b60006124f98261248e565b6125038185612499565b935061250e836124aa565b8060005b8381101561253f57815161252688826124c9565b9750612531836124e1565b925050600181019050612512565b5085935050505092915050565b600081519050919050565b600082825260208201905092915050565b6000819050602082019050919050565b61258181612023565b82525050565b60006125938383612578565b60208301905092915050565b6000602082019050919050565b60006125b78261254c565b6125c18185612557565b93506125cc83612568565b8060005b838110156125fd5781516125e48882612587565b97506125ef8361259f565b9250506001810190506125d0565b5085935050505092915050565b600081519050919050565b600082825260208201905092915050565b6000819050602082019050919050565b61263f8161203c565b82525050565b60006126518383612636565b60208301905092915050565b6000602082019050919050565b60006126758261260a565b61267f8185612615565b935061268a83612626565b8060005b838110156126bb5781516126a28882612645565b97506126ad8361265d565b92505060018101905061268e565b5085935050505092915050565b60006101208201905081810360008301526126e3818c612419565b905081810360208301526126f7818b6124ee565b9050818103604083015261270b818a612419565b9050818103606083015261271f81896125ac565b905081810360808301526127338188612419565b905081810360a0830152612747818761266a565b905081810360c083015261275b81866125ac565b905081810360e083015261276f81856125ac565b905081810361010083015261278481846125ac565b90509a9950505050505050505050565b61279d81612023565b81146127a857600080fd5b50565b6000813590506127ba81612794565b92915050565b600080604083850312156127d7576127d6611d8b565b5b60006127e585828601611dde565b92505060206127f6858286016127ab565b9150509250929050565b6000602082019050818103600083015261281a8184611fea565b905092915050565b60006020820190506128376000830184612048565b92915050565b60008060006060848603121561285657612855611d8b565b5b600084013567ffffffffffffffff81111561287457612873611d90565b5b61288086828701611f0b565b935050602084013567ffffffffffffffff8111156128a1576128a0611d90565b5b6128ad86828701611f0b565b925050604084013567ffffffffffffffff8111156128ce576128cd611d90565b5b6128da86828701611f0b565b9150509250925092565b7f4e487b7100000000000000000000000000000000000000000000000000000000600052602260045260246000fd5b6000600282049050600182168061292b57607f821691505b60208210810361293e5761293d6128e4565b5b50919050565b600081905092915050565b600061295a82611fa4565b6129648185612944565b9350612974818560208601611fc0565b80840191505092915050565b600061298c828461294f565b915081905092915050565b7f4d696c6573746f6e652077697468207468697320494420646f6573206e6f742060008201527f6578697374000000000000000000000000000000000000000000000000000000602082015250565b60006129f3602583611faf565b91506129fe82612997565b604082019050919050565b60006020820190508181036000830152612a22816129e6565b9050919050565b7f4d696c6573746f6e65206973206e6f742077616974696e6720666f7220616e7960008201527f207369676e617475726573000000000000000000000000000000000000000000602082015250565b6000612a85602b83611faf565b9150612a9082612a29565b604082019050919050565b60006020820190508181036000830152612ab481612a78565b9050919050565b7f43616c6c6572206973206e6f742061207061727469636970616e74206f72206360008201527f616c6c65722068617320616c7265616479207369676e6564206d696c6573746f60208201527f6e65000000000000000000000000000000000000000000000000000000000000604082015250565b6000612b3d604283611faf565b9150612b4882612abb565b606082019050919050565b60006020820190508181036000830152612b6c81612b30565b9050919050565b7f4e487b7100000000000000000000000000000000000000000000000000000000600052601160045260246000fd5b6000612bad82612023565b91507fffffffffffffffffffffffffffffffffffffffffffffffffffffffffffffffff8203612bdf57612bde612b73565b5b600182019050919050565b60006060820190508181036000830152612c048186611fea565b9050612c13602083018561202d565b612c20604083018461202d565b949350505050565b7f4d696c6573746f6e652077697468207468697320494420616c7265616479206560008201527f7869737473000000000000000000000000000000000000000000000000000000602082015250565b6000612c84602583611faf565b9150612c8f82612c28565b604082019050919050565b60006020820190508181036000830152612cb381612c77565b9050919050565b60008190508160005260206000209050919050565b60006020601f8301049050919050565b600082821b905092915050565b600060088302612d1c7fffffffffffffffffffffffffffffffffffffffffffffffffffffffffffffffff82612cdf565b612d268683612cdf565b95508019841693508086168417925050509392505050565b6000819050919050565b6000612d63612d5e612d5984612023565b612d3e565b612023565b9050919050565b6000819050919050565b612d7d83612d48565b612d91612d8982612d6a565b848454612cec565b825550505050565b600090565b612da6612d99565b612db1818484612d74565b505050565b5b81811015612dd557612dca600082612d9e565b600181019050612db7565b5050565b601f821115612e1a57612deb81612cba565b612df484612ccf565b81016020851015612e03578190505b612e17612e0f85612ccf565b830182612db6565b50505b505050565b600082821c905092915050565b6000612e3d60001984600802612e1f565b1980831691505092915050565b6000612e568383612e2c565b9150826002028217905092915050565b612e6f82611fa4565b67ffffffffffffffff811115612e8857612e87611e0e565b5b612e928254612913565b612e9d828285612dd9565b600060209050601f831160018114612ed05760008415612ebe578287015190505b612ec88582612e4a565b865550612f30565b601f198416612ede86612cba565b60005b82811015612f0657848901518255600182019150602085019450602081019050612ee1565b86831015612f235784890151612f1f601f891682612e2c565b8355505b6001600288020188555050505b505050505050565b6000612f4382612023565b9150612f4e83612023565b9250828201905080821115612f6657612f65612b73565b5b92915050565b7f4e487b7100000000000000000000000000000000000000000000000000000000600052603260045260246000fd5b60006080820190508181036000830152612fb58187611fea565b90508181036020830152612fc98186611fea565b9050612fd8604083018561202d565b612fe5606083018461202d565b95945050505050565b7f6578706972792074696d65206e6f742072656163686564207965740000000000600082015250565b6000613024601b83611faf565b915061302f82612fee565b602082019050919050565b6000602082019050818103600083015261305381613017565b9050919050565b7f6f6e6c792061646d696e73206f72206f776e6572732063616e2072656d6f766560008201527f206d696c6573746f6e6573000000000000000000000000000000000000000000602082015250565b60006130b6602b83611faf565b91506130c18261305a565b604082019050919050565b600060208201905081810360008301526130e5816130a9565b9050919050565b600060608201905081810360008301526131068186611fea565b9050818103602083015261311a8185611fea565b9050613129604083018461202d565b94935050505056fea264697066735822122092c9505eda2f61b86e55d653383091cb7c5ccdf1c5232cc0d861ebdae73ffedb64736f6c634300081c0033",
  "linkReferences": {},
  "deployedLinkReferences": {}
}