{
  "_format": "hh-sol-artifact-1",
  "contractName": "ERC2771Forwarder",
  "sourceName": "@openzeppelin/contracts/metatx/ERC2771Forwarder.sol",
  "abi": [
    {
      "inputs": [
        {
          "internalType": "string",
          "name": "name",
          "type": "string"
        }
      ],
      "stateMutability": "nonpayable",
      "type": "constructor"
    },
    {
      "inputs": [
        {
          "internalType": "uint48",
          "name": "deadline",
          "type": "uint48"
        }
      ],
      "name": "ERC2771ForwarderExpiredRequest",
      "type": "error"
    },
    {
      "inputs": [
        {
          "internalType": "address",
          "name": "signer",
          "type": "address"
        },
        {
          "internalType": "address",
          "name": "from",
          "type": "address"
        }
      ],
      "name": "ERC2771ForwarderInvalidSigner",
      "type": "error"
    },
    {
      "inputs": [
        {
          "internalType": "uint256",
          "name": "requestedValue",
          "type": "uint256"
        },
        {
          "internalType": "uint256",
          "name": "msgValue",
          "type": "uint256"
        }
      ],
      "name": "ERC2771ForwarderMismatchedValue",
      "type": "error"
    },
    {
      "inputs": [
        {
          "internalType": "address",
          "name": "target",
          "type": "address"
        },
        {
          "internalType": "address",
          "name": "forwarder",
          "type": "address"
        }
      ],
      "name": "ERC2771UntrustfulTarget",
      "type": "error"
    },
    {
      "inputs": [],
      "name": "FailedCall",
      "type": "error"
    },
    {
      "inputs": [
        {
          "internalType": "uint256",
          "name": "balance",
          "type": "uint256"
        },
        {
          "internalType": "uint256",
          "name": "needed",
          "type": "uint256"
        }
      ],
      "name": "InsufficientBalance",
      "type": "error"
    },
    {
      "inputs": [
        {
          "internalType": "address",
          "name": "account",
          "type": "address"
        },
        {
          "internalType": "uint256",
          "name": "currentNonce",
          "type": "uint256"
        }
      ],
      "name": "InvalidAccountNonce",
      "type": "error"
    },
    {
      "inputs": [],
      "name": "InvalidShortString",
      "type": "error"
    },
    {
      "inputs": [
        {
          "internalType": "string",
          "name": "str",
          "type": "string"
        }
      ],
      "name": "StringTooLong",
      "type": "error"
    },
    {
      "anonymous": false,
      "inputs": [],
      "name": "EIP712DomainChanged",
      "type": "event"
    },
    {
      "anonymous": false,
      "inputs": [
        {
          "indexed": true,
          "internalType": "address",
          "name": "signer",
          "type": "address"
        },
        {
          "indexed": false,
          "internalType": "uint256",
          "name": "nonce",
          "type": "uint256"
        },
        {
          "indexed": false,
          "internalType": "bool",
          "name": "success",
          "type": "bool"
        }
      ],
      "name": "ExecutedForwardRequest",
      "type": "event"
    },
    {
      "inputs": [],
      "name": "eip712Domain",
      "outputs": [
        {
          "internalType": "bytes1",
          "name": "fields",
          "type": "bytes1"
        },
        {
          "internalType": "string",
          "name": "name",
          "type": "string"
        },
        {
          "internalType": "string",
          "name": "version",
          "type": "string"
        },
        {
          "internalType": "uint256",
          "name": "chainId",
          "type": "uint256"
        },
        {
          "internalType": "address",
          "name": "verifyingContract",
          "type": "address"
        },
        {
          "internalType": "bytes32",
          "name": "salt",
          "type": "bytes32"
        },
        {
          "internalType": "uint256[]",
          "name": "extensions",
          "type": "uint256[]"
        }
      ],
      "stateMutability": "view",
      "type": "function"
    },
    {
      "inputs": [
        {
          "components": [
            {
              "internalType": "address",
              "name": "from",
              "type": "address"
            },
            {
              "internalType": "address",
              "name": "to",
              "type": "address"
            },
            {
              "internalType": "uint256",
              "name": "value",
              "type": "uint256"
            },
            {
              "internalType": "uint256",
              "name": "gas",
              "type": "uint256"
            },
            {
              "internalType": "uint48",
              "name": "deadline",
              "type": "uint48"
            },
            {
              "internalType": "bytes",
              "name": "data",
              "type": "bytes"
            },
            {
              "internalType": "bytes",
              "name": "signature",
              "type": "bytes"
            }
          ],
          "internalType": "struct ERC2771Forwarder.ForwardRequestData",
          "name": "request",
          "type": "tuple"
        }
      ],
      "name": "execute",
      "outputs": [],
      "stateMutability": "payable",
      "type": "function"
    },
    {
      "inputs": [
        {
          "components": [
            {
              "internalType": "address",
              "name": "from",
              "type": "address"
            },
            {
              "internalType": "address",
              "name": "to",
              "type": "address"
            },
            {
              "internalType": "uint256",
              "name": "value",
              "type": "uint256"
            },
            {
              "internalType": "uint256",
              "name": "gas",
              "type": "uint256"
            },
            {
              "internalType": "uint48",
              "name": "deadline",
              "type": "uint48"
            },
            {
              "internalType": "bytes",
              "name": "data",
              "type": "bytes"
            },
            {
              "internalType": "bytes",
              "name": "signature",
              "type": "bytes"
            }
          ],
          "internalType": "struct ERC2771Forwarder.ForwardRequestData[]",
          "name": "requests",
          "type": "tuple[]"
        },
        {
          "internalType": "address payable",
          "name": "refundReceiver",
          "type": "address"
        }
      ],
      "name": "executeBatch",
      "outputs": [],
      "stateMutability": "payable",
      "type": "function"
    },
    {
      "inputs": [
        {
          "internalType": "address",
          "name": "owner",
          "type": "address"
        }
      ],
      "name": "nonces",
      "outputs": [
        {
          "internalType": "uint256",
          "name": "",
          "type": "uint256"
        }
      ],
      "stateMutability": "view",
      "type": "function"
    },
    {
      "inputs": [
        {
          "components": [
            {
              "internalType": "address",
              "name": "from",
              "type": "address"
            },
            {
              "internalType": "address",
              "name": "to",
              "type": "address"
            },
            {
              "internalType": "uint256",
              "name": "value",
              "type": "uint256"
            },
            {
              "internalType": "uint256",
              "name": "gas",
              "type": "uint256"
            },
            {
              "internalType": "uint48",
              "name": "deadline",
              "type": "uint48"
            },
            {
              "internalType": "bytes",
              "name": "data",
              "type": "bytes"
            },
            {
              "internalType": "bytes",
              "name": "signature",
              "type": "bytes"
            }
          ],
          "internalType": "struct ERC2771Forwarder.ForwardRequestData",
          "name": "request",
          "type": "tuple"
        }
      ],
      "name": "verify",
      "outputs": [
        {
          "internalType": "bool",
          "name": "",
          "type": "bool"
        }
      ],
      "stateMutability": "view",
      "type": "function"
    }
  ],
  "bytecode": "0x610160604052346100725761001a6100156101c5565b610249565b610022610077565b611c79610915823960805181611858015260a0518161188f015260c0518161181e015260e05181611bbb01526101005181611be001526101205181610b7f01526101405181610bbf0152611c7990f35b61007d565b60405190565b600080fd5b601f801991011690565b634e487b7160e01b600052604160045260246000fd5b906100ac90610082565b810190811060018060401b038211176100c457604052565b61008c565b906100dc6100d5610077565b92836100a2565b565b600080fd5b600080fd5b600080fd5b600080fd5b60018060401b03811161010e5761010a602091610082565b0190565b61008c565b60005b838110610127575050906000910152565b806020918301518185015201610116565b9092919261014d610148826100f2565b6100c9565b938185526020850190828401116101695761016792610113565b565b6100ed565b9080601f8301121561018c5781602061018993519101610138565b90565b6100e8565b906020828203126101c057600082015160018060401b0381116101bb576101b8920161016e565b90565b6100e3565b6100de565b6101e361258e803803806101d8816100c9565b928339810190610191565b90565b906101f86101f3836100f2565b6100c9565b918252565b60007f3100000000000000000000000000000000000000000000000000000000000000910152565b61022f60016101e6565b9061023c602083016101fd565b565b610246610225565b90565b61025b9061025561023e565b9061025d565b565b90610267916102bb565b565b90565b90565b60200190565b5190565b60018060a01b031690565b90565b61029b6102966102a092610279565b610284565b610279565b90565b6102ac90610287565b90565b6102b8906102a3565b90565b906102f8610313926102d7816102d16000610269565b9061060a565b610120526102ef836102e96001610269565b9061060a565b6101405261026c565b61030a61030482610275565b9161026f565b2060e05261026c565b61032561031f82610275565b9161026f565b20610100524660a05261033661072c565b608052610342306102af565b60c052565b600090565b90565b90565b61036661036161036b9261034f565b610284565b61034c565b90565b5190565b634e487b7160e01b600052602260045260246000fd5b90600160028304921680156103a8575b60208310146103a357565b610372565b91607f1691610398565b600052602060002090565b601f602091010490565b1b90565b919060086103e79102916103e1600019846103c7565b926103c7565b9181191691161790565b61040561040061040a9261034c565b610284565b61034c565b90565b90565b919061042661042161042e936103f1565b61040d565b9083546103cb565b9055565b600090565b61044991610443610432565b91610410565b565b5b818110610457575050565b806104656000600193610437565b0161044c565b9190601f811161047b575b505050565b6104876104ac936103b2565b906020610493846103bd565b830193106104b4575b6104a5906103bd565b019061044b565b388080610476565b91506104a58192905061049c565b1c90565b906104d790600019906008026104c2565b191690565b816104e6916104c6565b906002021790565b906104f88161036e565b9060018060401b0382116105b85761051a826105148554610388565b8561046b565b602090601f831160011461054f5791809161053e93600092610543575b50506104dc565b90555b565b90915001513880610537565b601f1983169161055e856103b2565b9260005b8181106105a057509160029391856001969410610586575b50505002019055610541565b610596910151601f8416906104c6565b905538808061057a565b91936020600181928787015181550195019201610562565b61008c565b906105c7916104ee565b565b90565b90565b60001b90565b6105e96105e46105ee926105c9565b6105cf565b6105cc565b90565b6105fb60ff6105d5565b90565b610607906105cc565b90565b90610613610347565b506106256106208361026c565b610275565b6106386106326020610352565b9161034c565b1060001461064d575061064a9061088a565b90565b600061065c610662939261079d565b016105bd565b61067261066d6105f1565b6105fe565b90565b600090565b7f8b73c3c69bb8fe3d512ecc4cf759cc79239f7b179b0ffacaa9a75d522b39400f90565b6106a890516105cc565b90565b6106b4906105cc565b9052565b6106c19061034c565b9052565b6106ce90610279565b90565b6106da906106c5565b9052565b9095949261072a946107196107239261070f60809661070560a088019c60008901906106ab565b60208701906106ab565b60408501906106ab565b60608301906106b8565b01906106d1565b565b610734610675565b5061073d61067a565b61078761074a60e061069e565b9161077861075961010061069e565b46610763306102af565b9161076c610077565b968795602087016106de565b602082018103825203826100a2565b61079961079382610275565b9161026f565b2090565b90565b90565b6107b76107b26107bc926107a0565b610284565b61034c565b90565b60209181520190565b6107e76107f06020936107f5936107de8161036e565b938480936107bf565b95869101610113565b610082565b0190565b61080f91602082019160008184039101526107c8565b90565b61082c61082761082183610275565b9261026f565b61069e565b906020811061083a575b5090565b61084d90600019906020036008026103c7565b1638610836565b60001c90565b61086661086b91610854565b6103f1565b90565b61088261087d6108879261034c565b6105cf565b6105cc565b90565b610892610347565b5061089c8161026c565b906108a682610275565b6108b96108b3601f6107a3565b9161034c565b116108ee57506108e6816108e06108da6108d56108eb95610812565b61085a565b91610275565b1761086e565b6105fe565b90565b610910906108fa610077565b91829163305a27a960e01b8352600483016107f9565b0390fdfe60806040526004361015610013575b6104ef565b61001e60003561006d565b806319d8d38c146100685780637ecebe001461006357806384b0196e1461005e578063ccf96b4a146100595763df905caf0361000e576104c6565b61049c565b610396565b6101b3565b6100fe565b60e01c90565b60405190565b600080fd5b600080fd5b600080fd5b600080fd5b908160e091031261009b5790565b610088565b906020828203126100d157600082013567ffffffffffffffff81116100cc576100c9920161008d565b90565b610083565b61007e565b151590565b6100e4906100d6565b9052565b91906100fc906000602085019401906100db565b565b3461012e5761012a6101196101143660046100a0565b6104f9565b610121610073565b918291826100e8565b0390f35b610079565b60018060a01b031690565b61014790610133565b90565b6101538161013e565b0361015a57565b600080fd5b9050359061016c8261014a565b565b90602082820312610188576101859160000161015f565b90565b61007e565b90565b6101999061018d565b9052565b91906101b190600060208501940190610190565b565b346101e3576101df6101ce6101c936600461016e565b6105ae565b6101d6610073565b9182918261019d565b0390f35b610079565b60009103126101f357565b61007e565b60ff60f81b1690565b61020a906101f8565b9052565b5190565b60209181520190565b60005b83811061022f575050906000910152565b80602091830151818501520161021e565b601f801991011690565b610269610272602093610277936102608161020e565b93848093610212565b9586910161021b565b610240565b0190565b6102849061013e565b9052565b90565b61029490610288565b9052565b5190565b60209181520190565b60200190565b6102b49061018d565b9052565b906102c5816020936102ab565b0190565b60200190565b906102ec6102e66102df84610298565b809361029c565b926102a5565b9060005b8181106102fd5750505090565b90919261031661031060019286516102b8565b946102c9565b91019190916102f0565b939591946103726103676103869561035961037c956103939c9a61034c60e08c019260008d0190610201565b8a820360208c015261024a565b9088820360408a015261024a565b976060870190610190565b608085019061027b565b60a083019061028b565b60c08184039101526102cf565b90565b346103cd576103a63660046101e8565b6103c96103b16106ef565b936103c0979597939193610073565b97889788610320565b0390f35b610079565b600080fd5b600080fd5b600080fd5b909182601f8301121561041b5781359167ffffffffffffffff831161041657602001926020830284011161041157565b6103dc565b6103d7565b6103d2565b61042990610133565b90565b61043581610420565b0361043c57565b600080fd5b9050359061044e8261042c565b565b9160408383031261049157600083013567ffffffffffffffff811161048c5761047e836104899286016103e1565b939094602001610441565b90565b610083565b61007e565b60000190565b6104b06104aa366004610450565b916108a3565b6104b8610073565b806104c281610496565b0390f35b6104d96104d43660046100a0565b6109f1565b6104e1610073565b806104eb81610496565b0390f35b600080fd5b600090565b61050b906105056104f4565b50610acf565b50919081610528575b509081610520575b5090565b90503861051c565b905038610514565b600090565b90565b61054c61054761055192610133565b610535565b610133565b90565b61055d90610538565b90565b61056990610554565b90565b9061057690610560565b600052602052604060002090565b60001c90565b90565b61059961059e91610584565b61058a565b90565b6105ab905461058d565b90565b6105c56105ca916105bd610530565b50600261056c565b6105a1565b90565b600090565b606090565b600090565b600090565b606090565b6105ef90610554565b90565b90565b60001b90565b61060f61060a610614926105f2565b6105f5565b610288565b90565b61062b610626610630926105f2565b610535565b61018d565b90565b634e487b7160e01b600052604160045260246000fd5b9061065390610240565b810190811067ffffffffffffffff82111761066d57604052565b610633565b9061068561067e610073565b9283610649565b565b67ffffffffffffffff811161069f5760208091020190565b610633565b906106b66106b183610687565b610672565b918252565b369037565b906106e56106cd836106a4565b926020806106db8693610687565b92019103906106bb565b565b600f60f81b90565b6106f76105cd565b506107006105d2565b506107096105d2565b50610712610530565b5061071b6105d7565b506107246105dc565b5061072d6105e1565b50610736610b71565b9061073f610bb1565b90469061074b306105e6565b9061075660006105fb565b906107696107646000610617565b6106c0565b906107726106e7565b96959493929190565b61078f61078a610794926105f2565b610535565b610133565b90565b6107a09061077b565b90565b6107ac90610554565b90565b60016107bb910161018d565b90565b5090565b634e487b7160e01b600052603260045260246000fd5b600080fd5b600080fd5b600080fd5b903590600160e003813603038212156107fe570190565b6107d8565b9082101561081d57602061081a92028101906107e7565b90565b6107c2565b61082b8161018d565b0361083257565b600080fd5b3561084181610822565b90565b634e487b7160e01b600052601160045260246000fd5b61086961086f9193929361018d565b9261018d565b820180921161087a57565b610844565b9160206108a192949361089a60408201966000830190610190565b0190610190565b565b92826108c06108ba6108b56000610797565b61013e565b916107a3565b14936108ca610530565b6108d2610530565b926108db610530565b915b826108fa6108f46108ef878a906107be565b61018d565b9161018d565b1015610982576109219061091b6040610915878a8891610803565b01610837565b9061085a565b9161094161093b61093486898591610803565b8a90610d2a565b156100d6565b610955575b61094f906107af565b916108dd565b9361097a61094f91610974604061096e888b8b91610803565b01610837565b9061085a565b949050610946565b939450955050508061099c6109963461018d565b9161018d565b036109d05750806109b66109b06000610617565b9161018d565b036109c0575b5050565b6109c991610f9f565b38806109bc565b34906109ed60009283926370647f7960e01b84526004840161087f565b0390fd5b34610a0f610a09610a0460408501610837565b61018d565b9161018d565b03610a4c57610a23610a2991600190610d2a565b156100d6565b610a2f57565b600063d6bda27560e01b815280610a4860048201610496565b0390fd5b6040610a589101610837565b3490610a7560009283926370647f7960e01b84526004840161087f565b0390fd5b35610a838161014a565b90565b65ffffffffffff1690565b610a9a81610a86565b03610aa157565b600080fd5b35610ab081610a91565b90565b610ac7610ac2610acc92610a86565b610535565b61018d565b90565b90610ad86104f4565b50610ae16104f4565b50610aea6104f4565b50610af36105d7565b50610afd8261114e565b92909291610b15610b1060208401610a79565b61129c565b91610b2260808201610aa6565b610b34610b2e4261018d565b91610ab3565b1015949081610b47575b50929193929190565b9050610b67610b61610b5c6000879401610a79565b61013e565b9161013e565b1438610b3e565b90565b610b796105d2565b50610bae7f0000000000000000000000000000000000000000000000000000000000000000610ba86000610b6e565b906114b2565b90565b610bb96105d2565b50610bee7f0000000000000000000000000000000000000000000000000000000000000000610be86001610b6e565b906114b2565b90565b610bfa90610554565b90565b916020610c1f929493610c186040820196600083019061027b565b019061027b565b565b610c2a90610a86565b9052565b9190610c4290600060208501940190610c21565b565b903590600160200381360303821215610c86570180359067ffffffffffffffff8211610c8157602001916001820236038313610c7c57565b6107e2565b6107dd565b6107d8565b905090565b90826000939282370152565b909182610cac81610cb393610c8b565b8093610c90565b0190565b60601b90565b610cc690610cb7565b90565b610cd290610cbd565b90565b610ce1610ce69161013e565b610cc9565b9052565b610cfb9060149493610d0293610c9c565b8092610cd5565b0190565b916020610d28929493610d2160408201966000830190610190565b01906100db565b565b919091610d356104f4565b92610d3f82610acf565b91909290929193610e54575b9081610e4c575b509081610e44575b50610d64575b5050565b909250610d7081611557565b90610dfa600080610d8360608801610837565b610d8f60208901610a79565b90610d9c60408a01610837565b83610de18b610dd2610dbe610db58360a0810190610c44565b95909301610a79565b610dc6610073565b94859360208501610cea565b60208201810382520382610649565b92610dea610530565b5060208451940192f1945a6115e1565b83610e257f842fb24a83793558587a3dab2be7674da4a51d09c5542d6dd354e5d0ea70813c92610560565b92610e3a610e31610073565b92839283610d06565b0390a23880610d60565b905038610d5a565b905038610d52565b610e5e81156100d6565b610ed857610e6c83156100d6565b610ead57610e7a82156100d6565b15610d4b5784610e8d6000869201610a79565b90610ea96000928392636422d02b60e11b845260048401610bfd565b0390fd5b610ed4610ebc60808701610aa6565b6000918291634a777ac560e11b835260048301610c2e565b0390fd5b610ee460208601610a79565b610eed30610bf1565b90610f09600092839263d2650cd160e01b845260048401610bfd565b0390fd5b610f1690610554565b90565b610f2560008092610c8b565b0190565b610f3290610f19565b90565b67ffffffffffffffff8111610f5357610f4f602091610240565b0190565b610633565b90610f6a610f6583610f35565b610672565b918252565b606090565b3d600014610f9157610f853d610f58565b903d6000602084013e5b565b610f99610f6f565b90610f8f565b610fa830610f0d565b31610fbb610fb58461018d565b9161018d565b1061100357600091610fcd83926107a3565b90610fd6610073565b9081610fe181610f29565b03925af1610ff7610ff0610f74565b91156100d6565b610ffe5750565b61161b565b5061100d30610f0d565b31611029600092839263cf47918160e01b84526004840161087f565b0390fd5b7f7f96328b83274ebc7c1cf4f7a3abda602b51a78b7fa1d86a2ce353d75e587cac90565b600080fd5b9092919261106b61106682610f35565b610672565b938185526020850190828401116110875761108592610c90565b565b611051565b611097913691611056565b90565b60200190565b5190565b95939198979694929098610100870199600088016110c19161028b565b602087016110ce9161027b565b604086016110db9161027b565b606085016110e891610190565b608084016110f591610190565b60a0830161110291610190565b60c0820161110f91610c21565b60e00161111b9161028b565b565b634e487b7160e01b600052602160045260246000fd5b6004111561113d57565b61111d565b9061114c82611133565b565b61124b9061115a6104f4565b506111636105d7565b5061124561123f61123461117561102d565b61121c61118460008701610a79565b9161120d61119460208901610a79565b886111a160408201610837565b6111ad60608301610837565b6111c16111bc60008501610a79565b6105ae565b916111e56111df6111d460808701610aa6565b9560a0810190610c44565b9061108c565b6111f76111f1826110a0565b9161109a565b2094611201610073565b998a9860208a016110a4565b60208201810382520382610649565b61122e611228826110a0565b9161109a565b20611664565b9260c0810190610c44565b9061108c565b906116c6565b5091909161126261125c6000611142565b91611142565b149190565b919061127b9060006020850194019061027b565b565b90565b61129461128f6112999261127d565b610535565b61018d565b90565b60006020916112a96104f4565b506112d96112e76112b930610bf1565b6112c1610073565b928391600488840163572b6c0560e01b815201611267565b868201810382520382610649565b906112f06104f4565b506112f9610530565b50611302610530565b508382519201905afa3d60005191908161133f575b509081611323575b5090565b90506113386113326000610617565b9161018d565b113861131f565b905061135461134e6020611280565b9161018d565b101538611317565b61136590610288565b90565b90565b61137f61137a61138492611368565b6105f5565b610288565b90565b61139160ff61136b565b90565b634e487b7160e01b600052602260045260246000fd5b90600160028304921680156113ca575b60208310146113c557565b611394565b91607f16916113ba565b60209181520190565b600052602060002090565b90600092918054906114036113fc836113aa565b80946113d4565b9160018116908160001461145c575060011461141f575b505050565b61142c91929394506113dd565b916000925b818410611444575050019038808061141a565b60018160209295939554848601520191019290611431565b92949550505060ff191682521515602002019038808061141a565b90611481916113e8565b90565b906114a461149d92611494610073565b93848092611477565b0383610649565b565b6114af90611484565b90565b906114bb6105d2565b506114c58261135c565b6114de6114d86114d3611387565b610288565b91610288565b14156000146114f457506114f1906117d4565b90565b6114fe91506114a6565b90565b9061150e600019916105f5565b9181191691161790565b61152c6115276115319261018d565b610535565b61018d565b90565b90565b9061154c61154761155392611518565b611534565b8254611501565b9055565b61156b90611563610530565b50600261056c565b611587611577826105a1565b91611581836107af565b90611537565b90565b90565b6115a161159c6115a69261158a565b610535565b61018d565b90565b634e487b7160e01b600052601260045260246000fd5b6115cb6115d19161018d565b9161018d565b9081156115dc570490565b6115a9565b61160c6116076115f76060611612949501610837565b611601603f61158d565b906115bf565b61018d565b9161018d565b1061161957565bfe5b611624816110a0565b6116376116316000610617565b9161018d565b1160001461164757805190602001fd5b600063d6bda27560e01b81528061166060048201610496565b0390fd5b61167e906116706105dc565b50611679611804565b6118bf565b90565b600090565b90565b61169d6116986116a292611686565b610535565b61018d565b90565b6116b96116b46116be9261018d565b6105f5565b610288565b90565b600090565b9190916116d16105d7565b506116da611681565b506116e36105dc565b506116ed836110a0565b6117006116fa6041611689565b9161018d565b146000146117495761174291926117156105dc565b5061171e6105dc565b506117276116c1565b5060208101516060604083015192015160001a909192611996565b9192909190565b506117546000610797565b906117686117636002946110a0565b6116a5565b91929190565b67ffffffffffffffff811161178c57611788602091610240565b0190565b610633565b906117a361179e8361176e565b610672565b918252565b369037565b906117d26117ba83611791565b926020806117c8869361176e565b92019103906117a8565b565b6117dc6105d2565b506117e681611ad5565b906117f96117f46020611280565b6117ad565b918252602082015290565b61180c6105dc565b50611816306105e6565b6118486118427f000000000000000000000000000000000000000000000000000000000000000061013e565b9161013e565b1480611885575b60001461187a577f000000000000000000000000000000000000000000000000000000000000000090565b611882611ba5565b90565b50466118b96118b37f000000000000000000000000000000000000000000000000000000000000000061018d565b9161018d565b1461184f565b6042916118ca6105dc565b50604051917f19010000000000000000000000000000000000000000000000000000000000008352600283015260228201522090565b61190c61191191610584565b611518565b90565b90565b61192b61192661193092611914565b610535565b61018d565b90565b60ff1690565b61194290611933565b9052565b61197c61198394611972606094989795611968608086019a600087019061028b565b6020850190611939565b604083019061028b565b019061028b565b565b61198d610073565b3d6000823e3d90fd5b9392936119a16105d7565b506119aa611681565b506119b36105dc565b506119bd85611900565b6119ef6119e97f7fffffffffffffffffffffffffffffff5d576e7357a4501ddfe92f46681b20a0611917565b9161018d565b11611a835790611a1360209495600094939293611a0a610073565b94859485611946565b838052039060015afa15611a7e57611a2c6000516105f5565b80611a48611a42611a3d6000610797565b61013e565b9161013e565b14611a6057600091611a5a60006105fb565b91929190565b50611a6b6000610797565b600191611a7860006105fb565b91929190565b611985565b505050611a906000610797565b9060039291929190565b611aae611aa9611ab392611368565b610535565b61018d565b90565b90565b611acd611ac8611ad292611ab6565b610535565b61018d565b90565b611aea611aef91611ae4610530565b5061135c565b611900565b611af960ff611a9a565b1680611b0e611b08601f611ab9565b9161018d565b11611b165790565b6000632cd44ac360e21b815280611b2f60048201610496565b0390fd5b7f8b73c3c69bb8fe3d512ecc4cf759cc79239f7b179b0ffacaa9a75d522b39400f90565b90959492611ba394611b92611b9c92611b88608096611b7e60a088019c600089019061028b565b602087019061028b565b604085019061028b565b6060830190610190565b019061027b565b565b611bad6105dc565b50611bb6611b33565b611c2d7f000000000000000000000000000000000000000000000000000000000000000091611c1e7f000000000000000000000000000000000000000000000000000000000000000046611c09306105e6565b91611c12610073565b96879560208701611b57565b60208201810382520382610649565b611c3f611c39826110a0565b9161109a565b209056fea2646970667358221220a987b858d6a5a7828407dc4951a9a26114304a45a72b304e54242508adf63a1164736f6c634300081c0033",
  "linkReferences": {},
  "deployedLinkReferences": {}
}