{
  "_format": "hh-sol-artifact-1",
  "contractName": "MilestoneStorage",
  "sourceName": "contracts/MilestoneStorage.sol",
  "abi": [
    {
      "inputs": [],
      "name": "admin",
      "outputs": [
        {
          "internalType": "address",
          "name": "",
          "type": "address"
        }
      ],
      "stateMutability": "view",
      "type": "function"
    },
    {
      "inputs": [
        {
          "internalType": "address",
          "name": "",
          "type": "address"
        },
        {
          "internalType": "string",
          "name": "",
          "type": "string"
        }
      ],
      "name": "milestoneExists",
      "outputs": [
        {
          "internalType": "bool",
          "name": "",
          "type": "bool"
        }
      ],
      "stateMutability": "view",
      "type": "function"
    },
    {
      "inputs": [
        {
          "internalType": "address",
          "name": "",
          "type": "address"
        },
        {
          "internalType": "string",
          "name": "",
          "type": "string"
        }
      ],
      "name": "userMilestoneById",
      "outputs": [
        {
          "internalType": "address",
          "name": "owner",
          "type": "address"
        },
        {
          "internalType": "string",
          "name": "description",
          "type": "string"
        },
        {
          "internalType": "uint256",
          "name": "timeStamp",
          "type": "uint256"
        },
        {
          "internalType": "string",
          "name": "hash",
          "type": "string"
        },
        {
          "internalType": "string",
          "name": "id",
          "type": "string"
        },
        {
          "internalType": "uint256",
          "name": "expiryDate",
          "type": "uint256"
        },
        {
          "internalType": "bool",
          "name": "isPending",
          "type": "bool"
        },
        {
          "internalType": "uint256",
          "name": "totalParticipants",
          "type": "uint256"
        },
        {
          "internalType": "uint256",
          "name": "signatureCount",
          "type": "uint256"
        }
      ],
      "stateMutability": "view",
      "type": "function"
    },
    {
      "inputs": [
        {
          "internalType": "address",
          "name": "",
          "type": "address"
        },
        {
          "internalType": "uint256",
          "name": "",
          "type": "uint256"
        }
      ],
      "name": "userMilestoneIds",
      "outputs": [
        {
          "internalType": "string",
          "name": "",
          "type": "string"
        }
      ],
      "stateMutability": "view",
      "type": "function"
    }
  ],
  "bytecode": "0x608060405234601c57600e6020565b61093261002c823961093290f35b6026565b60405190565b600080fdfe60806040526004361015610013575b6108f7565b61001e60003561005d565b80631b9c242d14610058578063a73be67c14610053578063c4f484631461004e5763f851a4400361000e576108c2565b610832565b610776565b610600565b60e01c90565b60405190565b600080fd5b600080fd5b600080fd5b60018060a01b031690565b61008c90610078565b90565b61009881610083565b0361009f57565b600080fd5b905035906100b18261008f565b565b600080fd5b600080fd5b601f801991011690565b634e487b7160e01b600052604160045260246000fd5b906100e7906100bd565b810190811067ffffffffffffffff82111761010157604052565b6100c7565b90610119610112610063565b92836100dd565b565b67ffffffffffffffff8111610139576101356020916100bd565b0190565b6100c7565b90826000939282370152565b9092919261015f61015a8261011b565b610106565b9381855260208501908284011161017b576101799261013e565b565b6100b8565b9080601f8301121561019e5781602061019b9335910161014a565b90565b6100b3565b9190916040818403126101e4576101bd83600083016100a4565b92602082013567ffffffffffffffff81116101df576101dc9201610180565b90565b610073565b61006e565b90565b6102006101fb61020592610078565b6101e9565b610078565b90565b610211906101ec565b90565b61021d90610208565b90565b9061022a90610214565b600052602052604060002090565b5190565b905090565b60005b838110610255575050906000910152565b806020918301518185015201610244565b61028b6102829260209261027981610238565b9485809361023c565b93849101610241565b0190565b90565b90565b6102a16102a69161028f565b610292565b9052565b6102ba6102c19160209493610266565b8092610295565b0190565b6102d96102d0610063565b928392836102aa565b03902090565b6102e8916102c5565b90565b60001c90565b60018060a01b031690565b61030861030d916102eb565b6102f1565b90565b61031a90546102fc565b90565b634e487b7160e01b600052602260045260246000fd5b9060016002830492168015610353575b602083101461034e57565b61031d565b91607f1691610343565b60209181520190565b600052602060002090565b906000929180549061038c61038583610333565b809461035d565b916001811690816000146103e557506001146103a8575b505050565b6103b59192939450610366565b916000925b8184106103cd57505001903880806103a3565b600181602092959395548486015201910192906103ba565b92949550505060ff19168252151560200201903880806103a3565b9061040a91610371565b90565b9061042d6104269261041d610063565b93848092610400565b03836100dd565b565b90565b61043e610443916102eb565b61042f565b90565b6104509054610432565b90565b60ff1690565b61046561046a916102eb565b610453565b90565b6104779054610459565b90565b9061048961048e926001610220565b6102df565b61049a60008201610310565b916104a76001830161040d565b916104b460028201610446565b916104c16003830161040d565b916104ce6004820161040d565b916104db60058301610446565b916104e86006820161046d565b9161050160096104fa60088501610446565b9301610446565b90565b61050d90610083565b9052565b60209181520190565b6105396105426020936105479361053081610238565b93848093610511565b95869101610241565b6100bd565b0190565b6105549061028f565b9052565b151590565b61056690610558565b9052565b946105d86105e3916105ca6105fe9b966105f7986101009b9f9e9c966105b26105bd916105ed9a8e6105a56101208201936000830190610504565b602081840391015261051a565b9260408d019061054b565b8a820360608c015261051a565b9088820360808a015261051a565b9a60a087019061054b565b60c085019061055d565b60e083019061054b565b019061054b565b565b3461063b5761063761061c6106163660046101a3565b9061047a565b9561062e999799959195949294610063565b998a998a61056a565b0390f35b610069565b6106498161028f565b0361065057565b600080fd5b9050359061066282610640565b565b919060408382031261068d578061068161068a92600086016100a4565b93602001610655565b90565b61006e565b9061069c90610214565b600052602052604060002090565b634e487b7160e01b600052603260045260246000fd5b5490565b600052602060002090565b6106d8816106c0565b8210156106f3576106ea6001916106c4565b91020190600090565b6106aa565b634e487b7160e01b600052600060045260246000fd5b906000106107225761071f9061040d565b90565b6106f8565b610732906002610692565b61073b816106c0565b821015610758576107559161074f916106cf565b9061070e565b90565b600080fd5b610773916020820191600081840391015261051a565b90565b346107a7576107a361079261078c366004610664565b90610727565b61079a610063565b9182918261075d565b0390f35b610069565b906107b690610214565b600052602052604060002090565b6107cd916102c5565b90565b1c90565b6107e49060086107e993026107d0565b610453565b90565b906107f791546107d4565b90565b6108146108199261080f6003936000946107ac565b6107c4565b6107ec565b90565b91906108309060006020850194019061055d565b565b346108635761085f61084e6108483660046101a3565b906107fa565b610856610063565b9182918261081c565b0390f35b610069565b600091031261087357565b61006e565b61088890600861088d93026107d0565b6102f1565b90565b9061089b9154610878565b90565b6108a9600080610890565b90565b91906108c090600060208501940190610504565b565b346108f2576108d2366004610868565b6108ee6108dd61089e565b6108e5610063565b918291826108ac565b0390f35b610069565b600080fdfea2646970667358221220d1d70e484cc99397e8291b5cb9449443e198c51d7ff6513ca15f7e2286e34c6064736f6c634300081c0033",
  "linkReferences": {},
  "deployedLinkReferences": {}
}