{
  "_format": "hh-sol-artifact-1",
  "contractName": "MilestoneTracker",
  "sourceName": "contracts/MilestoneTracker.sol",
  "abi": [
    {
      "inputs": [
        {
          "internalType": "address",
          "name": "forwarder",
          "type": "address"
        }
      ],
      "stateMutability": "nonpayable",
      "type": "constructor"
    },
    {
      "inputs": [
        {
          "internalType": "address",
          "name": "target",
          "type": "address"
        }
      ],
      "name": "AddressEmptyCode",
      "type": "error"
    },
    {
      "inputs": [
        {
          "internalType": "address",
          "name": "implementation",
          "type": "address"
        }
      ],
      "name": "ERC1967InvalidImplementation",
      "type": "error"
    },
    {
      "inputs": [],
      "name": "ERC1967NonPayable",
      "type": "error"
    },
    {
      "inputs": [
        {
          "internalType": "uint256",
          "name": "currentTime",
          "type": "uint256"
        },
        {
          "internalType": "uint256",
          "name": "expiryTime",
          "type": "uint256"
        }
      ],
      "name": "ExpiryNotReached",
      "type": "error"
    },
    {
      "inputs": [],
      "name": "FailedCall",
      "type": "error"
    },
    {
      "inputs": [],
      "name": "InvalidInitialization",
      "type": "error"
    },
    {
      "inputs": [
        {
          "internalType": "address",
          "name": "owner",
          "type": "address"
        },
        {
          "internalType": "string",
          "name": "id",
          "type": "string"
        }
      ],
      "name": "MilestoneAlreadyExists",
      "type": "error"
    },
    {
      "inputs": [
        {
          "internalType": "address",
          "name": "owner",
          "type": "address"
        },
        {
          "internalType": "string",
          "name": "id",
          "type": "string"
        }
      ],
      "name": "MilestoneDoesNotExist",
      "type": "error"
    },
    {
      "inputs": [
        {
          "internalType": "address",
          "name": "owner",
          "type": "address"
        },
        {
          "internalType": "string",
          "name": "id",
          "type": "string"
        }
      ],
      "name": "MilestoneNotPending",
      "type": "error"
    },
    {
      "inputs": [
        {
          "internalType": "address",
          "name": "caller",
          "type": "address"
        },
        {
          "internalType": "address",
          "name": "user",
          "type": "address"
        },
        {
          "internalType": "address",
          "name": "admin",
          "type": "address"
        }
      ],
      "name": "NotAdminOrOwner",
      "type": "error"
    },
    {
      "inputs": [],
      "name": "NotInitializing",
      "type": "error"
    },
    {
      "inputs": [
        {
          "internalType": "address",
          "name": "signer",
          "type": "address"
        },
        {
          "internalType": "address",
          "name": "owner",
          "type": "address"
        },
        {
          "internalType": "string",
          "name": "id",
          "type": "string"
        }
      ],
      "name": "NotParticipant",
      "type": "error"
    },
    {
      "inputs": [
        {
          "internalType": "address",
          "name": "owner",
          "type": "address"
        }
      ],
      "name": "OwnableInvalidOwner",
      "type": "error"
    },
    {
      "inputs": [
        {
          "internalType": "address",
          "name": "account",
          "type": "address"
        }
      ],
      "name": "OwnableUnauthorizedAccount",
      "type": "error"
    },
    {
      "inputs": [],
      "name": "UUPSUnauthorizedCallContext",
      "type": "error"
    },
    {
      "inputs": [
        {
          "internalType": "bytes32",
          "name": "slot",
          "type": "bytes32"
        }
      ],
      "name": "UUPSUnsupportedProxiableUUID",
      "type": "error"
    },
    {
      "inputs": [
        {
          "internalType": "address",
          "name": "caller",
          "type": "address"
        }
      ],
      "name": "UnauthorizedCaller",
      "type": "error"
    },
    {
      "anonymous": false,
      "inputs": [
        {
          "indexed": true,
          "internalType": "address",
          "name": "owner",
          "type": "address"
        },
        {
          "indexed": true,
          "internalType": "string",
          "name": "id",
          "type": "string"
        },
        {
          "indexed": false,
          "internalType": "string",
          "name": "description",
          "type": "string"
        },
        {
          "indexed": false,
          "internalType": "uint256",
          "name": "timestamp",
          "type": "uint256"
        },
        {
          "indexed": false,
          "internalType": "uint256",
          "name": "participantCount",
          "type": "uint256"
        }
      ],
      "name": "GroupMilestoneAdded",
      "type": "event"
    },
    {
      "anonymous": false,
      "inputs": [
        {
          "indexed": false,
          "internalType": "uint64",
          "name": "version",
          "type": "uint64"
        }
      ],
      "name": "Initialized",
      "type": "event"
    },
    {
      "anonymous": false,
      "inputs": [
        {
          "indexed": true,
          "internalType": "address",
          "name": "owner",
          "type": "address"
        },
        {
          "indexed": true,
          "internalType": "string",
          "name": "id",
          "type": "string"
        },
        {
          "indexed": false,
          "internalType": "string",
          "name": "description",
          "type": "string"
        },
        {
          "indexed": false,
          "internalType": "uint256",
          "name": "timestamp",
          "type": "uint256"
        }
      ],
      "name": "MilestoneAdded",
      "type": "event"
    },
    {
      "anonymous": false,
      "inputs": [
        {
          "indexed": true,
          "internalType": "address",
          "name": "owner",
          "type": "address"
        },
        {
          "indexed": true,
          "internalType": "string",
          "name": "id",
          "type": "string"
        }
      ],
      "name": "MilestoneFinalized",
      "type": "event"
    },
    {
      "anonymous": false,
      "inputs": [
        {
          "indexed": true,
          "internalType": "address",
          "name": "owner",
          "type": "address"
        },
        {
          "indexed": true,
          "internalType": "string",
          "name": "id",
          "type": "string"
        }
      ],
      "name": "MilestoneRemoved",
      "type": "event"
    },
    {
      "anonymous": false,
      "inputs": [
        {
          "indexed": true,
          "internalType": "address",
          "name": "owner",
          "type": "address"
        },
        {
          "indexed": true,
          "internalType": "address",
          "name": "signer",
          "type": "address"
        },
        {
          "indexed": true,
          "internalType": "string",
          "name": "id",
          "type": "string"
        },
        {
          "indexed": false,
          "internalType": "uint256",
          "name": "currentSignatureCount",
          "type": "uint256"
        },
        {
          "indexed": false,
          "internalType": "uint256",
          "name": "requiredSignatures",
          "type": "uint256"
        }
      ],
      "name": "MilestoneSigned",
      "type": "event"
    },
    {
      "anonymous": false,
      "inputs": [
        {
          "indexed": true,
          "internalType": "address",
          "name": "previousOwner",
          "type": "address"
        },
        {
          "indexed": true,
          "internalType": "address",
          "name": "newOwner",
          "type": "address"
        }
      ],
      "name": "OwnershipTransferred",
      "type": "event"
    },
    {
      "anonymous": false,
      "inputs": [
        {
          "indexed": true,
          "internalType": "address",
          "name": "implementation",
          "type": "address"
        }
      ],
      "name": "Upgraded",
      "type": "event"
    },
    {
      "inputs": [],
      "name": "UPGRADE_INTERFACE_VERSION",
      "outputs": [
        {
          "internalType": "string",
          "name": "",
          "type": "string"
        }
      ],
      "stateMutability": "view",
      "type": "function"
    },
    {
      "inputs": [
        {
          "internalType": "string",
          "name": "description",
          "type": "string"
        },
        {
          "internalType": "address[]",
          "name": "participants",
          "type": "address[]"
        },
        {
          "internalType": "string",
          "name": "hash",
          "type": "string"
        },
        {
          "internalType": "string",
          "name": "id",
          "type": "string"
        }
      ],
      "name": "addGroupMilestone",
      "outputs": [],
      "stateMutability": "nonpayable",
      "type": "function"
    },
    {
      "inputs": [
        {
          "internalType": "string",
          "name": "description",
          "type": "string"
        },
        {
          "internalType": "string",
          "name": "hash",
          "type": "string"
        },
        {
          "internalType": "string",
          "name": "id",
          "type": "string"
        }
      ],
      "name": "addMilestone",
      "outputs": [],
      "stateMutability": "nonpayable",
      "type": "function"
    },
    {
      "inputs": [],
      "name": "admin",
      "outputs": [
        {
          "internalType": "address",
          "name": "",
          "type": "address"
        }
      ],
      "stateMutability": "view",
      "type": "function"
    },
    {
      "inputs": [
        {
          "internalType": "address",
          "name": "_user",
          "type": "address"
        }
      ],
      "name": "getAllMilestones",
      "outputs": [
        {
          "internalType": "string[]",
          "name": "ids",
          "type": "string[]"
        },
        {
          "internalType": "address[]",
          "name": "owners",
          "type": "address[]"
        },
        {
          "internalType": "string[]",
          "name": "descriptions",
          "type": "string[]"
        },
        {
          "internalType": "uint256[]",
          "name": "timeStamps",
          "type": "uint256[]"
        },
        {
          "internalType": "string[]",
          "name": "hashes",
          "type": "string[]"
        },
        {
          "internalType": "bool[]",
          "name": "isPendings",
          "type": "bool[]"
        },
        {
          "internalType": "uint256[]",
          "name": "totalParticipants",
          "type": "uint256[]"
        },
        {
          "internalType": "uint256[]",
          "name": "signatureCounts",
          "type": "uint256[]"
        },
        {
          "internalType": "uint256[]",
          "name": "expiryDates",
          "type": "uint256[]"
        }
      ],
      "stateMutability": "view",
      "type": "function"
    },
    {
      "inputs": [
        {
          "internalType": "address",
          "name": "_owner",
          "type": "address"
        },
        {
          "internalType": "string",
          "name": "id",
          "type": "string"
        }
      ],
      "name": "getMilestone",
      "outputs": [
        {
          "internalType": "address",
          "name": "",
          "type": "address"
        },
        {
          "internalType": "string",
          "name": "",
          "type": "string"
        },
        {
          "internalType": "uint256",
          "name": "",
          "type": "uint256"
        },
        {
          "internalType": "string",
          "name": "",
          "type": "string"
        },
        {
          "internalType": "string",
          "name": "",
          "type": "string"
        },
        {
          "internalType": "bool",
          "name": "",
          "type": "bool"
        },
        {
          "internalType": "uint256",
          "name": "",
          "type": "uint256"
        },
        {
          "internalType": "uint256",
          "name": "",
          "type": "uint256"
        },
        {
          "internalType": "uint256",
          "name": "",
          "type": "uint256"
        }
      ],
      "stateMutability": "view",
      "type": "function"
    },
    {
      "inputs": [
        {
          "internalType": "address",
          "name": "_owner",
          "type": "address"
        },
        {
          "internalType": "string",
          "name": "id",
          "type": "string"
        }
      ],
      "name": "getMilestoneData",
      "outputs": [
        {
          "components": [
            {
              "internalType": "address",
              "name": "owner",
              "type": "address"
            },
            {
              "internalType": "string",
              "name": "description",
              "type": "string"
            },
            {
              "internalType": "uint256",
              "name": "timeStamp",
              "type": "uint256"
            },
            {
              "internalType": "string",
              "name": "hash",
              "type": "string"
            },
            {
              "internalType": "string",
              "name": "id",
              "type": "string"
            },
            {
              "internalType": "bool",
              "name": "isPending",
              "type": "bool"
            },
            {
              "internalType": "uint256",
              "name": "totalParticipants",
              "type": "uint256"
            },
            {
              "internalType": "uint256",
              "name": "signatureCount",
              "type": "uint256"
            },
            {
              "internalType": "uint256",
              "name": "expiryDate",
              "type": "uint256"
            }
          ],
          "internalType": "struct MilestoneTracker.MilestoneData",
          "name": "data",
          "type": "tuple"
        }
      ],
      "stateMutability": "view",
      "type": "function"
    },
    {
      "inputs": [],
      "name": "initialize",
      "outputs": [],
      "stateMutability": "nonpayable",
      "type": "function"
    },
    {
      "inputs": [
        {
          "internalType": "address",
          "name": "user",
          "type": "address"
        },
        {
          "internalType": "string",
          "name": "id",
          "type": "string"
        },
        {
          "internalType": "address",
          "name": "addr",
          "type": "address"
        }
      ],
      "name": "isMilestoneOwner",
      "outputs": [
        {
          "internalType": "bool",
          "name": "",
          "type": "bool"
        }
      ],
      "stateMutability": "view",
      "type": "function"
    },
    {
      "inputs": [
        {
          "internalType": "address",
          "name": "forwarder",
          "type": "address"
        }
      ],
      "name": "isTrustedForwarder",
      "outputs": [
        {
          "internalType": "bool",
          "name": "",
          "type": "bool"
        }
      ],
      "stateMutability": "view",
      "type": "function"
    },
    {
      "inputs": [
        {
          "internalType": "address",
          "name": "",
          "type": "address"
        },
        {
          "internalType": "string",
          "name": "",
          "type": "string"
        }
      ],
      "name": "milestoneExists",
      "outputs": [
        {
          "internalType": "bool",
          "name": "",
          "type": "bool"
        }
      ],
      "stateMutability": "view",
      "type": "function"
    },
    {
      "inputs": [
        {
          "internalType": "address",
          "name": "user",
          "type": "address"
        },
        {
          "internalType": "string",
          "name": "id",
          "type": "string"
        }
      ],
      "name": "milestoneExistsFor",
      "outputs": [
        {
          "internalType": "bool",
          "name": "",
          "type": "bool"
        }
      ],
      "stateMutability": "view",
      "type": "function"
    },
    {
      "inputs": [],
      "name": "owner",
      "outputs": [
        {
          "internalType": "address",
          "name": "",
          "type": "address"
        }
      ],
      "stateMutability": "view",
      "type": "function"
    },
    {
      "inputs": [],
      "name": "proxiableUUID",
      "outputs": [
        {
          "internalType": "bytes32",
          "name": "",
          "type": "bytes32"
        }
      ],
      "stateMutability": "view",
      "type": "function"
    },
    {
      "inputs": [
        {
          "internalType": "address",
          "name": "user",
          "type": "address"
        },
        {
          "internalType": "string",
          "name": "id",
          "type": "string"
        }
      ],
      "name": "removeMilestone",
      "outputs": [],
      "stateMutability": "nonpayable",
      "type": "function"
    },
    {
      "inputs": [],
      "name": "renounceOwnership",
      "outputs": [],
      "stateMutability": "nonpayable",
      "type": "function"
    },
    {
      "inputs": [
        {
          "internalType": "address",
          "name": "_owner",
          "type": "address"
        },
        {
          "internalType": "string",
          "name": "_id",
          "type": "string"
        }
      ],
      "name": "signMilestone",
      "outputs": [],
      "stateMutability": "nonpayable",
      "type": "function"
    },
    {
      "inputs": [
        {
          "internalType": "address",
          "name": "newOwner",
          "type": "address"
        }
      ],
      "name": "transferOwnership",
      "outputs": [],
      "stateMutability": "nonpayable",
      "type": "function"
    },
    {
      "inputs": [],
      "name": "trustedForwarder",
      "outputs": [
        {
          "internalType": "address",
          "name": "",
          "type": "address"
        }
      ],
      "stateMutability": "view",
      "type": "function"
    },
    {
      "inputs": [
        {
          "internalType": "address",
          "name": "newImplementation",
          "type": "address"
        },
        {
          "internalType": "bytes",
          "name": "data",
          "type": "bytes"
        }
      ],
      "name": "upgradeToAndCall",
      "outputs": [],
      "stateMutability": "payable",
      "type": "function"
    },
    {
      "inputs": [
        {
          "internalType": "address",
          "name": "",
          "type": "address"
        },
        {
          "internalType": "string",
          "name": "",
          "type": "string"
        }
      ],
      "name": "userMilestoneById",
      "outputs": [
        {
          "internalType": "address",
          "name": "owner",
          "type": "address"
        },
        {
          "internalType": "string",
          "name": "description",
          "type": "string"
        },
        {
          "internalType": "uint256",
          "name": "timeStamp",
          "type": "uint256"
        },
        {
          "internalType": "string",
          "name": "hash",
          "type": "string"
        },
        {
          "internalType": "string",
          "name": "id",
          "type": "string"
        },
        {
          "internalType": "uint256",
          "name": "expiryDate",
          "type": "uint256"
        },
        {
          "internalType": "bool",
          "name": "isPending",
          "type": "bool"
        },
        {
          "internalType": "uint256",
          "name": "totalParticipants",
          "type": "uint256"
        },
        {
          "internalType": "uint256",
          "name": "signatureCount",
          "type": "uint256"
        }
      ],
      "stateMutability": "view",
      "type": "function"
    },
    {
      "inputs": [
        {
          "internalType": "address",
          "name": "",
          "type": "address"
        },
        {
          "internalType": "uint256",
          "name": "",
          "type": "uint256"
        }
      ],
      "name": "userMilestoneIds",
      "outputs": [
        {
          "internalType": "string",
          "name": "",
          "type": "string"
        }
      ],
      "stateMutability": "view",
      "type": "function"
    },
    {
      "inputs": [
        {
          "internalType": "address",
          "name": "_owner",
          "type": "address"
        },
        {
          "internalType": "string",
          "name": "id",
          "type": "string"
        },
        {
          "internalType": "string",
          "name": "hashToVerify",
          "type": "string"
        }
      ],
      "name": "verifyMilestoneHash",
      "outputs": [
        {
          "internalType": "bool",
          "name": "",
          "type": "bool"
        }
      ],
      "stateMutability": "view",
      "type": "function"
    }
  ],
  "bytecode": "0x60c06040523461004f5761001961001461011a565b61013b565b610021610054565b61469161038b823960805181612b84015260a051818181613c5001528181613cb60152613e7d015261469190f35b61005a565b60405190565b600080fd5b601f801991011690565b634e487b7160e01b600052604160045260246000fd5b906100899061005f565b810190811060018060401b038211176100a157604052565b610069565b906100b96100b2610054565b928361007f565b565b600080fd5b60018060a01b031690565b6100d4906100c0565b90565b6100e0816100cb565b036100e757565b600080fd5b905051906100f9826100d7565b565b9060208282031261011557610112916000016100ec565b90565b6100bb565b610138614a1c8038038061012d816100a6565b9283398101906100fb565b90565b6101449061014e565b61014c6102aa565b565b61015790610190565b565b90565b61017061016b610175926100c0565b610159565b6100c0565b90565b6101819061015c565b90565b61018d90610178565b90565b610199906101a7565b6101a230610184565b60a052565b6101b0906101b2565b565b608052565b60401c90565b60ff1690565b6101cf6101d4916101b7565b6101bd565b90565b6101e190546101c3565b90565b60000190565b60001c90565b60018060401b031690565b61020761020c916101ea565b6101f0565b90565b61021990546101fb565b90565b60018060401b031690565b60001b90565b9061023e60018060401b0391610227565b9181191691161790565b61025c6102576102619261021c565b610159565b61021c565b90565b90565b9061027c61027761028392610248565b610264565b825461022d565b9055565b6102909061021c565b9052565b91906102a890600060208501940190610287565b565b6102b2610366565b6102be600082016101d7565b610349576102ce6000820161020f565b6102e66102e060018060401b0361021c565b9161021c565b036102ef575b50565b61030390600060018060401b039101610267565b60018060401b036103407fc7f505b2f371ae2175ee4913f4499e1f2633a7b5936321eed1cdaeb6115181d291610337610054565b91829182610294565b0390a1386102ec565b600063f92ee8a960e01b815280610362600482016101e4565b0390fd5b7ff0c57e16840df040f15088dc2f81fe391c3923bec73e23a9662efc9c229c6a009056fe60806040526004361015610013575b6116ef565b61001e60003561018d565b80631b9c242d146101885780632578400a146101835780634f1ef2861461017e5780635004a3eb1461017957806352d1902d1461017457806355b18fe41461016f578063572b6c051461016a5780635940aa5b146101655780635c971fa914610160578063715018a61461015b57806374b57b2f146101565780637da0a877146101515780638129fc1c1461014c578063848bbcd3146101475780638da5cb5b14610142578063a73be67c1461013d578063ad3cb1cc14610138578063b18abae214610133578063c4f484631461012e578063d221b32614610129578063f2fde38b14610124578063f6e9d0821461011f5763f851a4400361000e576116ba565b61164c565b611592565b61155c565b611458565b6113af565b611326565b611277565b611101565b6110c2565b610d8a565b610d55565b610cff565b610c36565b610c02565b610bc5565b610aa1565b610a4e565b610a19565b6109ad565b61093c565b61083b565b610730565b60e01c90565b60405190565b600080fd5b600080fd5b600080fd5b60018060a01b031690565b6101bc906101a8565b90565b6101c8816101b3565b036101cf57565b600080fd5b905035906101e1826101bf565b565b600080fd5b600080fd5b601f801991011690565b634e487b7160e01b600052604160045260246000fd5b90610217906101ed565b810190811067ffffffffffffffff82111761023157604052565b6101f7565b90610249610242610193565b928361020d565b565b67ffffffffffffffff8111610269576102656020916101ed565b0190565b6101f7565b90826000939282370152565b9092919261028f61028a8261024b565b610236565b938185526020850190828401116102ab576102a99261026e565b565b6101e8565b9080601f830112156102ce578160206102cb9335910161027a565b90565b6101e3565b919091604081840312610314576102ed83600083016101d4565b92602082013567ffffffffffffffff811161030f5761030c92016102b0565b90565b6101a3565b61019e565b90565b61033061032b610335926101a8565b610319565b6101a8565b90565b6103419061031c565b90565b61034d90610338565b90565b9061035a90610344565b600052602052604060002090565b5190565b905090565b60005b838110610385575050906000910152565b806020918301518185015201610374565b6103bb6103b2926020926103a981610368565b9485809361036c565b93849101610371565b0190565b90565b90565b6103d16103d6916103bf565b6103c2565b9052565b6103ea6103f19160209493610396565b80926103c5565b0190565b610409610400610193565b928392836103da565b03902090565b610418916103f5565b90565b60001c90565b60018060a01b031690565b61043861043d9161041b565b610421565b90565b61044a905461042c565b90565b634e487b7160e01b600052602260045260246000fd5b9060016002830492168015610483575b602083101461047e57565b61044d565b91607f1691610473565b60209181520190565b600052602060002090565b90600092918054906104bc6104b583610463565b809461048d565b9160018116908160001461051557506001146104d8575b505050565b6104e59192939450610496565b916000925b8184106104fd57505001903880806104d3565b600181602092959395548486015201910192906104ea565b92949550505060ff19168252151560200201903880806104d3565b9061053a916104a1565b90565b9061055d6105569261054d610193565b93848092610530565b038361020d565b565b90565b61056e6105739161041b565b61055f565b90565b6105809054610562565b90565b60ff1690565b61059561059a9161041b565b610583565b90565b6105a79054610589565b90565b906105b96105be926001610350565b61040f565b6105ca60008201610440565b916105d76001830161053d565b916105e460028201610576565b916105f16003830161053d565b916105fe6004820161053d565b9161060b60058301610576565b916106186006820161059d565b91610631600961062a60088501610576565b9301610576565b90565b61063d906101b3565b9052565b60209181520190565b6106696106726020936106779361066081610368565b93848093610641565b95869101610371565b6101ed565b0190565b610684906103bf565b9052565b151590565b61069690610688565b9052565b94610708610713916106fa61072e9b96610727986101009b9f9e9c966106e26106ed9161071d9a8e6106d56101208201936000830190610634565b602081840391015261064a565b9260408d019061067b565b8a820360608c015261064a565b9088820360808a015261064a565b9a60a087019061067b565b60c085019061068d565b60e083019061067b565b019061067b565b565b3461076b5761076761074c6107463660046102d3565b906105aa565b9561075e999799959195949294610193565b998a998a61069a565b0390f35b610199565b600080fd5b600080fd5b909182601f830112156107b45781359167ffffffffffffffff83116107af5760200192600183028401116107aa57565b610775565b610770565b6101e3565b606081830312610820576107d082600083016101d4565b92602082013567ffffffffffffffff811161081b57836107f191840161077a565b929093604082013567ffffffffffffffff811161081657610812920161077a565b9091565b6101a3565b6101a3565b61019e565b91906108399060006020850194019061068d565b565b3461086f5761086b61085a6108513660046107b9565b9392909261198c565b610862610193565b91829182610825565b0390f35b610199565b67ffffffffffffffff81116108925761088e6020916101ed565b0190565b6101f7565b909291926108ac6108a782610874565b610236565b938185526020850190828401116108c8576108c69261026e565b565b6101e8565b9080601f830112156108eb578160206108e893359101610897565b90565b6101e3565b9190916040818403126109315761090a83600083016101d4565b92602082013567ffffffffffffffff811161092c5761092992016108cd565b90565b6101a3565b61019e565b60000190565b61095061094a3660046108f0565b906119cd565b610958610193565b8061096281610936565b0390f35b9190916040818403126109a85761098083600083016101d4565b92602082013567ffffffffffffffff81116109a35761099f920161077a565b9091565b6101a3565b61019e565b346109de576109da6109c96109c3366004610966565b916119d9565b6109d1610193565b91829182610825565b0390f35b610199565b60009103126109ee57565b61019e565b90565b6109ff906109f3565b9052565b9190610a17906000602085019401906109f6565b565b34610a4957610a293660046109e3565b610a45610a34611a7b565b610a3c610193565b91829182610a03565b0390f35b610199565b34610a7d57610a67610a61366004610966565b91611eff565b610a6f610193565b80610a7981610936565b0390f35b610199565b90602082820312610a9c57610a99916000016101d4565b90565b61019e565b34610ad157610acd610abc610ab7366004610a82565b611f0c565b610ac4610193565b91829182610825565b0390f35b610199565b909182601f83011215610b105781359167ffffffffffffffff8311610b0b576020019260208302840111610b0657565b610775565b610770565b6101e3565b9091608082840312610bc057600082013567ffffffffffffffff8111610bbb5783610b4191840161077a565b929093602082013567ffffffffffffffff8111610bb65781610b64918401610ad6565b929093604082013567ffffffffffffffff8111610bb15783610b8791840161077a565b929093606082013567ffffffffffffffff8111610bac57610ba8920161077a565b9091565b6101a3565b6101a3565b6101a3565b6101a3565b61019e565b34610bfd57610be7610bd8366004610b15565b969590959491949392936123f6565b610bef610193565b80610bf981610936565b0390f35b610199565b34610c3157610c1b610c15366004610966565b916128df565b610c23610193565b80610c2d81610936565b0390f35b610199565b34610c6457610c463660046109e3565b610c4e612912565b610c56610193565b80610c6081610936565b0390f35b610199565b94610cd7610ce291610cc9610cfd9b96610cf6986101009b9f9e9c96610cb1610cbc91610cec9a8e610ca46101208201936000830190610634565b602081840391015261064a565b9260408d019061067b565b8a820360608c015261064a565b9088820360808a015261064a565b9a60a087019061068d565b60c085019061067b565b60e083019061067b565b019061067b565b565b34610d3a57610d36610d1b610d15366004610966565b91612b17565b95610d2d999799959195949294610193565b998a998a610c69565b0390f35b610199565b9190610d5390600060208501940190610634565b565b34610d8557610d653660046109e3565b610d81610d70612b79565b610d78610193565b91829182610d3f565b0390f35b610199565b34610db857610d9a3660046109e3565b610da2612e92565b610daa610193565b80610db481610936565b0390f35b610199565b5190565b60209181520190565b60200190565b610def610df8602093610dfd93610de681610368565b9384809361048d565b95869101610371565b6101ed565b0190565b90610e0b91610dd0565b90565b60200190565b90610e28610e2183610dbd565b8092610dc1565b9081610e3960208302840194610dca565b926000915b838310610e4d57505050505090565b90919293946020610e6f610e6983856001950387528951610e01565b97610e0e565b9301930191939290610e3e565b5190565b60209181520190565b60200190565b610e98906101b3565b9052565b90610ea981602093610e8f565b0190565b60200190565b90610ed0610eca610ec384610e7c565b8093610e80565b92610e89565b9060005b818110610ee15750505090565b909192610efa610ef46001928651610e9c565b94610ead565b9101919091610ed4565b5190565b60209181520190565b60200190565b610f20906103bf565b9052565b90610f3181602093610f17565b0190565b60200190565b90610f58610f52610f4b84610f04565b8093610f08565b92610f11565b9060005b818110610f695750505090565b909192610f82610f7c6001928651610f24565b94610f35565b9101919091610f5c565b5190565b60209181520190565b60200190565b610fa890610688565b9052565b90610fb981602093610f9f565b0190565b60200190565b90610fe0610fda610fd384610f8c565b8093610f90565b92610f99565b9060005b818110610ff15750505090565b90919261100a6110046001928651610fac565b94610fbd565b9101919091610fe4565b9794611086906110786110a2966110698c6110bf9e9c9861105b6110949961104d6110b09f9a6101208601908682036000880152610e14565b908482036020860152610eb3565b916040818403910152610e14565b908c6060818403910152610f3b565b908a820360808c0152610e14565b9088820360a08a0152610fc3565b9086820360c0880152610f3b565b9084820360e0860152610f3b565b91610100818403910152610f3b565b90565b346110fc576110f86110dd6110d8366004610a82565b613501565b956110ef999799959195949294610193565b998a998a611014565b0390f35b610199565b34611131576111113660046109e3565b61112d61111c613561565b611124610193565b91829182610d3f565b0390f35b610199565b61113f816103bf565b0361114657565b600080fd5b9050359061115882611136565b565b9190604083820312611183578061117761118092600086016101d4565b9360200161114b565b90565b61019e565b9061119290610344565b600052602052604060002090565b634e487b7160e01b600052603260045260246000fd5b5490565b600052602060002090565b600052602060002090565b6111d9816111b6565b8210156111f4576111eb6001916111ba565b91020190600090565b6111a0565b634e487b7160e01b600052600060045260246000fd5b90600010611223576112209061053d565b90565b6111f9565b611233906002611188565b61123c816111b6565b8210156112595761125691611250916111d0565b9061120f565b90565b600080fd5b611274916020820191600081840391015261064a565b90565b346112a8576112a461129361128d36600461115a565b90611228565b61129b610193565b9182918261125e565b0390f35b610199565b906112bf6112ba8361024b565b610236565b918252565b60007f352e302e30000000000000000000000000000000000000000000000000000000910152565b6112f660056112ad565b90611303602083016112c4565b565b61130d6112ec565b90565b611318611305565b90565b611323611310565b90565b34611356576113363660046109e3565b61135261134161131b565b611349610193565b9182918261125e565b0390f35b610199565b906060828203126113aa5761137381600084016101d4565b92602083013567ffffffffffffffff81116113a557611397836113a292860161077a565b9390946040016101d4565b90565b6101a3565b61019e565b346113e3576113df6113ce6113c536600461135b565b92919091613580565b6113d6610193565b91829182610825565b0390f35b610199565b906113f290610344565b600052602052604060002090565b611409916103f5565b90565b1c90565b611420906008611425930261140c565b610583565b90565b906114339154611410565b90565b6114506114559261144b6003936000946113e8565b611400565b611428565b90565b346114895761148561147461146e3660046102d3565b90611436565b61147c610193565b91829182610825565b0390f35b610199565b9061154090610100806114ff6114ed6114c961012086016114b760008a01516000890190610e8f565b60208901518782036020890152610dd0565b6114db60408901516040880190610f17565b60608801518682036060880152610dd0565b60808701518582036080870152610dd0565b9461151260a082015160a0860190610f9f565b61152460c082015160c0860190610f17565b61153660e082015160e0860190610f17565b0151910190610f17565b90565b611559916020820191600081840391015261148e565b90565b3461158d57611589611578611572366004610966565b91613887565b611580610193565b91829182611543565b0390f35b610199565b346115c0576115aa6115a5366004610a82565b613905565b6115b2610193565b806115bc81610936565b0390f35b610199565b9060608282031261164757600082013567ffffffffffffffff811161164257816115f091840161077a565b929093602082013567ffffffffffffffff811161163d578361161391840161077a565b929093604082013567ffffffffffffffff811161163857611634920161077a565b9091565b6101a3565b6101a3565b6101a3565b61019e565b346116815761166b61165f3660046115c5565b94939093929192613c23565b611673610193565b8061167d81610936565b0390f35b610199565b61169690600861169b930261140c565b610421565b90565b906116a99154611686565b90565b6116b760008061169e565b90565b346116ea576116ca3660046109e3565b6116e66116d56116ac565b6116dd610193565b91829182610d3f565b0390f35b610199565b600080fd5b600090565b909182611709816117109361036c565b809361026e565b0190565b611725906020949361172c936116f9565b80926103c5565b0190565b90916117479061173e610193565b93849384611714565b03902090565b909161175892611730565b90565b91906117758161176e8161177a95610641565b809561026e565b6101ed565b0190565b916117a493919261179760408201946000830190610634565b602081850391015261175b565b90565b95949392919080968284986117db6117d56117d06117c7600385906113e8565b8d86909161174d565b61059d565b15610688565b6117ef5750506117ec9697506118d7565b90565b906118158a9291926117ff610193565b938493632e0e1ad560e21b85526004850161177e565b0390fd5b909161182492611730565b90565b90565b906000929180549061184561183e83610463565b809461036c565b916001811690816000146118995750600114611861575b505050565b61186e9192939450610496565b6000905b838210611885575050019038808061185c565b600181602092548486015201910190611872565b92949550505060ff1916825280151502019038808061185c565b6118bc9161182a565b90565b60200190565b5190565b90916118d4926116f9565b90565b611930600361190c611907611988989996611982986118ff61196a9861192198506001610350565b919091611819565b611827565b01611915610193565b928391602083016118b3565b6020820181038252038261020d565b61194261193c826118c5565b916118bf565b209461195b61194f610193565b938492602084016118c9565b6020820181038252038261020d565b61197c611976826118c5565b916118bf565b206109f3565b916109f3565b1490565b906119a19493929161199c6116f4565b6117a7565b90565b906119b6916119b1613c3f565b6119b8565b565b906119cb916119c681613cf2565b613d6a565b565b906119d7916119a4565b565b90611a02926119f56119fd936119ed6116f4565b5060036113e8565b91909161174d565b61059d565b90565b600090565b611a1b90611a16613e6c565b611a6f565b90565b90565b60001b90565b611a3b611a36611a4092611a1e565b611a21565b6109f3565b90565b611a6c7f360894a13ba1a3210667c828492db98dca3e2076cc3735a920a3ca505d382bbc611a27565b90565b50611a78611a43565b90565b611a8b611a86611a05565b611a0a565b90565b919033611aaa611aa4611a9f612b79565b6101b3565b916101b3565b141580611b10575b80611aee575b611ac757611ac592611b39565b565b611aea611ad2613ecb565b600091829163d86ad9cf60e01b835260048301610d3f565b0390fd5b5033611b09611b03611afe613561565b6101b3565b916101b3565b1415611ab8565b50611b19613ecb565b611b32611b2c611b27613561565b6101b3565b916101b3565b1415611ab2565b92919083818395611b68611b62611b5d611b55600385906113e8565b858b9161174d565b61059d565b15610688565b611b7b575050611b79939450611d00565b565b90611ba187929192611b8b610193565b938493632e0e1ad560e21b85526004850161177e565b0390fd5b90611baf90610344565b600052602052604060002090565b611be4611bf19593949294611bda60608401966000850190610634565b6020830190610634565b604081850391015261175b565b90565b90611c0060ff91611a21565b9181191691161790565b611c1390610688565b90565b90565b90611c2e611c29611c3592611c0a565b611c16565b8254611bf4565b9055565b634e487b7160e01b600052601160045260246000fd5b611c58906103bf565b6000198114611c675760010190565b611c39565b90611c7960001991611a21565b9181191691161790565b611c97611c92611c9c926103bf565b610319565b6103bf565b90565b90565b90611cb7611cb2611cbe92611c83565b611c9f565b8254611c6c565b9055565b611cd6611ccd610193565b928392836118c9565b03902090565b916020611cfe929493611cf76040820196600083019061067b565b019061067b565b565b919091611d0b613ecb565b90611d2b611d26611d1e60018490610350565b868691611819565b611827565b91611d41611d3b6006850161059d565b15610688565b611ed557611d64611d5e611d59600786018490611ba5565b61059d565b15610688565b611eaa57611d806000611d7b600786018490611ba5565b611c19565b611d9e60098401611d98611d9382610576565b611c4f565b90611ca2565b819085908592611db060098701610576565b93611dfa611dc060088901610576565b91611df4611dee7fd955b88241fc6cba9370941fc909a3795737279a96ce7dfc4c9f9fff3b9753e095610344565b95610344565b95611cc2565b94611e0f611e06610193565b92839283611cdc565b0390a4611e1e60098301610576565b611e3b611e35611e3060088601610576565b6103bf565b916103bf565b14611e47575b50505050565b611e59611e8b92600660009101611c19565b9291611e857f036ed56e03f80fd8fc40481c8c469d9d5f5210b6de8f1907d3283b220c616a0794610344565b92611cc2565b91611e94610193565b80611e9e81610936565b0390a338808080611e41565b90611ed18486939293611ebb610193565b94859463c923961560e01b865260048601611bbd565b0390fd5b8385611efb849192611ee5610193565b938493637dd8c72760e01b85526004850161177e565b0390fd5b90611f0a9291611a8e565b565b611f146116f4565b50611f2e611f28611f23612b79565b6101b3565b916101b3565b1490565b9695949392919033611f53611f4d611f48612b79565b6101b3565b916101b3565b141580611fb9575b80611f97575b611f7057611f6e97611fe2565b565b611f93611f7b613ecb565b600091829163d86ad9cf60e01b835260048301610d3f565b0390fd5b5033611fb2611fac611fa7613561565b6101b3565b916101b3565b1415611f61565b50611fc2613ecb565b611fdb611fd5611fd0613561565b6101b3565b916101b3565b1415611f5b565b9796959493929190611ff2613ecb565b9886889a6120176120128d612009600385906113e8565b9085909161174d565b61059d565b61202a5750506120289899506122fa565b565b906120508c92919261203a610193565b9384936358c6304560e11b85526004850161177e565b0390fd5b5090565b90565b600052602060002090565b5490565b61207381612066565b82101561208e5761208560019161205b565b91020190600090565b6111a0565b5090565b601f602091010490565b1b90565b919060086120c19102916120bb600019846120a1565b926120a1565b9181191691161790565b91906120e16120dc6120e993611c83565b611c9f565b9083546120a5565b9055565b600090565b612104916120fe6120ed565b916120cb565b565b5b818110612112575050565b8061212060006001936120f2565b01612107565b9190601f8111612136575b505050565b61214261216793610496565b90602061214e84612097565b8301931061216f575b61216090612097565b0190612106565b388080612131565b915061216081929050612157565b9061218e906000199060080261140c565b191690565b8161219d9161217d565b906002021790565b916121b09082612093565b9067ffffffffffffffff8211612272576121d4826121ce8554610463565b85612126565b600090601f8311600114612209579180916121f8936000926121fd575b5050612193565b90555b565b909150013538806121f1565b601f1983169161221885610496565b9260005b81811061225a57509160029391856001969410612240575b505050020190556121fb565b612250910135601f84169061217d565b9055388080612234565b9193602060018192878701358155019501920161221c565b6101f7565b92919061228957612287926121a5565b565b6111f9565b9190825492680100000000000000008410156122bf57836122b79160016122bd9601815561206a565b90612277565b565b6101f7565b6122f16122e66040936122f8969897956060850191858303600087015261175b565b96602083019061067b565b019061067b565b565b9092936123ae6123df916123628661235a8987899e9d9c998e8e6123f19c612320613ecb565b9961233f61233a6123328d6001610350565b858791611819565b611827565b986123528a988d98929394959697612054565b964298613edf565b8b8991613f9f565b612383600161237e612376600385906113e8565b8b8d9161174d565b611c19565b6123a261239a61239560028490611188565b612058565b898b9161228e565b96979294954299612054565b916123d97f816e0a9a08f1436d5ab1c561858563a232943b0ad6254e19655506214ab6a55f97610344565b97611cc2565b966123e8610193565b948594856122c4565b0390a3565b9061240697969594939291611f32565b565b91903361242461241e612419612b79565b6101b3565b916101b3565b14158061248a575b80612468575b6124415761243f926124b3565b565b61246461244c613ecb565b600091829163d86ad9cf60e01b835260048301610d3f565b0390fd5b503361248361247d612478613561565b6101b3565b916101b3565b1415612432565b50612493613ecb565b6124ac6124a66124a1613561565b6101b3565b916101b3565b141561242c565b929190838183956124e26124dc6124d76124cf600385906113e8565b858b9161174d565b61059d565b15610688565b6124f55750506124f3939450612751565b565b9061251b87929192612505610193565b938493632e0e1ad560e21b85526004850161177e565b0390fd5b60007f4d696c6573746f6e65206973206e6f742070656e64696e670000000000000000910152565b6125546018602092610641565b61255d8161251f565b0190565b6125779060208101906000818303910152612547565b90565b1561258157565b612589610193565b62461bcd60e51b81528061259f60048201612561565b0390fd5b60207f676e6564207061727469636970616e74732063616e2072656d6f766520697400917f4f6e6c7920746865206d696c6573746f6e65206f776e6572206f7220756e736960008201520152565b6125fe603f604092610641565b612607816125a3565b0190565b61262190602081019060008183039101526125f1565b90565b1561262b57565b612633610193565b62461bcd60e51b8152806126496004820161260b565b0390fd5b90565b61266461265f6126699261264d565b610319565b6101a8565b90565b61267590612650565b90565b9061268960018060a01b0391611a21565b9181191691161790565b90565b906126ab6126a66126b292610344565b612693565b8254612678565b9055565b9190601f81116126c6575b505050565b6126d26126f7936111c5565b9060206126de84612097565b830193106126ff575b6126f090612097565b0190612106565b3880806126c1565b91506126f0819290506126e7565b612722600061271c8354610463565b836126b6565b600080019055565b6127339061270d565b565b61274961274461274e9261264d565b610319565b6103bf565b90565b6128bf9092919261286c61277a61277561276d60018590610350565b878791611819565b611827565b61278e6127896006830161059d565b61257a565b6127cf612799613ecb565b6127c26127bd826127b26127ac896101b3565b916101b3565b149260078601611ba5565b61059d565b81156128d7575b50612624565b6127e56127dc600061266c565b60008301612696565b6127f16001820161272a565b6128076127fe6000612735565b60028301611ca2565b6128136003820161272a565b61281f6004820161272a565b61282d600060068301611c19565b61284361283a6000612735565b60098301611ca2565b6128596128506000612735565b60088301611ca2565b60056128656000612735565b9101611ca2565b61288d6000612888612880600385906113e8565b87879161174d565b611c19565b92916128b97fb7acc9827958344561774ec6877640d64ec42308d91a3c1b55a2a50acfb02c6d94610344565b92611cc2565b916128c8610193565b806128d281610936565b0390a3565b9050386127c9565b906128ea9291612408565b565b6128f461400f565b6128fc6128fe565b565b61291061290b600061266c565b61405e565b565b61291a6128ec565b565b600090565b606090565b9a999897969594939291903361294b612945612940612b79565b6101b3565b916101b3565b1415806129ba575b80612998575b612971576129669b6129e3565b909192939495969798565b61299461297c613ecb565b600091829163d86ad9cf60e01b835260048301610d3f565b0390fd5b50336129b36129ad6129a8613561565b6101b3565b916101b3565b1415612959565b506129c3613ecb565b6129dc6129d66129d1613561565b6101b3565b916101b3565b1415612953565b9b9a99989796959493929190889c8a8c9e8f600382612a01916113e8565b9083612a0c9261174d565b612a159061059d565b15612a1f90610688565b612a3b575050612a309c9d50612a8c565b909192939495969798565b8f82612a61839192612a4b610193565b938493632e0e1ad560e21b85526004850161177e565b0390fd5b612a6f90516101b3565b90565b612a7c90516103bf565b90565b612a899051610688565b90565b90612aab9b999897969594939291505050505050505050919091613887565b90612ab860008301612a65565b90602083015192612acb60408201612a72565b92606082015192608083015192612ae460a08201612a7f565b92612af160c08301612a72565b92612b0b610100612b0460e08601612a72565b9401612a72565b91989796959493929190565b90612b6e9291612b2561291c565b612b2d612921565b612b356120ed565b612b3d612921565b612b45612921565b612b4d6116f4565b91612b566120ed565b93612b5f6120ed565b95612b686120ed565b97612926565b909192939495969798565b612b8161291c565b507f000000000000000000000000000000000000000000000000000000000000000090565b60401c90565b612bb8612bbd91612ba6565b610583565b90565b612bca9054612bac565b90565b67ffffffffffffffff1690565b612be6612beb9161041b565b612bcd565b90565b612bf89054612bda565b90565b67ffffffffffffffff1690565b612c1c612c17612c219261264d565b610319565b612bfb565b90565b90565b612c3b612c36612c4092612c24565b610319565b612bfb565b90565b612c4c90610338565b90565b90612c6267ffffffffffffffff91611a21565b9181191691161790565b612c80612c7b612c8592612bfb565b610319565b612bfb565b90565b90565b90612ca0612c9b612ca792612c6c565b612c88565b8254612c4f565b9055565b60401b90565b90612cc568ff000000000000000091612cab565b9181191691161790565b90612ce4612cdf612ceb92611c0a565b611c16565b8254612cb1565b9055565b612cf890612c27565b9052565b9190612d1090600060208501940190612cef565b565b612d1a6140cc565b612d2f612d2960008301612bc0565b15610688565b612d3b60008301612bee565b80612d4f612d496000612c08565b91612bfb565b1480612e6d575b90612d6a612d646001612c27565b91612bfb565b1480612e44575b612d7c909115610688565b9081612e33575b50612e1657612d9e612d956001612c27565b60008401612c8b565b80612e03575b612dac612e74565b612db4575b50565b612dc2906000809101612ccf565b6001612dfa7fc7f505b2f371ae2175ee4913f4499e1f2633a7b5936321eed1cdaeb6115181d291612df1610193565b91829182612cfc565b0390a138612db1565b612e11600160008401612ccf565b612da4565b600063f92ee8a960e01b815280612e2f60048201610936565b0390fd5b612e3e915015610688565b38612d83565b50612d7c612e5130612c43565b3b612e65612e5f6000612735565b916103bf565b149050612d71565b5081612d56565b612e7c6140fa565b612e8533614122565b612e90336000612696565b565b612e9a612d12565b565b606090565b606090565b606090565b606090565b98979695949392919033612ed3612ecd612ec8612b79565b6101b3565b916101b3565b141580612f42575b80612f20575b612ef957612eee996131d4565b909192939495969798565b612f1c612f04613ecb565b600091829163d86ad9cf60e01b835260048301610d3f565b0390fd5b5033612f3b612f35612f30613561565b6101b3565b916101b3565b1415612ee1565b50612f4b613ecb565b612f64612f5e612f59613561565b6101b3565b916101b3565b1415612edb565b6001612f7791016103bf565b90565b612f839061053d565b90565b67ffffffffffffffff8111612f9e5760208091020190565b6101f7565b90612fb5612fb083612f86565b610236565b918252565b606090565b60005b828110612fce57505050565b602090612fd9612fba565b8184015201612fc2565b90613008612ff083612fa3565b92602080612ffe8693612f86565b9201910390612fbf565b565b67ffffffffffffffff81116130225760208091020190565b6101f7565b906130396130348361300a565b610236565b918252565b369037565b9061306861305083613027565b9260208061305e869361300a565b920191039061303e565b565b67ffffffffffffffff81116130825760208091020190565b6101f7565b906130996130948361306a565b610236565b918252565b369037565b906130c86130b083613087565b926020806130be869361306a565b920191039061309e565b565b67ffffffffffffffff81116130e25760208091020190565b6101f7565b906130f96130f4836130ca565b610236565b918252565b369037565b90613128613110836130e7565b9260208061311e86936130ca565b92019103906130fe565b565b9061313482610dbd565b811015613145576020809102010190565b6111a0565b9061315482610e7c565b811015613165576020809102010190565b6111a0565b90613174906101b3565b9052565b9061318282610f04565b811015613193576020809102010190565b6111a0565b906131a2906103bf565b9052565b906131b082610f8c565b8110156131c1576020809102010190565b6111a0565b906131d090610688565b9052565b9998995050505050505050506131ea6000612735565b6131fe6131f960028590611188565b6111b6565b6132086000612735565b5b8061321c613216846103bf565b916103bf565b10156132855761325d61325861324761324161323a60028a90611188565b85906111d0565b50612f7a565b613253600389906113e8565b611400565b61059d565b613270575b61326b90612f6b565b613209565b9161327d61326b91611c4f565b929050613262565b50928392918061329490612fe3565b8161329e90613043565b826132a890612fe3565b836132b2906130a3565b846132bc90612fe3565b91856132c790613103565b93866132d2906130a3565b95876132dd906130a3565b976132e7906130a3565b9960006132f390612735565b60006132fe90612735565b9d6133148f61330e905b926103bf565b916103bf565b10156134ef578a6133608f61335561334e61334661334061335a9461333b60028990611188565b6111d0565b50612f7a565b9460036113e8565b8490611400565b61059d565b15610688565b6134de5760018c61337091610350565b8161337a9161040f565b61338390611827565b9084908390613392828461312a565b5261339c9161312a565b5150806000016133ab90610440565b85836133b69161314a565b906133c09161316a565b80600101869083906133d190612f7a565b6133db828461312a565b526133e59161312a565b5150806002016133f490610576565b87836133ff91613178565b9061340991613198565b806003018890839061341a90612f7a565b613424828461312a565b5261342e9161312a565b51508060060161343d9061059d565b8983613448916131a6565b90613452916131c6565b8060080161345f90610576565b8a8361346a91613178565b9061347491613198565b8060090161348190610576565b8b8361348c91613178565b9061349691613198565b6005016134a290610576565b8c826134ad91613178565b906134b791613198565b6134c090611c4f565b9b6133146134d161330e9f5b612f6b565b9e908f91839f9392613308565b509b6133146134d161330e9f6134cc565b5092999398509a509850949194939293565b6135569061350d612e9c565b613515612ea1565b61351d612e9c565b613525612ea6565b61352d612e9c565b613535612eab565b9161353e612ea6565b93613547612ea6565b95613550612ea6565b97612eb0565b909192939495969798565b61356961291c565b5061357d600061357761412d565b01610440565b90565b60006135ac6135b8936135be956135a46135b29561359c6116f4565b506001610350565b919091611819565b01610440565b926101b3565b916101b3565b1490565b6135cd610120610236565b90565b600090565b600090565b600090565b6135e76135c2565b90602080808080808080808a6135fb6135d0565b815201613606612fba565b8152016136116135d5565b81520161361c612fba565b815201613627612fba565b8152016136326135da565b81520161363d6135d5565b8152016136486135d5565b8152016136536135d5565b81525050565b6136616135df565b90565b93929190809482849661369561368f61368a613682600385906113e8565b858c9161174d565b61059d565b15610688565b6136a95750506136a694955061377d565b90565b906136cf889291926136b9610193565b938493632e0e1ad560e21b85526004850161177e565b0390fd5b60207f6c6573746f6e6500000000000000000000000000000000000000000000000000917f4f6e6c79206d696c6573746f6e65206f776e65722063616e2076696577206d6960008201520152565b61372e6027604092610641565b613737816136d3565b0190565b6137519060208101906000818303910152613721565b90565b1561375b57565b613763610193565b62461bcd60e51b8152806137796004820161373b565b0390fd5b6137c36137be6138849461387a94966137b6600595986137af336137a96137a3846101b3565b916101b3565b14613754565b6001610350565b919091611819565b611827565b6137db6137d260008301610440565b6000870161316a565b600181016137ec6020870191612f7a565b90526138066137fd60028301610576565b60408701613198565b600381016138176060870191612f7a565b90526004810161382a6080870191612f7a565b905261384461383b6006830161059d565b60a087016131c6565b61385c61385360088301610576565b60c08701613198565b61387461386b60098301610576565b60e08701613198565b01610576565b6101008301613198565b90565b9061389a9291613895613659565b613664565b90565b6138ae906138a961400f565b6138b0565b565b806138cc6138c66138c1600061266c565b6101b3565b916101b3565b146138dc576138da9061405e565b565b6139016138e9600061266c565b6000918291631e4fbdf760e01b835260048301610d3f565b0390fd5b61390e9061389d565b565b94939291903361392f613929613924612b79565b6101b3565b916101b3565b141580613995575b80613973575b61394c5761394a956139be565b565b61396f613957613ecb565b600091829163d86ad9cf60e01b835260048301610d3f565b0390fd5b503361398e613988613983613561565b6101b3565b916101b3565b141561393d565b5061399e613ecb565b6139b76139b16139ac613561565b6101b3565b916101b3565b1415613937565b9594939291906139cc613ecb565b968486986139ef6139ea6139e2600384906113e8565b848d9161174d565b61059d565b613a02575050613a00969750613ac2565b565b90613a288a929192613a12610193565b9384936358c6304560e11b85526004850161177e565b0390fd5b90613a3792916121a5565b565b613a4d613a48613a5292612c24565b610319565b6103bf565b90565b90565b613a6c613a67613a7192613a55565b610319565b6103bf565b90565b613a83613a89919392936103bf565b926103bf565b8201809211613a9457565b611c39565b939290613ab8602091613ac094604088019188830360008a015261175b565b94019061067b565b565b9493929091613b9190613b29613ad6613ecb565b93613af6613af1613ae960018890610350565b898b91611819565b611827565b92613b048660008601612696565b613b138a889060018701613a2c565b613b204260028601611ca2565b60038401613a2c565b613b3885879060048401613a2c565b613b46600060068301611c19565b613b5c613b536000612735565b60098301611ca2565b613b72613b696001613a39565b60088301611ca2565b6005613b8a42613b846203f480613a58565b90613a74565b9101611ca2565b613bb26001613bad613ba5600385906113e8565b86889161174d565b611c19565b613bd1613bc9613bc460028490611188565b612058565b84869161228e565b919293613c1e613c0c4296613c067f1cda5b5fd2ad27ed0b771f516ec8f15a77b7623efaf8d8402b775f2e6527eec596610344565b96611cc2565b95613c15610193565b93849384613a99565b0390a3565b90613c319594939291613910565b565b613c3c90610338565b90565b613c4830613c33565b613c7a613c747f00000000000000000000000000000000000000000000000000000000000000006101b3565b916101b3565b148015613ca5575b613c8857565b600063703e46dd60e11b815280613ca160048201610936565b0390fd5b50613cae614151565b613ce0613cda7f00000000000000000000000000000000000000000000000000000000000000006101b3565b916101b3565b1415613c82565b50613cf061400f565b565b613cfb90613ce7565b565b613d069061031c565b90565b613d1290613cfd565b90565b613d1e90610338565b90565b60e01b90565b613d30816109f3565b03613d3757565b600080fd5b90505190613d4982613d27565b565b90602082820312613d6557613d6291600001613d3c565b90565b61019e565b9190613d986020613d82613d7d86613d09565b613d15565b6352d1902d90613d90610193565b938492613d21565b82528180613da860048201610936565b03915afa8091600092613e3c575b5015600014613dec575050906001613dcc57505b565b613de8906000918291634c9c8ce360e01b835260048301610d3f565b0390fd5b9283613e07613e01613dfc611a43565b6109f3565b916109f3565b03613e1c57613e17929350614178565b613dca565b613e38846000918291632a87526960e21b835260048301610a03565b0390fd5b613e5e91925060203d8111613e65575b613e56818361020d565b810190613d4b565b9038613db6565b503d613e4c565b613e7530613c33565b613ea7613ea17f00000000000000000000000000000000000000000000000000000000000000006101b3565b916101b3565b03613eae57565b600063703e46dd60e11b815280613ec760048201610936565b0390fd5b613ed361291c565b50613edc6142db565b90565b979295613f2c613f7b9a96613f6296613f158c613f749b6001613f359960059f99613f0d9060008601612696565b919201613a2c565b613f238c60028b9101611ca2565b60038c01613a2c565b60048901613a2c565b613f43600160068801611c19565b613f59613f506000612735565b60098801611ca2565b60088601611ca2565b613f6e6203f480613a58565b90613a74565b9101611ca2565b565b9190811015613f8d576020020190565b6111a0565b35613f9c816101bf565b90565b9291613fab6000612735565b5b80613fc9613fc3613fbe868690612054565b6103bf565b916103bf565b10156140085761400390613ffe6001613ff960078901613ff3613fee89898891613f7d565b613f92565b90611ba5565b611c19565b612f6b565b613fac565b5050509050565b614017613561565b61403061402a614025613ecb565b6101b3565b916101b3565b0361403757565b61405a614042613ecb565b600091829163118cdaa760e01b835260048301610d3f565b0390fd5b61406661412d565b61408061407560008301610440565b916000849101612696565b906140b46140ae7f8be0079c531659141344cd1fd0a4f28419497f9722a3daafe3b4186f6b6457e093610344565b91610344565b916140bd610193565b806140c781610936565b0390a3565b7ff0c57e16840df040f15088dc2f81fe391c3923bec73e23a9662efc9c229c6a0090565b6140f8614364565b565b6141026140f0565b565b61411590614110614364565b614117565b565b61412090614400565b565b61412b90614104565b565b7f9016d09d72d40fdae2fd8ceac6b6234c7706214fd39c1cd1e609a0528c19930090565b61415961291c565b50614175600061416f61416a611a43565b61440b565b01610440565b90565b906141828261440e565b816141ad7fbc7cd75a20ee27fd9adebab32041f755214dbc6bffa90cc0225b39da2e5c2d3b91610344565b906141b6610193565b806141c081610936565b0390a26141cc816118c5565b6141df6141d96000612735565b916103bf565b116000146141f4576141f0916144e5565b505b565b50506141fe614466565b6141f2565b5090565b61421661421c919392936103bf565b926103bf565b820391821161422757565b611c39565b600080fd5b600080fd5b90939293848311614256578411614251576001820201920390565b614231565b61422c565b6bffffffffffffffffffffffff191690565b9061427b6142829183614203565b913561425b565b9060148110614290575b5090565b6142ae906bffffffffffffffffffffffff19906014036008026120a1565b163861428c565b60601c90565b6142c76142cc916142b5565b61031c565b90565b6142d8906142bb565b90565b6142e361291c565b506142f060003690614203565b6142f8614515565b61430133611f0c565b80614349575b60001461433c5761432e61433491614339936143266000923692614207565b908092614236565b9061426d565b6142cf565b90565b5050614346614529565b90565b508161435d614357836103bf565b916103bf565b1015614307565b61437561436f614536565b15610688565b61437b57565b6000631afcd79f60e31b81528061439460048201610936565b0390fd5b6143a9906143a4614364565b6143ab565b565b806143c76143c16143bc600061266c565b6101b3565b916101b3565b146143d7576143d59061405e565b565b6143fc6143e4600061266c565b6000918291631e4fbdf760e01b835260048301610d3f565b0390fd5b61440990614398565b565b90565b803b61442361441d6000612735565b916103bf565b146144465761444490600061443e614439611a43565b61440b565b01612696565b565b614462906000918291634c9c8ce360e01b835260048301610d3f565b0390fd5b3461447a6144746000612735565b916103bf565b1161448157565b600063b398979f60e01b81528061449a60048201610936565b0390fd5b606090565b906144b56144b083610874565b610236565b918252565b3d6000146144d7576144cb3d6144a3565b903d6000602084013e5b565b6144df61449e565b906144d5565b600080614512936144f461449e565b508390602081019051915af4906145096144ba565b90919091614555565b90565b61451d6120ed565b506145266145fc565b90565b61453161291c565b503390565b61453e6116f4565b50614552600061454c6140cc565b01612bc0565b90565b906145699061456261449e565b5015610688565b6000146145765750614612565b61457f826118c5565b61459261458c6000612735565b916103bf565b14806145c1575b6145a1575090565b6145bd906000918291639996b31560e01b835260048301610d3f565b0390fd5b50803b6145d76145d16000612735565b916103bf565b14614599565b90565b6145f46145ef6145f9926145dd565b610319565b6103bf565b90565b6146046120ed565b5061460f60146145e0565b90565b61461b816118c5565b61462e6146286000612735565b916103bf565b1160001461463e57805190602001fd5b600063d6bda27560e01b81528061465760048201610936565b0390fdfea2646970667358221220244af4d90b4ed009e555ea25897e95a9faa4056e33ba281fa3ddcaa72be7935f64736f6c634300081c0033",
  "linkReferences": {},
  "deployedLinkReferences": {}
}