{
  "_format": "hh-sol-artifact-1",
  "contractName": "MilestoneNFT",
  "sourceName": "contracts/MilestoneNFT.sol",
  "abi": [
    {
      "inputs": [
        {
          "internalType": "address",
          "name": "forwarder",
          "type": "address"
        }
      ],
      "stateMutability": "nonpayable",
      "type": "constructor"
    },
    {
      "inputs": [
        {
          "internalType": "address",
          "name": "target",
          "type": "address"
        }
      ],
      "name": "AddressEmptyCode",
      "type": "error"
    },
    {
      "inputs": [
        {
          "internalType": "address",
          "name": "implementation",
          "type": "address"
        }
      ],
      "name": "ERC1967InvalidImplementation",
      "type": "error"
    },
    {
      "inputs": [],
      "name": "ERC1967NonPayable",
      "type": "error"
    },
    {
      "inputs": [
        {
          "internalType": "address",
          "name": "sender",
          "type": "address"
        },
        {
          "internalType": "uint256",
          "name": "tokenId",
          "type": "uint256"
        },
        {
          "internalType": "address",
          "name": "owner",
          "type": "address"
        }
      ],
      "name": "ERC721IncorrectOwner",
      "type": "error"
    },
    {
      "inputs": [
        {
          "internalType": "address",
          "name": "operator",
          "type": "address"
        },
        {
          "internalType": "uint256",
          "name": "tokenId",
          "type": "uint256"
        }
      ],
      "name": "ERC721InsufficientApproval",
      "type": "error"
    },
    {
      "inputs": [
        {
          "internalType": "address",
          "name": "approver",
          "type": "address"
        }
      ],
      "name": "ERC721InvalidApprover",
      "type": "error"
    },
    {
      "inputs": [
        {
          "internalType": "address",
          "name": "operator",
          "type": "address"
        }
      ],
      "name": "ERC721InvalidOperator",
      "type": "error"
    },
    {
      "inputs": [
        {
          "internalType": "address",
          "name": "owner",
          "type": "address"
        }
      ],
      "name": "ERC721InvalidOwner",
      "type": "error"
    },
    {
      "inputs": [
        {
          "internalType": "address",
          "name": "receiver",
          "type": "address"
        }
      ],
      "name": "ERC721InvalidReceiver",
      "type": "error"
    },
    {
      "inputs": [
        {
          "internalType": "address",
          "name": "sender",
          "type": "address"
        }
      ],
      "name": "ERC721InvalidSender",
      "type": "error"
    },
    {
      "inputs": [
        {
          "internalType": "uint256",
          "name": "tokenId",
          "type": "uint256"
        }
      ],
      "name": "ERC721NonexistentToken",
      "type": "error"
    },
    {
      "inputs": [],
      "name": "FailedCall",
      "type": "error"
    },
    {
      "inputs": [],
      "name": "InvalidInitialization",
      "type": "error"
    },
    {
      "inputs": [
        {
          "internalType": "string",
          "name": "metadataURI",
          "type": "string"
        }
      ],
      "name": "InvalidMetadataURI",
      "type": "error"
    },
    {
      "inputs": [
        {
          "internalType": "string",
          "name": "milestoneId",
          "type": "string"
        }
      ],
      "name": "InvalidMilestoneId",
      "type": "error"
    },
    {
      "inputs": [],
      "name": "NotInitializing",
      "type": "error"
    },
    {
      "inputs": [
        {
          "internalType": "address",
          "name": "owner",
          "type": "address"
        }
      ],
      "name": "OwnableInvalidOwner",
      "type": "error"
    },
    {
      "inputs": [
        {
          "internalType": "address",
          "name": "account",
          "type": "address"
        }
      ],
      "name": "OwnableUnauthorizedAccount",
      "type": "error"
    },
    {
      "inputs": [],
      "name": "UUPSUnauthorizedCallContext",
      "type": "error"
    },
    {
      "inputs": [
        {
          "internalType": "bytes32",
          "name": "slot",
          "type": "bytes32"
        }
      ],
      "name": "UUPSUnsupportedProxiableUUID",
      "type": "error"
    },
    {
      "inputs": [
        {
          "internalType": "address",
          "name": "caller",
          "type": "address"
        }
      ],
      "name": "UnauthorizedCaller",
      "type": "error"
    },
    {
      "anonymous": false,
      "inputs": [
        {
          "indexed": true,
          "internalType": "address",
          "name": "owner",
          "type": "address"
        },
        {
          "indexed": true,
          "internalType": "address",
          "name": "approved",
          "type": "address"
        },
        {
          "indexed": true,
          "internalType": "uint256",
          "name": "tokenId",
          "type": "uint256"
        }
      ],
      "name": "Approval",
      "type": "event"
    },
    {
      "anonymous": false,
      "inputs": [
        {
          "indexed": true,
          "internalType": "address",
          "name": "owner",
          "type": "address"
        },
        {
          "indexed": true,
          "internalType": "address",
          "name": "operator",
          "type": "address"
        },
        {
          "indexed": false,
          "internalType": "bool",
          "name": "approved",
          "type": "bool"
        }
      ],
      "name": "ApprovalForAll",
      "type": "event"
    },
    {
      "anonymous": false,
      "inputs": [
        {
          "indexed": false,
          "internalType": "uint64",
          "name": "version",
          "type": "uint64"
        }
      ],
      "name": "Initialized",
      "type": "event"
    },
    {
      "anonymous": false,
      "inputs": [
        {
          "indexed": true,
          "internalType": "address",
          "name": "owner",
          "type": "address"
        },
        {
          "indexed": false,
          "internalType": "uint256",
          "name": "tokenId",
          "type": "uint256"
        },
        {
          "indexed": false,
          "internalType": "string",
          "name": "metadataURI",
          "type": "string"
        }
      ],
      "name": "NFTMinted",
      "type": "event"
    },
    {
      "anonymous": false,
      "inputs": [
        {
          "indexed": true,
          "internalType": "address",
          "name": "previousOwner",
          "type": "address"
        },
        {
          "indexed": true,
          "internalType": "address",
          "name": "newOwner",
          "type": "address"
        }
      ],
      "name": "OwnershipTransferred",
      "type": "event"
    },
    {
      "anonymous": false,
      "inputs": [
        {
          "indexed": true,
          "internalType": "address",
          "name": "from",
          "type": "address"
        },
        {
          "indexed": true,
          "internalType": "address",
          "name": "to",
          "type": "address"
        },
        {
          "indexed": true,
          "internalType": "uint256",
          "name": "tokenId",
          "type": "uint256"
        }
      ],
      "name": "Transfer",
      "type": "event"
    },
    {
      "anonymous": false,
      "inputs": [
        {
          "indexed": true,
          "internalType": "address",
          "name": "implementation",
          "type": "address"
        }
      ],
      "name": "Upgraded",
      "type": "event"
    },
    {
      "inputs": [],
      "name": "UPGRADE_INTERFACE_VERSION",
      "outputs": [
        {
          "internalType": "string",
          "name": "",
          "type": "string"
        }
      ],
      "stateMutability": "view",
      "type": "function"
    },
    {
      "inputs": [
        {
          "internalType": "address",
          "name": "to",
          "type": "address"
        },
        {
          "internalType": "uint256",
          "name": "tokenId",
          "type": "uint256"
        }
      ],
      "name": "approve",
      "outputs": [],
      "stateMutability": "nonpayable",
      "type": "function"
    },
    {
      "inputs": [
        {
          "internalType": "address",
          "name": "owner",
          "type": "address"
        }
      ],
      "name": "balanceOf",
      "outputs": [
        {
          "internalType": "uint256",
          "name": "",
          "type": "uint256"
        }
      ],
      "stateMutability": "view",
      "type": "function"
    },
    {
      "inputs": [
        {
          "internalType": "uint256",
          "name": "tokenId",
          "type": "uint256"
        }
      ],
      "name": "getApproved",
      "outputs": [
        {
          "internalType": "address",
          "name": "",
          "type": "address"
        }
      ],
      "stateMutability": "view",
      "type": "function"
    },
    {
      "inputs": [
        {
          "internalType": "string",
          "name": "name",
          "type": "string"
        },
        {
          "internalType": "string",
          "name": "symbol",
          "type": "string"
        }
      ],
      "name": "initialize",
      "outputs": [],
      "stateMutability": "nonpayable",
      "type": "function"
    },
    {
      "inputs": [
        {
          "internalType": "address",
          "name": "owner",
          "type": "address"
        },
        {
          "internalType": "address",
          "name": "operator",
          "type": "address"
        }
      ],
      "name": "isApprovedForAll",
      "outputs": [
        {
          "internalType": "bool",
          "name": "",
          "type": "bool"
        }
      ],
      "stateMutability": "view",
      "type": "function"
    },
    {
      "inputs": [
        {
          "internalType": "address",
          "name": "forwarder",
          "type": "address"
        }
      ],
      "name": "isTrustedForwarder",
      "outputs": [
        {
          "internalType": "bool",
          "name": "",
          "type": "bool"
        }
      ],
      "stateMutability": "view",
      "type": "function"
    },
    {
      "inputs": [
        {
          "internalType": "address",
          "name": "to",
          "type": "address"
        },
        {
          "internalType": "string",
          "name": "metadataURI",
          "type": "string"
        }
      ],
      "name": "mintNFT",
      "outputs": [
        {
          "internalType": "uint256",
          "name": "",
          "type": "uint256"
        }
      ],
      "stateMutability": "nonpayable",
      "type": "function"
    },
    {
      "inputs": [],
      "name": "name",
      "outputs": [
        {
          "internalType": "string",
          "name": "",
          "type": "string"
        }
      ],
      "stateMutability": "view",
      "type": "function"
    },
    {
      "inputs": [],
      "name": "owner",
      "outputs": [
        {
          "internalType": "address",
          "name": "",
          "type": "address"
        }
      ],
      "stateMutability": "view",
      "type": "function"
    },
    {
      "inputs": [
        {
          "internalType": "uint256",
          "name": "tokenId",
          "type": "uint256"
        }
      ],
      "name": "ownerOf",
      "outputs": [
        {
          "internalType": "address",
          "name": "",
          "type": "address"
        }
      ],
      "stateMutability": "view",
      "type": "function"
    },
    {
      "inputs": [],
      "name": "proxiableUUID",
      "outputs": [
        {
          "internalType": "bytes32",
          "name": "",
          "type": "bytes32"
        }
      ],
      "stateMutability": "view",
      "type": "function"
    },
    {
      "inputs": [],
      "name": "renounceOwnership",
      "outputs": [],
      "stateMutability": "nonpayable",
      "type": "function"
    },
    {
      "inputs": [
        {
          "internalType": "address",
          "name": "from",
          "type": "address"
        },
        {
          "internalType": "address",
          "name": "to",
          "type": "address"
        },
        {
          "internalType": "uint256",
          "name": "tokenId",
          "type": "uint256"
        }
      ],
      "name": "safeTransferFrom",
      "outputs": [],
      "stateMutability": "nonpayable",
      "type": "function"
    },
    {
      "inputs": [
        {
          "internalType": "address",
          "name": "from",
          "type": "address"
        },
        {
          "internalType": "address",
          "name": "to",
          "type": "address"
        },
        {
          "internalType": "uint256",
          "name": "tokenId",
          "type": "uint256"
        },
        {
          "internalType": "bytes",
          "name": "data",
          "type": "bytes"
        }
      ],
      "name": "safeTransferFrom",
      "outputs": [],
      "stateMutability": "nonpayable",
      "type": "function"
    },
    {
      "inputs": [
        {
          "internalType": "address",
          "name": "operator",
          "type": "address"
        },
        {
          "internalType": "bool",
          "name": "approved",
          "type": "bool"
        }
      ],
      "name": "setApprovalForAll",
      "outputs": [],
      "stateMutability": "nonpayable",
      "type": "function"
    },
    {
      "inputs": [
        {
          "internalType": "bytes4",
          "name": "interfaceId",
          "type": "bytes4"
        }
      ],
      "name": "supportsInterface",
      "outputs": [
        {
          "internalType": "bool",
          "name": "",
          "type": "bool"
        }
      ],
      "stateMutability": "view",
      "type": "function"
    },
    {
      "inputs": [],
      "name": "symbol",
      "outputs": [
        {
          "internalType": "string",
          "name": "",
          "type": "string"
        }
      ],
      "stateMutability": "view",
      "type": "function"
    },
    {
      "inputs": [
        {
          "internalType": "uint256",
          "name": "tokenId",
          "type": "uint256"
        }
      ],
      "name": "tokenURI",
      "outputs": [
        {
          "internalType": "string",
          "name": "",
          "type": "string"
        }
      ],
      "stateMutability": "view",
      "type": "function"
    },
    {
      "inputs": [
        {
          "internalType": "address",
          "name": "from",
          "type": "address"
        },
        {
          "internalType": "address",
          "name": "to",
          "type": "address"
        },
        {
          "internalType": "uint256",
          "name": "tokenId",
          "type": "uint256"
        }
      ],
      "name": "transferFrom",
      "outputs": [],
      "stateMutability": "nonpayable",
      "type": "function"
    },
    {
      "inputs": [
        {
          "internalType": "address",
          "name": "newOwner",
          "type": "address"
        }
      ],
      "name": "transferOwnership",
      "outputs": [],
      "stateMutability": "nonpayable",
      "type": "function"
    },
    {
      "inputs": [],
      "name": "trustedForwarder",
      "outputs": [
        {
          "internalType": "address",
          "name": "",
          "type": "address"
        }
      ],
      "stateMutability": "view",
      "type": "function"
    },
    {
      "inputs": [
        {
          "internalType": "address",
          "name": "newImplementation",
          "type": "address"
        },
        {
          "internalType": "bytes",
          "name": "data",
          "type": "bytes"
        }
      ],
      "name": "upgradeToAndCall",
      "outputs": [],
      "stateMutability": "payable",
      "type": "function"
    }
  ],
  "bytecode": "0x60c06040523461004f5761001961001461011a565b61013b565b610021610054565b612fc861038b8239608051816115c2015260a051818181611e0d01528181611e73015261203a0152612fc890f35b61005a565b60405190565b600080fd5b601f801991011690565b634e487b7160e01b600052604160045260246000fd5b906100899061005f565b810190811060018060401b038211176100a157604052565b610069565b906100b96100b2610054565b928361007f565b565b600080fd5b60018060a01b031690565b6100d4906100c0565b90565b6100e0816100cb565b036100e757565b600080fd5b905051906100f9826100d7565b565b9060208282031261011557610112916000016100ec565b90565b6100bb565b6101386133538038038061012d816100a6565b9283398101906100fb565b90565b6101449061014e565b61014c6102aa565b565b61015790610190565b565b90565b61017061016b610175926100c0565b610159565b6100c0565b90565b6101819061015c565b90565b61018d90610178565b90565b610199906101a7565b6101a230610184565b60a052565b6101b0906101b2565b565b608052565b60401c90565b60ff1690565b6101cf6101d4916101b7565b6101bd565b90565b6101e190546101c3565b90565b60000190565b60001c90565b60018060401b031690565b61020761020c916101ea565b6101f0565b90565b61021990546101fb565b90565b60018060401b031690565b60001b90565b9061023e60018060401b0391610227565b9181191691161790565b61025c6102576102619261021c565b610159565b61021c565b90565b90565b9061027c61027761028392610248565b610264565b825461022d565b9055565b6102909061021c565b9052565b91906102a890600060208501940190610287565b565b6102b2610366565b6102be600082016101d7565b610349576102ce6000820161020f565b6102e66102e060018060401b0361021c565b9161021c565b036102ef575b50565b61030390600060018060401b039101610267565b60018060401b036103407fc7f505b2f371ae2175ee4913f4499e1f2633a7b5936321eed1cdaeb6115181d291610337610054565b91829182610294565b0390a1386102ec565b600063f92ee8a960e01b815280610362600482016101e4565b0390fd5b7ff0c57e16840df040f15088dc2f81fe391c3923bec73e23a9662efc9c229c6a009056fe60806040526004361015610013575b610cd2565b61001e60003561018d565b806301ffc9a71461018857806306fdde0314610183578063081812fc1461017e578063095ea7b31461017957806323b872dd1461017457806342842e0e1461016f5780634cd88b761461016a5780634f1ef2861461016557806352d1902d14610160578063572b6c051461015b5780636352211e1461015657806370a0823114610151578063715018a61461014c5780637da0a877146101475780638da5cb5b1461014257806395d89b411461013d578063a22cb46514610138578063ad3cb1cc14610133578063b88d4fde1461012e578063c87b56dd14610129578063e985e9c514610124578063eacabe141461011f5763f2fde38b0361000e57610c9f565b610c69565b610ba3565b610b40565b610b09565b610a74565b6109c7565b610940565b61090b565b6108d6565b6108a3565b61086e565b610816565b6107e1565b61078d565b61073d565b610647565b6104cf565b61049b565b61042c565b61039f565b6102ea565b61021f565b60e01c90565b60405190565b600080fd5b600080fd5b600080fd5b63ffffffff60e01b1690565b6101bd816101a8565b036101c457565b600080fd5b905035906101d6826101b4565b565b906020828203126101f2576101ef916000016101c9565b90565b61019e565b151590565b610205906101f7565b9052565b919061021d906000602085019401906101fc565b565b3461024f5761024b61023a6102353660046101d8565b610cdc565b610242610193565b91829182610209565b0390f35b610199565b600091031261025f57565b61019e565b5190565b60209181520190565b60005b838110610285575050906000910152565b806020918301518185015201610274565b601f801991011690565b6102bf6102c86020936102cd936102b681610264565b93848093610268565b95869101610271565b610296565b0190565b6102e791602082019160008184039101526102a0565b90565b3461031a576102fa366004610254565b610316610305610e67565b61030d610193565b918291826102d1565b0390f35b610199565b90565b61032b8161031f565b0361033257565b600080fd5b9050359061034482610322565b565b906020828203126103605761035d91600001610337565b90565b61019e565b60018060a01b031690565b61037990610365565b90565b61038590610370565b9052565b919061039d9060006020850194019061037c565b565b346103cf576103cb6103ba6103b5366004610346565b610e8b565b6103c2610193565b91829182610389565b0390f35b610199565b6103dd81610370565b036103e457565b600080fd5b905035906103f6826103d4565b565b9190604083820312610421578061041561041e92600086016103e9565b93602001610337565b90565b61019e565b60000190565b3461045b5761044561043f3660046103f8565b90610eaa565b61044d610193565b8061045781610426565b0390f35b610199565b90916060828403126104965761049361047c84600085016103e9565b9361048a81602086016103e9565b93604001610337565b90565b61019e565b346104ca576104b46104ae366004610460565b91610f21565b6104bc610193565b806104c681610426565b0390f35b610199565b346104fe576104e86104e2366004610460565b91610fd8565b6104f0610193565b806104fa81610426565b0390f35b610199565b600080fd5b600080fd5b634e487b7160e01b600052604160045260246000fd5b9061052d90610296565b810190811067ffffffffffffffff82111761054757604052565b61050d565b9061055f610558610193565b9283610523565b565b67ffffffffffffffff811161057f5761057b602091610296565b0190565b61050d565b90826000939282370152565b909291926105a56105a082610561565b61054c565b938185526020850190828401116105c1576105bf92610584565b565b610508565b9080601f830112156105e4578160206105e193359101610590565b90565b610503565b91909160408184031261064257600081013567ffffffffffffffff811161063d57836106169183016105c6565b92602082013567ffffffffffffffff81116106385761063592016105c6565b90565b6101a3565b6101a3565b61019e565b346106765761066061065a3660046105e9565b906113c8565b610668610193565b8061067281610426565b0390f35b610199565b67ffffffffffffffff811161069957610695602091610296565b0190565b61050d565b909291926106b36106ae8261067b565b61054c565b938185526020850190828401116106cf576106cd92610584565b565b610508565b9080601f830112156106f2578160206106ef9335910161069e565b90565b610503565b9190916040818403126107385761071183600083016103e9565b92602082013567ffffffffffffffff81116107335761073092016106d4565b90565b6101a3565b61019e565b61075161074b3660046106f7565b906113fd565b610759610193565b8061076381610426565b0390f35b90565b61077390610767565b9052565b919061078b9060006020850194019061076a565b565b346107bd5761079d366004610254565b6107b96107a8611479565b6107b0610193565b91829182610777565b0390f35b610199565b906020828203126107dc576107d9916000016103e9565b90565b61019e565b346108115761080d6107fc6107f73660046107c2565b61148c565b610804610193565b91829182610209565b0390f35b610199565b346108465761084261083161082c366004610346565b6114b2565b610839610193565b91829182610389565b0390f35b610199565b6108549061031f565b9052565b919061086c9060006020850194019061084b565b565b3461089e5761089a6108896108843660046107c2565b611514565b610891610193565b91829182610858565b0390f35b610199565b346108d1576108b3366004610254565b6108bb6115ad565b6108c3610193565b806108cd81610426565b0390f35b610199565b34610906576108e6366004610254565b6109026108f16115b7565b6108f9610193565b91829182610389565b0390f35b610199565b3461093b5761091b366004610254565b610937610926611610565b61092e610193565b91829182610389565b0390f35b610199565b3461097057610950366004610254565b61096c61095b61162f565b610963610193565b918291826102d1565b0390f35b610199565b61097e816101f7565b0361098557565b600080fd5b9050359061099782610975565b565b91906040838203126109c257806109b66109bf92600086016103e9565b9360200161098a565b90565b61019e565b346109f6576109e06109da366004610999565b9061164e565b6109e8610193565b806109f281610426565b0390f35b610199565b90610a0d610a0883610561565b61054c565b918252565b60007f352e302e30000000000000000000000000000000000000000000000000000000910152565b610a4460056109fb565b90610a5160208301610a12565b565b610a5b610a3a565b90565b610a66610a53565b90565b610a71610a5e565b90565b34610aa457610a84366004610254565b610aa0610a8f610a69565b610a97610193565b918291826102d1565b0390f35b610199565b90608082820312610b0457610ac181600084016103e9565b92610acf82602085016103e9565b92610add8360408301610337565b92606082013567ffffffffffffffff8111610aff57610afc92016106d4565b90565b6101a3565b61019e565b34610b3b57610b25610b1c366004610aa9565b92919091611664565b610b2d610193565b80610b3781610426565b0390f35b610199565b34610b7057610b6c610b5b610b56366004610346565b611726565b610b63610193565b918291826102d1565b0390f35b610199565b9190604083820312610b9e5780610b92610b9b92600086016103e9565b936020016103e9565b90565b61019e565b34610bd457610bd0610bbf610bb9366004610b75565b906117c4565b610bc7610193565b91829182610209565b0390f35b610199565b600080fd5b600080fd5b909182601f83011215610c1d5781359167ffffffffffffffff8311610c18576020019260018302840111610c1357565b610bde565b610bd9565b610503565b919091604081840312610c6457610c3c83600083016103e9565b92602082013567ffffffffffffffff8111610c5f57610c5b9201610be3565b9091565b6101a3565b61019e565b34610c9a57610c96610c85610c7f366004610c22565b916118a4565b610c8d610193565b91829182610858565b0390f35b610199565b34610ccd57610cb7610cb23660046107c2565b611a63565b610cbf610193565b80610cc981610426565b0390f35b610199565b600080fd5b600090565b610ce4610cd7565b5080610cff610cf96380ac58cd60e01b6101a8565b916101a8565b148015610d23575b908115610d13575b5090565b610d1d9150611a6e565b38610d0f565b5080610d3e610d38635b5e139f60e01b6101a8565b916101a8565b14610d07565b606090565b634e487b7160e01b600052602260045260246000fd5b9060016002830492168015610d7f575b6020831014610d7a57565b610d49565b91607f1691610d6f565b60209181520190565b600052602060002090565b9060009291805490610db8610db183610d5f565b8094610d89565b91600181169081600014610e115750600114610dd4575b505050565b610de19192939450610d92565b916000925b818410610df95750500190388080610dcf565b60018160209295939554848601520191019290610de6565b92949550505060ff1916825215156020020190388080610dcf565b90610e3691610d9d565b90565b90610e59610e5292610e49610193565b93848092610e2c565b0383610523565b565b610e6490610e39565b90565b610e6f610d44565b50610e836000610e7d611a94565b01610e5b565b90565b600090565b610ea790610e97610e86565b50610ea181611ab8565b50611b28565b90565b90610ebe9190610eb8611b50565b91611b64565b565b90565b90565b610eda610ed5610edf92610ec0565b610ec3565b610365565b90565b610eeb90610ec6565b90565b604090610f18610f1f9496959396610f0e6060840198600085019061037c565b602083019061084b565b019061037c565b565b919080610f3f610f39610f346000610ee2565b610370565b91610370565b14610f9757610f579082610f51611b50565b91611bce565b9182610f6b610f6583610370565b91610370565b03610f7557505050565b610f9390919260009384936364283d7b60e01b855260048501610eee565b0390fd5b610fbc610fa46000610ee2565b6000918291633250574960e11b835260048301610389565b0390fd5b610fca60006109fb565b90565b610fd5610fc0565b90565b91610fec9291610fe6610fcd565b92611664565b565b60401c90565b60ff1690565b61100661100b91610fee565b610ff4565b90565b6110189054610ffa565b90565b60001c90565b67ffffffffffffffff1690565b61103a61103f9161101b565b611021565b90565b61104c905461102e565b90565b67ffffffffffffffff1690565b61107061106b61107592610ec0565b610ec3565b61104f565b90565b90565b61108f61108a61109492611078565b610ec3565b61104f565b90565b6110ab6110a66110b092610365565b610ec3565b610365565b90565b6110bc90611097565b90565b6110c8906110b3565b90565b6110df6110da6110e492610ec0565b610ec3565b61031f565b90565b60001b90565b9061110067ffffffffffffffff916110e7565b9181191691161790565b61111e6111196111239261104f565b610ec3565b61104f565b90565b90565b9061113e6111396111459261110a565b611126565b82546110ed565b9055565b60401b90565b9061116368ff000000000000000091611149565b9181191691161790565b611176906101f7565b90565b90565b9061119161118c6111989261116d565b611179565b825461114f565b9055565b6111a59061107b565b9052565b91906111bd9060006020850194019061119c565b565b906111c8611d63565b916111de6111d86000850161100e565b156101f7565b916111eb60008501611042565b806111ff6111f9600061105c565b9161104f565b148061131e575b9061121a611214600161107b565b9161104f565b14806112f5575b61122c9091156101f7565b90816112e4575b506112c75761125d91611252611249600161107b565b60008701611129565b836112b4575b611397565b611265575b50565b61127390600080910161117c565b60016112ab7fc7f505b2f371ae2175ee4913f4499e1f2633a7b5936321eed1cdaeb6115181d2916112a2610193565b918291826111a9565b0390a138611262565b6112c260016000870161117c565b611258565b600063f92ee8a960e01b8152806112e060048201610426565b0390fd5b6112ef9150156101f7565b38611233565b5061122c611302306110bf565b3b61131661131060006110cb565b9161031f565b149050611221565b5083611206565b61133961133461133e92611078565b610ec3565b61031f565b90565b9061134e600019916110e7565b9181191691161790565b61136c6113676113719261031f565b610ec3565b61031f565b90565b90565b9061138c61138761139392611358565b611374565b8254611341565b9055565b906113a191611da7565b6113a9611dbd565b6113b233611de5565b6113c66113bf6001611325565b6001611377565b565b906113d2916111bf565b565b906113e6916113e1611dfc565b6113e8565b565b906113fb916113f681611eaf565b611f27565b565b90611407916113d4565b565b600090565b61141f9061141a612029565b61146d565b90565b90565b61143961143461143e92611422565b6110e7565b610767565b90565b61146a7f360894a13ba1a3210667c828492db98dca3e2076cc3735a920a3ca505d382bbc611425565b90565b50611476611441565b90565b611489611484611409565b61140e565b90565b611494610cd7565b506114ae6114a86114a36115b7565b610370565b91610370565b1490565b6114c4906114be610e86565b50611ab8565b90565b600090565b6114d5906110b3565b90565b906114e2906114cc565b600052602052604060002090565b90565b6114ff6115049161101b565b6114f0565b90565b61151190546114f3565b90565b61151c6114c7565b50611525611a94565b8161154161153b6115366000610ee2565b610370565b91610370565b1461155e5761155b91600361155692016114d8565b611507565b90565b61158361156b6000610ee2565b60009182916322718ad960e21b835260048301610389565b0390fd5b61158f612088565b611597611599565b565b6115ab6115a66000610ee2565b6120d7565b565b6115b5611587565b565b6115bf610e86565b507f000000000000000000000000000000000000000000000000000000000000000090565b60018060a01b031690565b6115fb6116009161101b565b6115e4565b90565b61160d90546115ef565b90565b611618610e86565b5061162c6000611626612145565b01611603565b90565b611637610d44565b5061164b6001611645611a94565b01610e5b565b90565b6116629161165a611b50565b91909161219f565b565b91611688939161167684828491610f21565b61167e611b50565b9390919293612378565b565b60007f546f6b656e20646f6573206e6f74206578697374000000000000000000000000910152565b6116bf6014602092610268565b6116c88161168a565b0190565b6116e290602081019060008183039101526116b2565b90565b156116ec57565b6116f4610193565b62461bcd60e51b81528061170a600482016116cc565b0390fd5b9061171890611358565b600052602052604060002090565b61176b61177091611735610d44565b50611764611742826124d4565b61175d6117576117526000610ee2565b610370565b91610370565b14156116e5565b600061170e565b610e5b565b90565b9061177d906114cc565b600052602052604060002090565b90611795906114cc565b600052602052604060002090565b6117af6117b49161101b565b610ff4565b90565b6117c190546117a3565b90565b6117f2916117e86117ed926117d7610cd7565b5060056117e2611a94565b01611773565b61178b565b6117b7565b90565b91565b5090565b91906118168161180f8161181b95610268565b8095610584565b610296565b0190565b909161183792602083019260008185039101526117fc565b90565b634e487b7160e01b600052601160045260246000fd5b6118599061031f565b60001981146118685760010190565b61183a565b611878913691610590565b90565b916118a19391926118946040820194600083019061084b565b60208185039101526117fc565b90565b916118ad6114c7565b5033806118c96118c36118be6115b7565b610370565b91610370565b1415806119d9575b6119b957506118ea6118e48383906117f5565b906117f8565b6118fd6118f760006110cb565b9161031f565b146119935761190c6001611507565b9261192961192261191d6001611507565b611850565b6001611377565b6119348185906124fc565b6119498461194385859061186d565b906126fc565b908392909261198d61197b7fd35bb95e09c04b219e35047ce7b7b300e3384264ef84a40456943dbc0fc17c14946114cc565b94611984610193565b9384938461187b565b0390a290565b906119b561199f610193565b92839263b1a64b2d60e01b84526004840161181f565b0390fd5b6119d590600091829163d86ad9cf60e01b835260048301610389565b0390fd5b50806119f46119ee6119e9611610565b610370565b91610370565b14156118d1565b611a0c90611a07612088565b611a0e565b565b80611a2a611a24611a1f6000610ee2565b610370565b91610370565b14611a3a57611a38906120d7565b565b611a5f611a476000610ee2565b6000918291631e4fbdf760e01b835260048301610389565b0390fd5b611a6c906119fb565b565b611a76610cd7565b50611a90611a8a6301ffc9a760e01b6101a8565b916101a8565b1490565b7f80bb2b638cc20bc4d0a60d66940f3ab4a00c1d7b313497ca82fb0b4ab007930090565b611ac0610e86565b50611aca816124d4565b9081611ae7611ae1611adc6000610ee2565b610370565b91610370565b14611af0575090565b611b0c906000918291637e27328960e01b835260048301610858565b0390fd5b90611b1a90611358565b600052602052604060002090565b611b48611b4d91611b37610e86565b506004611b42611a94565b01611b10565b611603565b90565b611b58610e86565b50611b616127e6565b90565b91611b72929160019261286f565b565b90611b7f910361031f565b90565b90611b8d910161031f565b90565b90611ba160018060a01b03916110e7565b9181191691161790565b90565b90611bc3611bbe611bca926114cc565b611bab565b8254611b90565b9055565b90611bd7610e86565b50611c68611be3611a94565b611bec836124d4565b9480611c09611c03611bfe6000610ee2565b610370565b91610370565b03611d50575b5084611c2c611c26611c216000610ee2565b610370565b91610370565b03611cf7575b83611c4e611c48611c436000610ee2565b610370565b91610370565b03611cbf575b611c6360028592018490611b10565b611bae565b8291611ca6611ca0611c9a7fddf252ad1be2c89b69c2b068fc378daa952ba7f163c4a11628f55a4df523b3ef956114cc565b926114cc565b92611358565b92611caf610193565b80611cb981610426565b0390a490565b611cf2611ccc6001611325565b611cec611cdd6003850188906114d8565b91611ce783611507565b611b82565b90611377565b611c54565b611d18611d046000610ee2565b84611d0f6000610ee2565b9060009261286f565b611d4b611d256001611325565b611d45611d366003850189906114d8565b91611d4083611507565b611b74565b90611377565b611c32565b611d5d90869085916129f1565b38611c0f565b7ff0c57e16840df040f15088dc2f81fe391c3923bec73e23a9662efc9c229c6a0090565b90611d9991611d94612a71565b611d9b565b565b90611da591612add565b565b90611db191611d87565b565b611dbb612a71565b565b611dc5611db3565b565b611dd890611dd3612a71565b611dda565b565b611de390612b51565b565b611dee90611dc7565b565b611df9906110b3565b90565b611e0530611df0565b611e37611e317f0000000000000000000000000000000000000000000000000000000000000000610370565b91610370565b148015611e62575b611e4557565b600063703e46dd60e11b815280611e5e60048201610426565b0390fd5b50611e6b612b5c565b611e9d611e977f0000000000000000000000000000000000000000000000000000000000000000610370565b91610370565b1415611e3f565b50611ead612088565b565b611eb890611ea4565b565b611ec390611097565b90565b611ecf90611eba565b90565b611edb906110b3565b90565b60e01b90565b611eed81610767565b03611ef457565b600080fd5b90505190611f0682611ee4565b565b90602082820312611f2257611f1f91600001611ef9565b90565b61019e565b9190611f556020611f3f611f3a86611ec6565b611ed2565b6352d1902d90611f4d610193565b938492611ede565b82528180611f6560048201610426565b03915afa8091600092611ff9575b5015600014611fa9575050906001611f8957505b565b611fa5906000918291634c9c8ce360e01b835260048301610389565b0390fd5b9283611fc4611fbe611fb9611441565b610767565b91610767565b03611fd957611fd4929350612b83565b611f87565b611ff5846000918291632a87526960e21b835260048301610777565b0390fd5b61201b91925060203d8111612022575b6120138183610523565b810190611f08565b9038611f73565b503d612009565b61203230611df0565b61206461205e7f0000000000000000000000000000000000000000000000000000000000000000610370565b91610370565b0361206b57565b600063703e46dd60e11b81528061208460048201610426565b0390fd5b612090611610565b6120a96120a361209e611b50565b610370565b91610370565b036120b057565b6120d36120bb611b50565b600091829163118cdaa760e01b835260048301610389565b0390fd5b6120df612145565b6120f96120ee60008301611603565b916000849101611bae565b9061212d6121277f8be0079c531659141344cd1fd0a4f28419497f9722a3daafe3b4186f6b6457e0936114cc565b916114cc565b91612136610193565b8061214081610426565b0390a3565b7f9016d09d72d40fdae2fd8ceac6b6234c7706214fd39c1cd1e609a0528c19930090565b9061217560ff916110e7565b9181191691161790565b9061219461218f61219b9261116d565b611179565b8254612169565b9055565b9190916121aa611a94565b836121c66121c06121bb6000610ee2565b610370565b91610370565b1461223d576121ed906121e86121e160058693018590611773565b869061178b565b61217f565b9190916122386122266122207f17307eab39ab6107e8899845ad3d59bd9653f200f220920489ca2b5937696c31936114cc565b936114cc565b9361222f610193565b91829182610209565b0390a3565b612259846000918291630b61174360e31b835260048301610389565b0390fd5b61226690611097565b90565b6122729061225d565b90565b61227e906110b3565b90565b9050519061228e826101b4565b565b906020828203126122aa576122a791600001612281565b90565b61019e565b5190565b60209181520190565b6122db6122e46020936122e9936122d2816122af565b938480936122b3565b95869101610271565b610296565b0190565b90926123219061231761232e969461230d6080860197600087019061037c565b602085019061037c565b604083019061084b565b60608184039101526122bc565b90565b9061234361233e8361067b565b61054c565b918252565b606090565b3d60001461236a5761235e3d612331565b903d6000602084013e5b565b612372612348565b90612368565b9193843b61238f61238960006110cb565b9161031f565b1161239c575b5050505050565b6123d560006020946123e06123b86123b38a612269565b612275565b9463150b7a029296986123c9610193565b998a9889978896611ede565b8652600486016122ed565b03925af180916000926124a4575b50156000146124605750600161240a57505b3880808080612395565b61241261234d565b9061241c826122af565b61242f61242960006110cb565b9161031f565b1460001461245757612453906000918291633250574960e11b835260048301610389565b0390fd5b50805190602001fd5b612479612473630a85bd0160e11b6101a8565b916101a8565b036124845750612400565b6124a0906000918291633250574960e11b835260048301610389565b0390fd5b6124c691925060203d81116124cd575b6124be8183610523565b810190612290565b90386123ee565b503d6124b4565b6124f46124f9916124e3610e86565b5060026124ee611a94565b01611b10565b611603565b90565b90612510919061250a610fcd565b91612c0e565b565b601f602091010490565b1b90565b9190600861253c9102916125366000198461251c565b9261251c565b9181191691161790565b919061255c61255761256493611358565b611374565b908354612520565b9055565b61257a916125746114c7565b91612546565b565b5b818110612588575050565b806125966000600193612568565b0161257d565b9190601f81116125ac575b505050565b6125b86125dd93610d92565b9060206125c484612512565b830193106125e5575b6125d690612512565b019061257c565b3880806125a7565b91506125d6819290506125cd565b1c90565b9061260890600019906008026125f3565b191690565b81612617916125f7565b906002021790565b9061262981610264565b9067ffffffffffffffff82116126eb5761264d826126478554610d5f565b8561259c565b602090601f83116001146126825791809161267193600092612676575b505061260d565b90555b565b9091500151388061266a565b601f1983169161269185610d92565b9260005b8181106126d3575091600293918560019694106126b9575b50505002019055612674565b6126c9910151601f8416906125f7565b90553880806126ad565b91936020600181928787015181550195019201612695565b61050d565b906126fa9161261f565b565b61270b6127109291600061170e565b6126f0565b565b6127216127279193929361031f565b9261031f565b820391821161273257565b61183a565b600080fd5b600080fd5b9093929384831161276157841161275c576001820201920390565b61273c565b612737565b6bffffffffffffffffffffffff191690565b9061278661278d91836117f8565b9135612766565b906014811061279b575b5090565b6127b9906bffffffffffffffffffffffff199060140360080261251c565b1638612797565b60601c90565b6127d26127d7916127c0565b611097565b90565b6127e3906127c6565b90565b6127ee610e86565b506127fb600036906117f8565b612803612c3d565b61280c3361148c565b80612854575b6000146128475761283961283f91612844936128316000923692612712565b908092612741565b90612778565b6127da565b90565b5050612851612c51565b90565b50816128686128628361031f565b9161031f565b1015612812565b9091612879611a94565b938080156129a9575b6128a2575b50506128a09291600461289b929301611b10565b611bae565b565b6128ab84611ab8565b91806128c86128c26128bd6000610ee2565b610370565b91610370565b14158061298e575b80612974575b612954575061289b926128a09594926004926128f9575b50925081939450612887565b81849061293861293261292c7f8c5be1e5ebec7d5bd14f71427d1e84f3dd0314c0f7b2291e5b200ac8c7c3b925956114cc565b926114cc565b92611358565b92612941610193565b8061294b81610426565b0390a4386128ed565b61297090600091829163a9fbf51f60e01b835260048301610389565b0390fd5b506129896129838483906117c4565b156101f7565b6128d6565b50826129a261299c83610370565b91610370565b14156128d0565b50816129c66129c06129bb6000610ee2565b610370565b91610370565b1415612882565b9160206129ef9294936129e86040820196600083019061037c565b019061084b565b565b612a06612a0082848691612c5e565b156101f7565b612a0f57505050565b612a2a612a24612a1f6000610ee2565b610370565b91610370565b14600014612a5257612a4e826000918291637e27328960e01b835260048301610858565b0390fd5b612a6d600092839263177e802f60e01b8452600484016129cd565b0390fd5b612a82612a7c612cff565b156101f7565b612a8857565b6000631afcd79f60e31b815280612aa160048201610426565b0390fd5b90612ab791612ab2612a71565b612ab9565b565b6001612adb92612ad4612aca611a94565b93600085016126f0565b91016126f0565b565b90612ae791612aa5565b565b612afa90612af5612a71565b612afc565b565b80612b18612b12612b0d6000610ee2565b610370565b91610370565b14612b2857612b26906120d7565b565b612b4d612b356000610ee2565b6000918291631e4fbdf760e01b835260048301610389565b0390fd5b612b5a90612ae9565b565b612b64610e86565b50612b806000612b7a612b75611441565b612d1e565b01611603565b90565b90612b8d82612d21565b81612bb87fbc7cd75a20ee27fd9adebab32041f755214dbc6bffa90cc0225b39da2e5c2d3b916114cc565b90612bc1610193565b80612bcb81610426565b0390a2612bd7816122af565b612bea612be460006110cb565b9161031f565b11600014612bff57612bfb91612db1565b505b565b5050612c09612d79565b612bfd565b9091612c3b92612c1f838290612de1565b612c27611b50565b92612c326000610ee2565b90919293612378565b565b612c456114c7565b50612c4e612eab565b90565b612c59610e86565b503390565b9190612c68610cd7565b5080612c85612c7f612c7a6000610ee2565b610370565b91610370565b14159283612c94575b50505090565b8091929350612cab612ca584610370565b91610370565b14908115612ced575b50918215612cc7575b5050388080612c8e565b612ce5919250612cd9612cdf91611b28565b92610370565b91610370565b143880612cbd565b612cf9915082906117c4565b38612cb4565b612d07610cd7565b50612d1b6000612d15611d63565b0161100e565b90565b90565b803b612d36612d3060006110cb565b9161031f565b14612d5957612d57906000612d51612d4c611441565b612d1e565b01611bae565b565b612d75906000918291634c9c8ce360e01b835260048301610389565b0390fd5b34612d8d612d8760006110cb565b9161031f565b11612d9457565b600063b398979f60e01b815280612dad60048201610426565b0390fd5b600080612dde93612dc0612348565b508390602081019051915af490612dd561234d565b90919091612ec1565b90565b9081612dfe612df8612df36000610ee2565b610370565b91610370565b14612e6357612e189190612e126000610ee2565b91611bce565b612e33612e2d612e286000610ee2565b610370565b91610370565b03612e3a57565b612e5f612e476000610ee2565b60009182916339e3563760e11b835260048301610389565b0390fd5b612e88612e706000610ee2565b6000918291633250574960e11b835260048301610389565b0390fd5b90565b612ea3612e9e612ea892612e8c565b610ec3565b61031f565b90565b612eb36114c7565b50612ebe6014612e8f565b90565b90612ed590612ece612348565b50156101f7565b600014612ee25750612f49565b612eeb826122af565b612efe612ef860006110cb565b9161031f565b1480612f2d575b612f0d575090565b612f29906000918291639996b31560e01b835260048301610389565b0390fd5b50803b612f43612f3d60006110cb565b9161031f565b14612f05565b612f52816122af565b612f65612f5f60006110cb565b9161031f565b11600014612f7557805190602001fd5b600063d6bda27560e01b815280612f8e60048201610426565b0390fdfea2646970667358221220b06fcc663f0e44cb394e8f410774dbd2aa2ac0345030d971b803f9ec34cc3b2964736f6c634300081c0033",
  "linkReferences": {},
  "deployedLinkReferences": {}
}