{
  "_format": "hh-sol-artifact-1",
  "contractName": "MilestoneRelayer",
  "sourceName": "contracts/MilestoneRelayer.sol",
  "abi": [
    {
      "inputs": [
        {
          "internalType": "address",
          "name": "_mstToken",
          "type": "address"
        },
        {
          "internalType": "address",
          "name": "_milestoneTracker",
          "type": "address"
        },
        {
          "internalType": "address",
          "name": "_forwarder",
          "type": "address"
        },
        {
          "internalType": "address",
          "name": "_milestoneNFT",
          "type": "address"
        }
      ],
      "stateMutability": "nonpayable",
      "type": "constructor"
    },
    {
      "anonymous": false,
      "inputs": [
        {
          "indexed": false,
          "internalType": "uint256",
          "name": "tier1DiscountPercent",
          "type": "uint256"
        },
        {
          "indexed": false,
          "internalType": "uint256",
          "name": "tier2DiscountPercent",
          "type": "uint256"
        }
      ],
      "name": "DiscountsUpdated",
      "type": "event"
    },
    {
      "anonymous": false,
      "inputs": [
        {
          "indexed": false,
          "internalType": "uint256",
          "name": "addMilestoneFee",
          "type": "uint256"
        },
        {
          "indexed": false,
          "internalType": "uint256",
          "name": "addGroupMilestoneFee",
          "type": "uint256"
        },
        {
          "indexed": false,
          "internalType": "uint256",
          "name": "signMilestoneFee",
          "type": "uint256"
        },
        {
          "indexed": false,
          "internalType": "uint256",
          "name": "transferFee",
          "type": "uint256"
        }
      ],
      "name": "FeesUpdated",
      "type": "event"
    },
    {
      "anonymous": false,
      "inputs": [
        {
          "indexed": true,
          "internalType": "address",
          "name": "to",
          "type": "address"
        },
        {
          "indexed": false,
          "internalType": "uint256",
          "name": "amount",
          "type": "uint256"
        }
      ],
      "name": "FundsWithdrawn",
      "type": "event"
    },
    {
      "anonymous": false,
      "inputs": [
        {
          "indexed": true,
          "internalType": "address",
          "name": "user",
          "type": "address"
        },
        {
          "indexed": false,
          "internalType": "bytes4",
          "name": "functionSelector",
          "type": "bytes4"
        },
        {
          "indexed": false,
          "internalType": "uint256",
          "name": "feeCharged",
          "type": "uint256"
        },
        {
          "indexed": false,
          "internalType": "enum MSTToken.Tier",
          "name": "tier",
          "type": "uint8"
        }
      ],
      "name": "RelayedTransaction",
      "type": "event"
    },
    {
      "inputs": [],
      "name": "addGroupMilestoneFee",
      "outputs": [
        {
          "internalType": "uint256",
          "name": "",
          "type": "uint256"
        }
      ],
      "stateMutability": "view",
      "type": "function"
    },
    {
      "inputs": [],
      "name": "addMilestoneFee",
      "outputs": [
        {
          "internalType": "uint256",
          "name": "",
          "type": "uint256"
        }
      ],
      "stateMutability": "view",
      "type": "function"
    },
    {
      "inputs": [
        {
          "internalType": "bytes4",
          "name": "functionSelector",
          "type": "bytes4"
        },
        {
          "internalType": "address",
          "name": "user",
          "type": "address"
        }
      ],
      "name": "calculateFee",
      "outputs": [
        {
          "internalType": "uint256",
          "name": "",
          "type": "uint256"
        },
        {
          "internalType": "enum MSTToken.Tier",
          "name": "",
          "type": "uint8"
        }
      ],
      "stateMutability": "view",
      "type": "function"
    },
    {
      "inputs": [],
      "name": "declineMilestoneFee",
      "outputs": [
        {
          "internalType": "uint256",
          "name": "",
          "type": "uint256"
        }
      ],
      "stateMutability": "view",
      "type": "function"
    },
    {
      "inputs": [],
      "name": "forwarder",
      "outputs": [
        {
          "internalType": "contract ERC2771Forwarder",
          "name": "",
          "type": "address"
        }
      ],
      "stateMutability": "view",
      "type": "function"
    },
    {
      "inputs": [],
      "name": "getMilestoneFees",
      "outputs": [
        {
          "internalType": "uint256",
          "name": "",
          "type": "uint256"
        },
        {
          "internalType": "uint256",
          "name": "",
          "type": "uint256"
        },
        {
          "internalType": "uint256",
          "name": "",
          "type": "uint256"
        },
        {
          "internalType": "uint256",
          "name": "",
          "type": "uint256"
        },
        {
          "internalType": "uint256",
          "name": "",
          "type": "uint256"
        }
      ],
      "stateMutability": "view",
      "type": "function"
    },
    {
      "inputs": [],
      "name": "getTransferFee",
      "outputs": [
        {
          "internalType": "uint256",
          "name": "",
          "type": "uint256"
        }
      ],
      "stateMutability": "view",
      "type": "function"
    },
    {
      "inputs": [],
      "name": "milestoneNFT",
      "outputs": [
        {
          "internalType": "contract MilestoneNFT",
          "name": "",
          "type": "address"
        }
      ],
      "stateMutability": "view",
      "type": "function"
    },
    {
      "inputs": [],
      "name": "milestoneTracker",
      "outputs": [
        {
          "internalType": "contract MilestoneTracker",
          "name": "",
          "type": "address"
        }
      ],
      "stateMutability": "view",
      "type": "function"
    },
    {
      "inputs": [],
      "name": "mintNFTFee",
      "outputs": [
        {
          "internalType": "uint256",
          "name": "",
          "type": "uint256"
        }
      ],
      "stateMutability": "view",
      "type": "function"
    },
    {
      "inputs": [],
      "name": "mstToken",
      "outputs": [
        {
          "internalType": "contract MSTToken",
          "name": "",
          "type": "address"
        }
      ],
      "stateMutability": "view",
      "type": "function"
    },
    {
      "inputs": [],
      "name": "owner",
      "outputs": [
        {
          "internalType": "address",
          "name": "",
          "type": "address"
        }
      ],
      "stateMutability": "view",
      "type": "function"
    },
    {
      "inputs": [
        {
          "components": [
            {
              "internalType": "address",
              "name": "from",
              "type": "address"
            },
            {
              "internalType": "address",
              "name": "to",
              "type": "address"
            },
            {
              "internalType": "uint256",
              "name": "value",
              "type": "uint256"
            },
            {
              "internalType": "uint256",
              "name": "gas",
              "type": "uint256"
            },
            {
              "internalType": "uint48",
              "name": "deadline",
              "type": "uint48"
            },
            {
              "internalType": "bytes",
              "name": "data",
              "type": "bytes"
            },
            {
              "internalType": "bytes",
              "name": "signature",
              "type": "bytes"
            }
          ],
          "internalType": "struct ERC2771Forwarder.ForwardRequestData",
          "name": "request",
          "type": "tuple"
        }
      ],
      "name": "relayAddGroupMilestone",
      "outputs": [],
      "stateMutability": "nonpayable",
      "type": "function"
    },
    {
      "inputs": [
        {
          "components": [
            {
              "internalType": "address",
              "name": "from",
              "type": "address"
            },
            {
              "internalType": "address",
              "name": "to",
              "type": "address"
            },
            {
              "internalType": "uint256",
              "name": "value",
              "type": "uint256"
            },
            {
              "internalType": "uint256",
              "name": "gas",
              "type": "uint256"
            },
            {
              "internalType": "uint48",
              "name": "deadline",
              "type": "uint48"
            },
            {
              "internalType": "bytes",
              "name": "data",
              "type": "bytes"
            },
            {
              "internalType": "bytes",
              "name": "signature",
              "type": "bytes"
            }
          ],
          "internalType": "struct ERC2771Forwarder.ForwardRequestData",
          "name": "request",
          "type": "tuple"
        }
      ],
      "name": "relayAddMilestone",
      "outputs": [],
      "stateMutability": "nonpayable",
      "type": "function"
    },
    {
      "inputs": [
        {
          "components": [
            {
              "internalType": "address",
              "name": "from",
              "type": "address"
            },
            {
              "internalType": "address",
              "name": "to",
              "type": "address"
            },
            {
              "internalType": "uint256",
              "name": "value",
              "type": "uint256"
            },
            {
              "internalType": "uint256",
              "name": "gas",
              "type": "uint256"
            },
            {
              "internalType": "uint48",
              "name": "deadline",
              "type": "uint48"
            },
            {
              "internalType": "bytes",
              "name": "data",
              "type": "bytes"
            },
            {
              "internalType": "bytes",
              "name": "signature",
              "type": "bytes"
            }
          ],
          "internalType": "struct ERC2771Forwarder.ForwardRequestData",
          "name": "request",
          "type": "tuple"
        }
      ],
      "name": "relayApprove",
      "outputs": [],
      "stateMutability": "nonpayable",
      "type": "function"
    },
    {
      "inputs": [
        {
          "components": [
            {
              "internalType": "address",
              "name": "from",
              "type": "address"
            },
            {
              "internalType": "address",
              "name": "to",
              "type": "address"
            },
            {
              "internalType": "uint256",
              "name": "value",
              "type": "uint256"
            },
            {
              "internalType": "uint256",
              "name": "gas",
              "type": "uint256"
            },
            {
              "internalType": "uint48",
              "name": "deadline",
              "type": "uint48"
            },
            {
              "internalType": "bytes",
              "name": "data",
              "type": "bytes"
            },
            {
              "internalType": "bytes",
              "name": "signature",
              "type": "bytes"
            }
          ],
          "internalType": "struct ERC2771Forwarder.ForwardRequestData",
          "name": "request",
          "type": "tuple"
        }
      ],
      "name": "relayMintNFT",
      "outputs": [],
      "stateMutability": "nonpayable",
      "type": "function"
    },
    {
      "inputs": [
        {
          "components": [
            {
              "internalType": "address",
              "name": "from",
              "type": "address"
            },
            {
              "internalType": "address",
              "name": "to",
              "type": "address"
            },
            {
              "internalType": "uint256",
              "name": "value",
              "type": "uint256"
            },
            {
              "internalType": "uint256",
              "name": "gas",
              "type": "uint256"
            },
            {
              "internalType": "uint48",
              "name": "deadline",
              "type": "uint48"
            },
            {
              "internalType": "bytes",
              "name": "data",
              "type": "bytes"
            },
            {
              "internalType": "bytes",
              "name": "signature",
              "type": "bytes"
            }
          ],
          "internalType": "struct ERC2771Forwarder.ForwardRequestData",
          "name": "request",
          "type": "tuple"
        }
      ],
      "name": "relayRemoveMilestone",
      "outputs": [],
      "stateMutability": "nonpayable",
      "type": "function"
    },
    {
      "inputs": [
        {
          "components": [
            {
              "internalType": "address",
              "name": "from",
              "type": "address"
            },
            {
              "internalType": "address",
              "name": "to",
              "type": "address"
            },
            {
              "internalType": "uint256",
              "name": "value",
              "type": "uint256"
            },
            {
              "internalType": "uint256",
              "name": "gas",
              "type": "uint256"
            },
            {
              "internalType": "uint48",
              "name": "deadline",
              "type": "uint48"
            },
            {
              "internalType": "bytes",
              "name": "data",
              "type": "bytes"
            },
            {
              "internalType": "bytes",
              "name": "signature",
              "type": "bytes"
            }
          ],
          "internalType": "struct ERC2771Forwarder.ForwardRequestData",
          "name": "request",
          "type": "tuple"
        }
      ],
      "name": "relaySignMilestone",
      "outputs": [],
      "stateMutability": "nonpayable",
      "type": "function"
    },
    {
      "inputs": [
        {
          "components": [
            {
              "internalType": "address",
              "name": "from",
              "type": "address"
            },
            {
              "internalType": "address",
              "name": "to",
              "type": "address"
            },
            {
              "internalType": "uint256",
              "name": "value",
              "type": "uint256"
            },
            {
              "internalType": "uint256",
              "name": "gas",
              "type": "uint256"
            },
            {
              "internalType": "uint48",
              "name": "deadline",
              "type": "uint48"
            },
            {
              "internalType": "bytes",
              "name": "data",
              "type": "bytes"
            },
            {
              "internalType": "bytes",
              "name": "signature",
              "type": "bytes"
            }
          ],
          "internalType": "struct ERC2771Forwarder.ForwardRequestData",
          "name": "request",
          "type": "tuple"
        }
      ],
      "name": "relaySubscribe",
      "outputs": [],
      "stateMutability": "nonpayable",
      "type": "function"
    },
    {
      "inputs": [
        {
          "components": [
            {
              "internalType": "address",
              "name": "from",
              "type": "address"
            },
            {
              "internalType": "address",
              "name": "to",
              "type": "address"
            },
            {
              "internalType": "uint256",
              "name": "value",
              "type": "uint256"
            },
            {
              "internalType": "uint256",
              "name": "gas",
              "type": "uint256"
            },
            {
              "internalType": "uint48",
              "name": "deadline",
              "type": "uint48"
            },
            {
              "internalType": "bytes",
              "name": "data",
              "type": "bytes"
            },
            {
              "internalType": "bytes",
              "name": "signature",
              "type": "bytes"
            }
          ],
          "internalType": "struct ERC2771Forwarder.ForwardRequestData",
          "name": "request",
          "type": "tuple"
        }
      ],
      "name": "relayTransfer",
      "outputs": [],
      "stateMutability": "nonpayable",
      "type": "function"
    },
    {
      "inputs": [
        {
          "components": [
            {
              "internalType": "address",
              "name": "from",
              "type": "address"
            },
            {
              "internalType": "address",
              "name": "to",
              "type": "address"
            },
            {
              "internalType": "uint256",
              "name": "value",
              "type": "uint256"
            },
            {
              "internalType": "uint256",
              "name": "gas",
              "type": "uint256"
            },
            {
              "internalType": "uint48",
              "name": "deadline",
              "type": "uint48"
            },
            {
              "internalType": "bytes",
              "name": "data",
              "type": "bytes"
            },
            {
              "internalType": "bytes",
              "name": "signature",
              "type": "bytes"
            }
          ],
          "internalType": "struct ERC2771Forwarder.ForwardRequestData",
          "name": "request",
          "type": "tuple"
        }
      ],
      "name": "relayTransferNFT",
      "outputs": [],
      "stateMutability": "nonpayable",
      "type": "function"
    },
    {
      "inputs": [],
      "name": "signMilestoneFee",
      "outputs": [
        {
          "internalType": "uint256",
          "name": "",
          "type": "uint256"
        }
      ],
      "stateMutability": "view",
      "type": "function"
    },
    {
      "inputs": [],
      "name": "tier1DiscountPercent",
      "outputs": [
        {
          "internalType": "uint256",
          "name": "",
          "type": "uint256"
        }
      ],
      "stateMutability": "view",
      "type": "function"
    },
    {
      "inputs": [],
      "name": "tier2DiscountPercent",
      "outputs": [
        {
          "internalType": "uint256",
          "name": "",
          "type": "uint256"
        }
      ],
      "stateMutability": "view",
      "type": "function"
    },
    {
      "inputs": [],
      "name": "transferFee",
      "outputs": [
        {
          "internalType": "uint256",
          "name": "",
          "type": "uint256"
        }
      ],
      "stateMutability": "view",
      "type": "function"
    },
    {
      "inputs": [],
      "name": "transferNFTFee",
      "outputs": [
        {
          "internalType": "uint256",
          "name": "",
          "type": "uint256"
        }
      ],
      "stateMutability": "view",
      "type": "function"
    },
    {
      "inputs": [
        {
          "internalType": "uint256",
          "name": "_addGroupMilestoneFee",
          "type": "uint256"
        }
      ],
      "name": "updateAddGroupMilestoneFee",
      "outputs": [],
      "stateMutability": "nonpayable",
      "type": "function"
    },
    {
      "inputs": [
        {
          "internalType": "uint256",
          "name": "_addMilestoneFee",
          "type": "uint256"
        }
      ],
      "name": "updateAddMilestoneFee",
      "outputs": [],
      "stateMutability": "nonpayable",
      "type": "function"
    },
    {
      "inputs": [
        {
          "internalType": "uint256",
          "name": "_tier1DiscountPercent",
          "type": "uint256"
        },
        {
          "internalType": "uint256",
          "name": "_tier2DiscountPercent",
          "type": "uint256"
        }
      ],
      "name": "updateDiscounts",
      "outputs": [],
      "stateMutability": "nonpayable",
      "type": "function"
    },
    {
      "inputs": [
        {
          "internalType": "uint256",
          "name": "_mintNFTFee",
          "type": "uint256"
        },
        {
          "internalType": "uint256",
          "name": "_transferNFTFee",
          "type": "uint256"
        }
      ],
      "name": "updateNFTFees",
      "outputs": [],
      "stateMutability": "nonpayable",
      "type": "function"
    },
    {
      "inputs": [
        {
          "internalType": "uint256",
          "name": "_signMilestoneFee",
          "type": "uint256"
        }
      ],
      "name": "updateSignMilestoneFee",
      "outputs": [],
      "stateMutability": "nonpayable",
      "type": "function"
    },
    {
      "inputs": [
        {
          "internalType": "uint256",
          "name": "_transferFee",
          "type": "uint256"
        }
      ],
      "name": "updateTransferFee",
      "outputs": [],
      "stateMutability": "nonpayable",
      "type": "function"
    },
    {
      "inputs": [
        {
          "internalType": "address",
          "name": "to",
          "type": "address"
        },
        {
          "internalType": "uint256",
          "name": "amount",
          "type": "uint256"
        }
      ],
      "name": "withdrawMST",
      "outputs": [],
      "stateMutability": "nonpayable",
      "type": "function"
    }
  ],
  "bytecode": "0x6080604052346100335761001d610014610126565b929190916104b7565b610025610038565b6144c26105af82396144c290f35b61003e565b60405190565b600080fd5b601f801991011690565b634e487b7160e01b600052604160045260246000fd5b9061006d90610043565b810190811060018060401b0382111761008557604052565b61004d565b9061009d610096610038565b9283610063565b565b600080fd5b60018060a01b031690565b6100b8906100a4565b90565b6100c4816100af565b036100cb57565b600080fd5b905051906100dd826100bb565b565b608081830312610121576100f682600083016100d0565b9261011e61010784602085016100d0565b9361011581604086016100d0565b936060016100d0565b90565b61009f565b610144614a71803803806101398161008a565b9283398101906100df565b90919293565b60001b90565b9061015d6000199161014a565b9181191691161790565b90565b90565b90565b61018461017f61018992610167565b61016d565b61016a565b90565b90565b906101a461019f6101ab92610170565b61018c565b8254610150565b9055565b90565b6101c66101c16101cb926101af565b61016d565b61016a565b90565b906101e36101de6101ea926101b2565b61018c565b8254610150565b9055565b90565b61020561020061020a926101ee565b61016d565b61016a565b90565b9061022261021d610229926101f1565b61018c565b8254610150565b9055565b90565b61024461023f6102499261022d565b61016d565b61016a565b90565b9061026161025c61026892610230565b61018c565b8254610150565b9055565b90565b61028361027e6102889261026c565b61016d565b61016a565b90565b906102a061029b6102a79261026f565b61018c565b8254610150565b9055565b90565b6102c26102bd6102c7926102ab565b61016d565b61016a565b90565b906102df6102da6102e6926102ae565b61018c565b8254610150565b9055565b90565b6103016102fc610306926102ea565b61016d565b61016a565b90565b9061031e610319610325926102ed565b61018c565b8254610150565b9055565b61033d610338610342926100a4565b61016d565b6100a4565b90565b61034e90610329565b90565b61035a90610345565b90565b9061036e60018060a01b039161014a565b9181191691161790565b61038190610345565b90565b90565b9061039c6103976103a392610378565b610384565b825461035d565b9055565b6103b090610329565b90565b6103bc906103a7565b90565b6103c8906103a7565b90565b90565b906103e36103de6103ea926103bf565b6103cb565b825461035d565b9055565b6103f790610329565b90565b610403906103ee565b90565b61040f906103ee565b90565b90565b9061042a61042561043192610406565b610412565b825461035d565b9055565b61043e90610329565b90565b61044a90610435565b90565b61045690610435565b90565b90565b9061047161046c6104789261044d565b610459565b825461035d565b9055565b61048590610329565b90565b6104919061047c565b90565b90565b906104ac6104a76104b392610488565b610494565b825461035d565b9055565b61058e6105a19461058961058261059a969561057d610576610595976104e6674563918244f40000600461018f565b6104f9678ac7230489e8000060056101ce565b61050c670de0b6b3a7640000600661020d565b61051f670de0b6b3a7640000600761020d565b610532671bc16d674ec80000600861024c565b6105466804563918244f400000600961028b565b610559674563918244f40000600a61018f565b6105656032600b6102ca565b6105716050600c610309565b610351565b6000610387565b6103b3565b60016103ce565b6103fa565b6002610415565b610441565b600361045c565b6105ac33600d610497565b56fe60806040526004361015610013575b610e8e565b61001e60003561022d565b806309f92e00146102285780630b81c3b6146102235780630c67d8971461021e57806314fcc6de14610219578063167b77fb1461021457806318356a451461020f5780632e6c156d1461020a5780634154f76e146102055780635960073a146102005780635b62c647146101fb5780636056f911146101f6578063657de9e3146101f1578063750c3295146101ec5780637c8a9a64146101e75780637e1ebff0146101e25780637fecb0be146101dd578063807faf0a146101d857806384e53bc1146101d35780638577a6d5146101ce5780638797b98b146101c957806387f9627b146101c45780638da5cb5b146101bf5780638e04ddf4146101ba5780639a17d8c1146101b5578063a7ff0fb8146101b0578063acb2ad6f146101ab578063bbf7407e146101a6578063c189710d146101a1578063d1bd8e061461019c578063e00af63514610197578063efedc88a14610192578063f13c1fde1461018d5763f645d4f90361000e57610e59565b610db6565b610d82565b610d4d565b610d0a565b610cd7565b610ca2565b610bfd565b610bb8565b610b73565b610b40565b610b0b565b610a6e565b6109e9565b6108ea565b6108b5565b610810565b6107cd565b61079a565b610765565b610722565b6106ce565b610689565b610644565b610578565b610544565b6104e2565b610422565b6103ed565b6103aa565b610377565b610342565b61029c565b60e01c90565b60405190565b600080fd5b600080fd5b600080fd5b600080fd5b908160e091031261025b5790565b610248565b9060208282031261029157600082013567ffffffffffffffff811161028c57610289920161024d565b90565b610243565b61023e565b60000190565b346102ca576102b46102af366004610260565b611500565b6102bc610233565b806102c681610296565b0390f35b610239565b60009103126102da57565b61023e565b1c90565b90565b6102f69060086102fb93026102df565b6102e3565b90565b9061030991546102e6565b90565b610319600a6000906102fe565b90565b90565b6103289061031c565b9052565b91906103409060006020850194019061031f565b565b34610372576103523660046102cf565b61036e61035d61030c565b610365610233565b9182918261032c565b0390f35b610239565b346103a55761038f61038a366004610260565b611cef565b610397610233565b806103a181610296565b0390f35b610239565b346103d8576103c26103bd366004610260565b61210d565b6103ca610233565b806103d481610296565b0390f35b610239565b6103ea600c6000906102fe565b90565b3461041d576103fd3660046102cf565b6104196104086103dd565b610410610233565b9182918261032c565b0390f35b610239565b346104505761043a610435366004610260565b6125df565b610442610233565b8061044c81610296565b0390f35b610239565b60018060a01b031690565b61046990610455565b90565b61047581610460565b0361047c57565b600080fd5b9050359061048e8261046c565b565b6104998161031c565b036104a057565b600080fd5b905035906104b282610490565b565b91906040838203126104dd57806104d16104da9260008601610481565b936020016104a5565b90565b61023e565b34610511576104fb6104f53660046104b4565b90612ba8565b610503610233565b8061050d81610296565b0390f35b610239565b919060408382031261053f578061053361053c92600086016104a5565b936020016104a5565b90565b61023e565b346105735761055d610557366004610516565b90612c59565b610565610233565b8061056f81610296565b0390f35b610239565b346105a65761059061058b366004610260565b612ce9565b610598610233565b806105a281610296565b0390f35b610239565b60018060a01b031690565b6105c69060086105cb93026102df565b6105ab565b90565b906105d991546105b6565b90565b6105e76000806105ce565b90565b90565b6106016105fc61060692610455565b6105ea565b610455565b90565b610612906105ed565b90565b61061e90610609565b90565b61062a90610615565b9052565b919061064290600060208501940190610621565b565b34610674576106543660046102cf565b61067061065f6105dc565b610667610233565b9182918261062e565b0390f35b610239565b61068660046000906102fe565b90565b346106b9576106993660046102cf565b6106b56106a4610679565b6106ac610233565b9182918261032c565b0390f35b610239565b6106cb60056000906102fe565b90565b346106fe576106de3660046102cf565b6106fa6106e96106be565b6106f1610233565b9182918261032c565b0390f35b610239565b9060208282031261071d5761071a916000016104a5565b90565b61023e565b346107505761073a610735366004610703565b612fe6565b610742610233565b8061074c81610296565b0390f35b610239565b61076260066000906102fe565b90565b34610795576107753660046102cf565b610791610780610755565b610788610233565b9182918261032c565b0390f35b610239565b346107c8576107b26107ad366004610260565b612ff1565b6107ba610233565b806107c481610296565b0390f35b610239565b346107fb576107e56107e0366004610260565b6133ea565b6107ed610233565b806107f781610296565b0390f35b610239565b61080d60076000906102fe565b90565b34610840576108203660046102cf565b61083c61082b610800565b610833610233565b9182918261032c565b0390f35b610239565b60018060a01b031690565b61086090600861086593026102df565b610845565b90565b906108739154610850565b90565b6108836002600090610868565b90565b61088f90610609565b90565b61089b90610886565b9052565b91906108b390600060208501940190610892565b565b346108e5576108c53660046102cf565b6108e16108d0610876565b6108d8610233565b9182918261089f565b0390f35b610239565b34610918576109026108fd366004610703565b6137b5565b61090a610233565b8061091481610296565b0390f35b610239565b63ffffffff60e01b1690565b6109328161091d565b0361093957565b600080fd5b9050359061094b82610929565b565b9190604083820312610976578061096a610973926000860161093e565b93602001610481565b90565b61023e565b634e487b7160e01b600052602160045260246000fd5b6003111561099b57565b61097b565b906109aa82610991565b565b6109b5906109a0565b90565b6109c1906109ac565b9052565b9160206109e79294936109e06040820196600083019061031f565b01906109b8565b565b34610a1b57610a026109fc36600461094d565b90613891565b90610a17610a0e610233565b928392836109c5565b0390f35b610239565b90959492610a6c94610a5b610a6592610a51608096610a4760a088019c600089019061031f565b602087019061031f565b604085019061031f565b606083019061031f565b019061031f565b565b34610aa257610a7e3660046102cf565b610a9e610a89613b33565b91610a95959395610233565b95869586610a20565b0390f35b610239565b60018060a01b031690565b610ac2906008610ac793026102df565b610aa7565b90565b90610ad59154610ab2565b90565b610ae5600d600090610aca565b90565b610af190610460565b9052565b9190610b0990600060208501940190610ae8565b565b34610b3b57610b1b3660046102cf565b610b37610b26610ad8565b610b2e610233565b91829182610af5565b0390f35b610239565b34610b6e57610b58610b53366004610703565b613c3c565b610b60610233565b80610b6a81610296565b0390f35b610239565b34610ba357610b833660046102cf565b610b9f610b8e613c47565b610b96610233565b9182918261032c565b0390f35b610239565b610bb5600b6000906102fe565b90565b34610be857610bc83660046102cf565b610be4610bd3610ba8565b610bdb610233565b9182918261032c565b0390f35b610239565b610bfa60086000906102fe565b90565b34610c2d57610c0d3660046102cf565b610c29610c18610bed565b610c20610233565b9182918261032c565b0390f35b610239565b60018060a01b031690565b610c4d906008610c5293026102df565b610c32565b90565b90610c609154610c3d565b90565b610c706001600090610c55565b90565b610c7c90610609565b90565b610c8890610c73565b9052565b9190610ca090600060208501940190610c7f565b565b34610cd257610cb23660046102cf565b610cce610cbd610c63565b610cc5610233565b91829182610c8c565b0390f35b610239565b34610d0557610cef610cea366004610260565b613c5d565b610cf7610233565b80610d0181610296565b0390f35b610239565b34610d3857610d22610d1d366004610703565b614049565b610d2a610233565b80610d3481610296565b0390f35b610239565b610d4a60096000906102fe565b90565b34610d7d57610d5d3660046102cf565b610d79610d68610d3d565b610d70610233565b9182918261032c565b0390f35b610239565b34610db157610d9b610d95366004610516565b906141ce565b610da3610233565b80610dad81610296565b0390f35b610239565b34610de457610dce610dc9366004610260565b6141da565b610dd6610233565b80610de081610296565b0390f35b610239565b60018060a01b031690565b610e04906008610e0993026102df565b610de9565b90565b90610e179154610df4565b90565b610e276003600090610e0c565b90565b610e3390610609565b90565b610e3f90610e2a565b9052565b9190610e5790600060208501940190610e36565b565b34610e8957610e693660046102cf565b610e85610e74610e1a565b610e7c610233565b91829182610e43565b0390f35b610239565b600080fd5b35610e9d8161046c565b90565b60001c90565b610eb2610eb791610ea0565b610c32565b90565b610ec49054610ea6565b90565b60209181520190565b60007f546172676574206d757374206265204d696c6573746f6e65547261636b657200910152565b610f05601f602092610ec7565b610f0e81610ed0565b0190565b610f289060208101906000818303910152610ef8565b90565b15610f3257565b610f3a610233565b62461bcd60e51b815280610f5060048201610f12565b0390fd5b610f60610f6591610ea0565b6105ab565b90565b610f729054610f54565b90565b600080fd5b601f801991011690565b634e487b7160e01b600052604160045260246000fd5b90610fa490610f7a565b810190811067ffffffffffffffff821117610fbe57604052565b610f84565b60e01b90565b151590565b610fd781610fc9565b03610fde57565b600080fd5b90505190610ff082610fce565b565b9060208282031261100c5761100991600001610fe3565b90565b61023e565b611019610233565b3d6000823e3d90fd5b60207f737562736372697074696f6e2074696572000000000000000000000000000000917f5772697465206c696d697420657863656564656420666f72207573657227732060008201520152565b61107d6031604092610ec7565b61108681611022565b0190565b6110a09060208101906000818303910152611070565b90565b156110aa57565b6110b2610233565b62461bcd60e51b8152806110c86004820161108a565b0390fd5b63ffffffff1690565b6110e96110e46110ee926110cc565b610fc3565b61091d565b90565b6110fa90610609565b90565b9050519061110a82610490565b565b9060208282031261112657611123916000016110fd565b90565b61023e565b91602061114d92949361114660408201966000830190610ae8565b0190610ae8565b565b60007f496e73756666696369656e7420616c6c6f77616e636500000000000000000000910152565b6111846016602092610ec7565b61118d8161114f565b0190565b6111a79060208101906000818303910152611177565b90565b156111b157565b6111b9610233565b62461bcd60e51b8152806111cf60048201611191565b0390fd5b6040906111fd61120494969593966111f360608401986000850190610ae8565b6020830190610ae8565b019061031f565b565b60007f546f6b656e207472616e73666572206661696c65640000000000000000000000910152565b61123b6015602092610ec7565b61124481611206565b0190565b61125e906020810190600081830391015261122e565b90565b1561126857565b611270610233565b62461bcd60e51b81528061128660048201611248565b0390fd5b600091031261129557565b61023e565b6112a66112ab91610ea0565b610de9565b90565b6112b8905461129a565b90565b506112ca906020810190610481565b90565b6112d690610460565b9052565b506112e99060208101906104a5565b90565b6112f59061031c565b9052565b65ffffffffffff1690565b61130d816112f9565b0361131457565b600080fd5b9050359061132682611304565b565b50611337906020810190611319565b90565b611343906112f9565b9052565b600080fd5b600080fd5b600080fd5b903560016020038236030381121561139757016020813591019167ffffffffffffffff821161139257600182023603831361138d57565b61134c565b611347565b611351565b60209181520190565b90826000939282370152565b91906113cb816113c4816113d09561139c565b80956113a5565b610f7a565b0190565b6114989161148a61147f60e083016113fc6113f260008701876112bb565b60008601906112cd565b61141661140c60208701876112bb565b60208601906112cd565b61143061142660408701876112da565b60408601906112ec565b61144a61144060608701876112da565b60608601906112ec565b61146461145a6080870187611328565b608086019061133a565b61147160a0860186611356565b9085830360a08701526113b1565b9260c0810190611356565b9160c08185039101526113b1565b90565b6114b191602082019160008184039101526113d4565b90565b6114bd90610609565b90565b6114c99061091d565b9052565b6040906114f76114fe94969593966114ed606084019860008501906114c0565b602083019061031f565b01906109b8565b565b61153861150f60208301610e93565b61153261152c6115276115226001610eba565b610c73565b610460565b91610460565b14610f2b565b611584602061154f61154a6000610f68565b610615565b633239b71b9061157961156460008701610e93565b9261156d610233565b95869485938493610fc3565b835260048301610af5565b03915afa80156118f4576115a0916000916118c6575b506110a3565b6115c26115b063f6e9d0826110d5565b6115bc60008401610e93565b90613891565b919091906115d86115d36000610f68565b610615565b602063dd62ed3e916115ec60008501610e93565b906116116115f9306110f1565b9461161c611605610233565b96879586948594610fc3565b84526004840161112b565b03915afa80156118c15761164c91600091611893575b5061164561163f8661031c565b9161031c565b10156111aa565b61165e6116596000610f68565b610615565b60206323b872dd9161167260008501610e93565b9061169a6000611681306110f1565b956116a58a61168e610233565b98899788968795610fc3565b8552600485016111d3565b03925af1801561188e576116c191600091611860575b50611261565b6116d36116ce6000610f68565b610615565b63f6d4f3456116e460008401610e93565b823b1561185b576117159261170a600080946116fe610233565b96879586948593610fc3565b835260048301610af5565b03925af1908161182e575b5015600014611829576001611824575b5b61174361173e60036112ae565b610e2a565b9063df905caf81833b1561181f5761177b9361177060008094611764610233565b97889586948593610fc3565b83526004830161149b565b03925af190811561181a57611799926000926117ee575b5001610e93565b906117a763f6e9d0826110d5565b9290926117e96117d77fb90474fb708a23a0c165984f7e284f87dd7f1fda7732a7e146fa31ba332f672e946114b4565b946117e0610233565b938493846114cd565b0390a2565b61180d90833d8111611813575b6118058183610f9a565b81019061128a565b38611792565b503d6117fb565b611011565b610f75565b611730565b611731565b61184e9060003d8111611854575b6118468183610f9a565b81019061128a565b38611720565b503d61183c565b610f75565b611881915060203d8111611887575b6118798183610f9a565b810190610ff2565b386116bb565b503d61186f565b611011565b6118b4915060203d81116118ba575b6118ac8183610f9a565b81019061110c565b38611632565b503d6118a2565b611011565b6118e7915060203d81116118ed575b6118df8183610f9a565b810190610ff2565b3861159a565b503d6118d5565b611011565b61190561190a91610ea0565b610845565b90565b61191790546118f9565b90565b60007f546172676574206d757374206265204d696c6573746f6e654e46540000000000910152565b61194f601b602092610ec7565b6119588161191a565b0190565b6119729060208101906000818303910152611942565b90565b1561197c57565b611984610233565b62461bcd60e51b81528061199a6004820161195c565b0390fd5b6119a79061091d565b90565b600080fd5b600080fd5b600080fd5b9035906001602003813603038212156119fb570180359067ffffffffffffffff82116119f6576020019160018202360383136119f157565b6119b4565b6119af565b6119aa565b90565b611a17611a12611a1c92611a00565b6105ea565b61031c565b90565b90565b611a36611a31611a3b92611a1f565b6105ea565b61031c565b90565b600080fd5b600080fd5b90939293848311611a68578411611a63576001820201920390565b611a43565b611a3e565b5090565b1b90565b90611a83611a8a9183611a6d565b913561091d565b9060048110611a98575b5090565b611ab09063ffffffff60e01b90600403600802611a71565b1638611a94565b60207f6d00000000000000000000000000000000000000000000000000000000000000917f46756e6374696f6e206d75737420626520736166655472616e7366657246726f60008201520152565b611b126021604092610ec7565b611b1b81611ab7565b0190565b611b359060208101906000818303910152611b05565b90565b15611b3f57565b611b47610233565b62461bcd60e51b815280611b5d60048201611b1f565b0390fd5b611b6d611b7291610ea0565b6102e3565b90565b611b7f9054611b61565b90565b60031115611b8c57565b600080fd5b90505190611b9e82611b82565b565b608081830312611be257611bb78260008301611b91565b92611bdf611bc884602085016110fd565b93611bd681604086016110fd565b936060016110fd565b90565b61023e565b60007f496e73756666696369656e7420616c6c6f77616e636520666f72206665650000910152565b611c1c601e602092610ec7565b611c2581611be7565b0190565b611c3f9060208101906000818303910152611c0f565b90565b15611c4957565b611c51610233565b62461bcd60e51b815280611c6760048201611c29565b0390fd5b60007f466565207472616e73666572206661696c656400000000000000000000000000910152565b611ca06013602092610ec7565b611ca981611c6b565b0190565b611cc39060208101906000818303910152611c93565b90565b15611ccd57565b611cd5610233565b62461bcd60e51b815280611ceb60048201611cad565b0390fd5b611d27611cfe60208301610e93565b611d21611d1b611d16611d11600261190d565b610886565b610460565b91610460565b14611975565b611d507f42842e0eb38857a7775b4e7364b2775df7325074d088e7fb39590cd6281184ed61199e565b611da281611d9c611d96611d91611d8b611d6e8860a08101906119b9565b600090611d85611d7f600493611a03565b92611a22565b92611a48565b90611a75565b61091d565b9161091d565b14611b38565b611dac600a611b75565b91611df96080611dc4611dbf6000610f68565b610615565b63f046395a90611dee611dd960008701610e93565b92611de2610233565b95869485938493610fc3565b835260048301610af5565b03915afa90811561208457600091612055575b5090611e20611e1b6000610f68565b610615565b602063dd62ed3e91611e3460008501610e93565b90611e59611e41306110f1565b94611e64611e4d610233565b96879586948594610fc3565b84526004840161112b565b03915afa801561205057611e9491600091612022575b50611e8d611e878761031c565b9161031c565b1015611c42565b611ea6611ea16000610f68565b610615565b60206323b872dd91611eba60008501610e93565b90611ee26000611ec9306110f1565b95611eed8b611ed6610233565b98899788968795610fc3565b8552600485016111d3565b03925af1801561201d57611f0991600091611fef575b50611cc6565b611f1b611f1660036112ae565b610e2a565b9063df905caf81833b15611fea57611f5393611f4860008094611f3c610233565b97889586948593610fc3565b83526004830161149b565b03925af1908115611fe557611f7192600092611fb9575b5001610e93565b91929092611fb4611fa27fb90474fb708a23a0c165984f7e284f87dd7f1fda7732a7e146fa31ba332f672e946114b4565b94611fab610233565b938493846114cd565b0390a2565b611fd890833d8111611fde575b611fd08183610f9a565b81019061128a565b38611f6a565b503d611fc6565b611011565b610f75565b612010915060203d8111612016575b6120088183610f9a565b810190610ff2565b38611f03565b503d611ffe565b611011565b612043915060203d8111612049575b61203b8183610f9a565b81019061110c565b38611e7a565b503d612031565b611011565b612076915060803d811161207d575b61206e8183610f9a565b810190611ba0565b5050611e0c565b503d612064565b611011565b60007f46756e6374696f6e206d757374206265206d696e744e46540000000000000000910152565b6120be6018602092610ec7565b6120c781612089565b0190565b6120e190602081019060008183039101526120b1565b90565b156120eb57565b6120f3610233565b62461bcd60e51b815280612109600482016120cb565b0390fd5b61214561211c60208301610e93565b61213f61213961213461212f600261190d565b610886565b610460565b91610460565b14611975565b6121a361217f61217961215c8460a08101906119b9565b60009061217361216d600493611a03565b92611a22565b92611a48565b90611a75565b61219d61219761219263eacabe146110d5565b61091d565b9161091d565b146120e4565b6121ad6009611b75565b906121fa60806121c56121c06000610f68565b610615565b63f046395a906121ef6121da60008701610e93565b926121e3610233565b95869485938493610fc3565b835260048301610af5565b03915afa90811561249257600091612463575b509061222161221c6000610f68565b610615565b602063dd62ed3e9161223560008501610e93565b9061225a612242306110f1565b9461226561224e610233565b96879586948594610fc3565b84526004840161112b565b03915afa801561245e5761229591600091612430575b5061228e6122888661031c565b9161031c565b1015611c42565b6122a76122a26000610f68565b610615565b60206323b872dd916122bb60008501610e93565b906122e360006122ca306110f1565b956122ee8a6122d7610233565b98899788968795610fc3565b8552600485016111d3565b03925af1801561242b5761230a916000916123fd575b50611cc6565b61231c61231760036112ae565b610e2a565b9063df905caf81833b156123f857612354936123496000809461233d610233565b97889586948593610fc3565b83526004830161149b565b03925af19081156123f357612372926000926123c7575b5001610e93565b9061238063eacabe146110d5565b9290926123c26123b07fb90474fb708a23a0c165984f7e284f87dd7f1fda7732a7e146fa31ba332f672e946114b4565b946123b9610233565b938493846114cd565b0390a2565b6123e690833d81116123ec575b6123de8183610f9a565b81019061128a565b3861236b565b503d6123d4565b611011565b610f75565b61241e915060203d8111612424575b6124168183610f9a565b810190610ff2565b38612304565b503d61240c565b611011565b612451915060203d8111612457575b6124498183610f9a565b81019061110c565b3861227b565b503d61243f565b611011565b612484915060803d811161248b575b61247c8183610f9a565b810190611ba0565b505061220d565b503d612472565b611011565b60007f546172676574206d757374206265204d5354546f6b656e000000000000000000910152565b6124cc6017602092610ec7565b6124d581612497565b0190565b6124ef90602081019060008183039101526124bf565b90565b156124f957565b612501610233565b62461bcd60e51b815280612517600482016124d9565b0390fd5b60007f46756e6374696f6e206d75737420626520737562736372696265000000000000910152565b612550601a602092610ec7565b6125598161251b565b0190565b6125739060208101906000818303910152612543565b90565b1561257d57565b612585610233565b62461bcd60e51b81528061259b6004820161255d565b0390fd5b6125a890611a03565b9052565b6040906125d66125dd94969593966125cc606084019860008501906114c0565b602083019061259f565b01906109b8565b565b6126176125ee60208301610e93565b61261161260b6126066126016000610f68565b610615565b610460565b91610460565b146124f2565b61267561265161264b61262e8460a08101906119b9565b60009061264561263f600493611a03565b92611a22565b92611a48565b90611a75565b61266f6126696126646349c7e6396110d5565b61091d565b9161091d565b14612576565b61268761268260036112ae565b610e2a565b63df905caf82823b156127f7576126be926126b3600080946126a7610233565b96879586948593610fc3565b83526004830161149b565b03925af180156127f2576127c5575b5061271a60806126e56126e06000610f68565b610615565b63f046395a9061270f6126fa60008701610e93565b92612703610233565b95869485938493610fc3565b835260048301610af5565b03915afa9081156127c05761273b916000918291612791575b509201610e93565b6127486349c7e6396110d5565b916000909261278c61277a7fb90474fb708a23a0c165984f7e284f87dd7f1fda7732a7e146fa31ba332f672e946114b4565b94612783610233565b938493846125ac565b0390a2565b6127b2915060803d81116127b9575b6127aa8183610f9a565b810190611ba0565b5050612733565b503d6127a0565b611011565b6127e59060003d81116127eb575b6127dd8183610f9a565b81019061128a565b386126cd565b503d6127d3565b611011565b610f75565b61280861280d91610ea0565b610aa7565b90565b61281a90546127fc565b90565b60207f6e00000000000000000000000000000000000000000000000000000000000000917f4f6e6c79206f776e65722063616e2063616c6c20746869732066756e6374696f60008201520152565b6128786021604092610ec7565b6128818161281d565b0190565b61289b906020810190600081830391015261286b565b90565b156128a557565b6128ad610233565b62461bcd60e51b8152806128c360048201612885565b0390fd5b906128f6916128f1336128eb6128e56128e0600d612810565b610460565b91610460565b1461289e565b612a24565b565b60007f496e73756666696369656e742062616c616e6365000000000000000000000000910152565b61292d6014602092610ec7565b612936816128f8565b0190565b6129509060208101906000818303910152612920565b90565b1561295a57565b612962610233565b62461bcd60e51b8152806129786004820161293a565b0390fd5b91602061299e92949361299760408201966000830190610ae8565b019061031f565b565b60007f5472616e73666572206661696c65640000000000000000000000000000000000910152565b6129d5600f602092610ec7565b6129de816129a0565b0190565b6129f890602081019060008183039101526129c8565b90565b15612a0257565b612a0a610233565b62461bcd60e51b815280612a20600482016129e2565b0390fd5b612a6d6020612a3b612a366000610f68565b610615565b6370a0823190612a62612a4d306110f1565b92612a56610233565b95869485938493610fc3565b835260048301610af5565b03915afa8015612ba357612a9d91600091612b75575b50612a96612a908561031c565b9161031c565b1015612953565b612aaf612aaa6000610f68565b610615565b602063a9059cbb918390612ad760008795612ae2612acb610233565b97889687958694610fc3565b84526004840161297c565b03925af18015612b7057612afe91600091612b42575b506129fb565b612b3d612b2b7feaff4b37086828766ad3268786972c0cd24259d4c87a80f9d3963a3c3d999b0d926114b4565b92612b34610233565b9182918261032c565b0390a2565b612b63915060203d8111612b69575b612b5b8183610f9a565b810190610ff2565b38612af8565b503d612b51565b611011565b612b96915060203d8111612b9c575b612b8e8183610f9a565b81019061110c565b38612a83565b503d612b84565b611011565b90612bb2916128c7565b565b90612be391612bde33612bd8612bd2612bcd600d612810565b610460565b91610460565b1461289e565b612c41565b565b60001b90565b90612bf860001991612be5565b9181191691161790565b612c16612c11612c1b9261031c565b6105ea565b61031c565b90565b90565b90612c36612c31612c3d92612c02565b612c1e565b8254612beb565b9055565b90612c50612c57926009612c21565b600a612c21565b565b90612c6391612bb4565b565b60007f46756e6374696f6e206d757374206265207065726d6974000000000000000000910152565b612c9a6017602092610ec7565b612ca381612c65565b0190565b612cbd9060208101906000818303910152612c8d565b90565b15612cc757565b612ccf610233565b62461bcd60e51b815280612ce560048201612ca7565b0390fd5b612d21612cf860208301610e93565b612d1b612d15612d10612d0b6000610f68565b610615565b610460565b91610460565b146124f2565b612d7f612d5b612d55612d388460a08101906119b9565b600090612d4f612d49600493611a03565b92611a22565b92611a48565b90611a75565b612d79612d73612d6e63d505accf6110d5565b61091d565b9161091d565b14612cc0565b612dcb6080612d96612d916000610f68565b610615565b63f046395a90612dc0612dab60008701610e93565b92612db4610233565b95869485938493610fc3565b835260048301610af5565b03915afa908115612f0357600091612ed4575b5090612df2612ded60036112ae565b610e2a565b9063df905caf81833b15612ecf57612e2a93612e1f60008094612e13610233565b97889586948593610fc3565b83526004830161149b565b03925af1908115612eca57612e4892600092612e9e575b5001610e93565b612e5563d505accf6110d5565b9160009092612e99612e877fb90474fb708a23a0c165984f7e284f87dd7f1fda7732a7e146fa31ba332f672e946114b4565b94612e90610233565b938493846125ac565b0390a2565b612ebd90833d8111612ec3575b612eb58183610f9a565b81019061128a565b38612e41565b503d612eab565b611011565b610f75565b612ef5915060803d8111612efc575b612eed8183610f9a565b810190611ba0565b5050612dde565b503d612ee3565b611011565b612f3690612f3133612f2b612f25612f20600d612810565b610460565b91610460565b1461289e565b612f77565b565b612f6e612f7594612f64606094989795612f5a608086019a600087019061031f565b602085019061031f565b604083019061031f565b019061031f565b565b612f82906004612c21565b612f8c6004611b75565b612f966005611b75565b612fa06006611b75565b91612fe1612fae6008611b75565b7f16e6f67290546b8dd0e587f4b7f67d4f61932ae17ffd8c60d3509dbc05c175fe94612fd8610233565b94859485612f38565b0390a1565b612fef90612f08565b565b61302961300060208301610e93565b61302361301d6130186130136001610eba565b610c73565b610460565b91610460565b14610f2b565b613075602061304061303b6000610f68565b610615565b633239b71b9061306a61305560008701610e93565b9261305e610233565b95869485938493610fc3565b835260048301610af5565b03915afa80156133e557613091916000916133b7575b506110a3565b6130b36130a1635940aa5b6110d5565b6130ad60008401610e93565b90613891565b919091906130c96130c46000610f68565b610615565b602063dd62ed3e916130dd60008501610e93565b906131026130ea306110f1565b9461310d6130f6610233565b96879586948594610fc3565b84526004840161112b565b03915afa80156133b25761313d91600091613384575b506131366131308661031c565b9161031c565b10156111aa565b61314f61314a6000610f68565b610615565b60206323b872dd9161316360008501610e93565b9061318b6000613172306110f1565b956131968a61317f610233565b98899788968795610fc3565b8552600485016111d3565b03925af1801561337f576131b291600091613351575b50611261565b6131c46131bf6000610f68565b610615565b63f6d4f3456131d560008401610e93565b823b1561334c57613206926131fb600080946131ef610233565b96879586948593610fc3565b835260048301610af5565b03925af1908161331f575b501560001461331a576001613315575b5b61323461322f60036112ae565b610e2a565b9063df905caf81833b156133105761326c9361326160008094613255610233565b97889586948593610fc3565b83526004830161149b565b03925af190811561330b5761328a926000926132df575b5001610e93565b90613298635940aa5b6110d5565b9290926132da6132c87fb90474fb708a23a0c165984f7e284f87dd7f1fda7732a7e146fa31ba332f672e946114b4565b946132d1610233565b938493846114cd565b0390a2565b6132fe90833d8111613304575b6132f68183610f9a565b81019061128a565b38613283565b503d6132ec565b611011565b610f75565b613221565b613222565b61333f9060003d8111613345575b6133378183610f9a565b81019061128a565b38613211565b503d61332d565b610f75565b613372915060203d8111613378575b61336a8183610f9a565b810190610ff2565b386131ac565b503d613360565b611011565b6133a5915060203d81116133ab575b61339d8183610f9a565b81019061110c565b38613123565b503d613393565b611011565b6133d8915060203d81116133de575b6133d08183610f9a565b810190610ff2565b3861308b565b503d6133c6565b611011565b6134226133f960208301610e93565b61341c61341661341161340c6000610f68565b610615565b610460565b91610460565b146124f2565b61342c6008611b75565b90613479608061344461343f6000610f68565b610615565b63f046395a9061346e61345960008701610e93565b92613462610233565b95869485938493610fc3565b835260048301610af5565b03915afa908115613711576000916136e2575b50906134a061349b6000610f68565b610615565b602063dd62ed3e916134b460008501610e93565b906134d96134c1306110f1565b946134e46134cd610233565b96879586948594610fc3565b84526004840161112b565b03915afa80156136dd57613514916000916136af575b5061350d6135078661031c565b9161031c565b1015611c42565b6135266135216000610f68565b610615565b60206323b872dd9161353a60008501610e93565b906135626000613549306110f1565b9561356d8a613556610233565b98899788968795610fc3565b8552600485016111d3565b03925af180156136aa576135899160009161367c575b50611cc6565b61359b61359660036112ae565b610e2a565b9063df905caf81833b15613677576135d3936135c8600080946135bc610233565b97889586948593610fc3565b83526004830161149b565b03925af1908115613672576135f192600092613646575b5001610e93565b906135ff63a9059cbb6110d5565b92909261364161362f7fb90474fb708a23a0c165984f7e284f87dd7f1fda7732a7e146fa31ba332f672e946114b4565b94613638610233565b938493846114cd565b0390a2565b61366590833d811161366b575b61365d8183610f9a565b81019061128a565b386135ea565b503d613653565b611011565b610f75565b61369d915060203d81116136a3575b6136958183610f9a565b810190610ff2565b38613583565b503d61368b565b611011565b6136d0915060203d81116136d6575b6136c88183610f9a565b81019061110c565b386134fa565b503d6136be565b611011565b613703915060803d811161370a575b6136fb8183610f9a565b810190611ba0565b505061348c565b503d6136f1565b611011565b6137449061373f3361373961373361372e600d612810565b610460565b91610460565b1461289e565b613746565b565b613751906008612c21565b61375b6004611b75565b6137656005611b75565b61376f6006611b75565b916137b061377d6008611b75565b7f16e6f67290546b8dd0e587f4b7f67d4f61932ae17ffd8c60d3509dbc05c175fe946137a7610233565b94859485612f38565b0390a1565b6137be90613716565b565b600090565b600090565b90565b6137e16137dc6137e6926137ca565b6105ea565b61031c565b90565b634e487b7160e01b600052601160045260246000fd5b61380e6138149193929361031c565b9261031c565b820391821161381f57565b6137e9565b6138336138399193929361031c565b9261031c565b9161384583820261031c565b92818404149015171561385457565b6137e9565b634e487b7160e01b600052601260045260246000fd5b61387b6138819161031c565b9161031c565b90811561388c570490565b613859565b919061389b6137c0565b506138a46137c5565b506138af6000611a03565b6138bc63f6e9d0826110d5565b936138ca635940aa5b6110d5565b906138d86355b18fe46110d5565b6138e5635c971fa96110d5565b926000976138fc6138f6859261091d565b9161091d565b14600014613a7f57505050505061395360806139186004611b75565b925b61392c6139276000610f68565b610615565b61394863f046395a61393c610233565b95869485938493610fc3565b835260048301610af5565b03915afa908115613a7a57600091613a4b575b50928361397c61397660016109a0565b916109a0565b146000146139d75761398e9015610fc9565b613998575b5b9190565b6139c26139d2916139bc60646139b76139b1600b611b75565b916137cd565b6137ff565b90613824565b6139cc60646137cd565b9061386f565b613993565b836139eb6139e560026109a0565b916109a0565b146139f7575b50613994565b613a019015610fc9565b613a0c575b386139f1565b613a36613a4691613a306064613a2b613a25600c611b75565b916137cd565b6137ff565b90613824565b613a4060646137cd565b9061386f565b613a06565b613a6c915060803d8111613a73575b613a648183610f9a565b810190611ba0565b5050613966565b503d613a5a565b611011565b613a92613a8c849261091d565b9161091d565b14600014613ab457505050506139536080613aad6005611b75565b925b61391a565b613aca613ac4839896989261091d565b9161091d565b14600014613aee5750505050613ae06006611b75565b61395360806001945b613aaf565b613aff613b0591969394969261091d565b9161091d565b14613b16575b608061395391613ae9565b925050613b236007611b75565b6139536080600194915050613b0b565b613b3b6137c0565b50613b446137c0565b50613b4d6137c0565b50613b566137c0565b50613b5f6137c0565b50613b6a6004611b75565b613b746005611b75565b91613b7f6006611b75565b91613b8a600b611b75565b91613b95600c611b75565b919493929190565b613bcb90613bc633613bc0613bba613bb5600d612810565b610460565b91610460565b1461289e565b613bcd565b565b613bd8906005612c21565b613be26004611b75565b613bec6005611b75565b613bf66006611b75565b91613c37613c046008611b75565b7f16e6f67290546b8dd0e587f4b7f67d4f61932ae17ffd8c60d3509dbc05c175fe94613c2e610233565b94859485612f38565b0390a1565b613c4590613b9d565b565b613c4f6137c0565b50613c5a6008611b75565b90565b613c95613c6c60208301610e93565b613c8f613c89613c84613c7f6001610eba565b610c73565b610460565b91610460565b14610f2b565b613ce16020613cac613ca76000610f68565b610615565b633239b71b90613cd6613cc160008701610e93565b92613cca610233565b95869485938493610fc3565b835260048301610af5565b03915afa8015613fa557613cfd91600091613f77575b506110a3565b613d1f613d0d6355b18fe46110d5565b613d1960008401610e93565b90613891565b91909190613d35613d306000610f68565b610615565b602063dd62ed3e91613d4960008501610e93565b90613d6e613d56306110f1565b94613d79613d62610233565b96879586948594610fc3565b84526004840161112b565b03915afa8015613f7257613da991600091613f44575b50613da2613d9c8661031c565b9161031c565b10156111aa565b613dbb613db66000610f68565b610615565b60206323b872dd91613dcf60008501610e93565b90613df76000613dde306110f1565b95613e028a613deb610233565b98899788968795610fc3565b8552600485016111d3565b03925af18015613f3f57613e1e91600091613f11575b50611261565b613e30613e2b60036112ae565b610e2a565b9063df905caf81833b15613f0c57613e6893613e5d60008094613e51610233565b97889586948593610fc3565b83526004830161149b565b03925af1908115613f0757613e8692600092613edb575b5001610e93565b90613e946355b18fe46110d5565b929092613ed6613ec47fb90474fb708a23a0c165984f7e284f87dd7f1fda7732a7e146fa31ba332f672e946114b4565b94613ecd610233565b938493846114cd565b0390a2565b613efa90833d8111613f00575b613ef28183610f9a565b81019061128a565b38613e7f565b503d613ee8565b611011565b610f75565b613f32915060203d8111613f38575b613f2a8183610f9a565b810190610ff2565b38613e18565b503d613f20565b611011565b613f65915060203d8111613f6b575b613f5d8183610f9a565b81019061110c565b38613d8f565b503d613f53565b611011565b613f98915060203d8111613f9e575b613f908183610f9a565b810190610ff2565b38613cf7565b503d613f86565b611011565b613fd890613fd333613fcd613fc7613fc2600d612810565b610460565b91610460565b1461289e565b613fda565b565b613fe5906006612c21565b613fef6004611b75565b613ff96005611b75565b6140036006611b75565b916140446140116008611b75565b7f16e6f67290546b8dd0e587f4b7f67d4f61932ae17ffd8c60d3509dbc05c175fe9461403b610233565b94859485612f38565b0390a1565b61405290613faa565b565b906140839161407e3361407861407261406d600d612810565b610460565b91610460565b1461289e565b61412d565b565b60007f446973636f756e742063616e6e6f742065786365656420313030250000000000910152565b6140ba601b602092610ec7565b6140c381614085565b0190565b6140dd90602081019060008183039101526140ad565b90565b156140e757565b6140ef610233565b62461bcd60e51b815280614105600482016140c7565b0390fd5b91602061412b9294936141246040820196600083019061031f565b019061031f565b565b9061417861417f926141538161414c61414660646137cd565b9161031c565b11156140e0565b6141718361416a61416460646137cd565b9161031c565b11156140e0565b600b612c21565b600c612c21565b614189600b611b75565b614193600c611b75565b7f321493d828817b076c57bd2164363fce65fa101730e2c94c61c3eba7ddfce6e9916141c96141c0610233565b92839283614109565b0390a1565b906141d891614054565b565b6142126141e960208301610e93565b61420c6142066142016141fc6001610eba565b610c73565b610460565b91610460565b14610f2b565b614234614222635c971fa96110d5565b61422e60008401610e93565b90613891565b9190919061424a6142456000610f68565b610615565b602063dd62ed3e9161425e60008501610e93565b9061428361426b306110f1565b9461428e614277610233565b96879586948594610fc3565b84526004840161112b565b03915afa8015614487576142be91600091614459575b506142b76142b18661031c565b9161031c565b10156111aa565b6142d06142cb6000610f68565b610615565b60206323b872dd916142e460008501610e93565b9061430c60006142f3306110f1565b956143178a614300610233565b98899788968795610fc3565b8552600485016111d3565b03925af180156144545761433391600091614426575b50611261565b61434561434060036112ae565b610e2a565b9063df905caf81833b156144215761437d9361437260008094614366610233565b97889586948593610fc3565b83526004830161149b565b03925af190811561441c5761439b926000926143f0575b5001610e93565b906143a9635c971fa96110d5565b9290926143eb6143d97fb90474fb708a23a0c165984f7e284f87dd7f1fda7732a7e146fa31ba332f672e946114b4565b946143e2610233565b938493846114cd565b0390a2565b61440f90833d8111614415575b6144078183610f9a565b81019061128a565b38614394565b503d6143fd565b611011565b610f75565b614447915060203d811161444d575b61443f8183610f9a565b810190610ff2565b3861432d565b503d614435565b611011565b61447a915060203d8111614480575b6144728183610f9a565b81019061110c565b386142a4565b503d614468565b61101156fea26469706673582212209adf6571f158c52cd4e84d8bbbf19fce8c2a97732487679d65c5f0ce61e56fd564736f6c634300081c0033",
  "linkReferences": {},
  "deployedLinkReferences": {}
}