{
  "_format": "hh-sol-artifact-1",
  "contractName": "MilestoneTracker",
  "sourceName": "contracts/MilestoneTracker.sol",
  "abi": [
    {
      "inputs": [
        {
          "internalType": "address",
          "name": "forwarder",
          "type": "address"
        }
      ],
      "stateMutability": "nonpayable",
      "type": "constructor"
    },
    {
      "inputs": [
        {
          "internalType": "address",
          "name": "target",
          "type": "address"
        }
      ],
      "name": "AddressEmptyCode",
      "type": "error"
    },
    {
      "inputs": [
        {
          "internalType": "address",
          "name": "implementation",
          "type": "address"
        }
      ],
      "name": "ERC1967InvalidImplementation",
      "type": "error"
    },
    {
      "inputs": [],
      "name": "ERC1967NonPayable",
      "type": "error"
    },
    {
      "inputs": [
        {
          "internalType": "uint256",
          "name": "currentTime",
          "type": "uint256"
        },
        {
          "internalType": "uint256",
          "name": "expiryTime",
          "type": "uint256"
        }
      ],
      "name": "ExpiryNotReached",
      "type": "error"
    },
    {
      "inputs": [],
      "name": "FailedCall",
      "type": "error"
    },
    {
      "inputs": [],
      "name": "InvalidInitialization",
      "type": "error"
    },
    {
      "inputs": [
        {
          "internalType": "address",
          "name": "owner",
          "type": "address"
        },
        {
          "internalType": "string",
          "name": "id",
          "type": "string"
        }
      ],
      "name": "MilestoneAlreadyExists",
      "type": "error"
    },
    {
      "inputs": [
        {
          "internalType": "address",
          "name": "owner",
          "type": "address"
        },
        {
          "internalType": "string",
          "name": "id",
          "type": "string"
        }
      ],
      "name": "MilestoneDoesNotExist",
      "type": "error"
    },
    {
      "inputs": [
        {
          "internalType": "address",
          "name": "owner",
          "type": "address"
        },
        {
          "internalType": "string",
          "name": "id",
          "type": "string"
        }
      ],
      "name": "MilestoneNotPending",
      "type": "error"
    },
    {
      "inputs": [
        {
          "internalType": "address",
          "name": "caller",
          "type": "address"
        },
        {
          "internalType": "address",
          "name": "user",
          "type": "address"
        },
        {
          "internalType": "address",
          "name": "admin",
          "type": "address"
        }
      ],
      "name": "NotAdminOrOwner",
      "type": "error"
    },
    {
      "inputs": [],
      "name": "NotInitializing",
      "type": "error"
    },
    {
      "inputs": [
        {
          "internalType": "address",
          "name": "signer",
          "type": "address"
        },
        {
          "internalType": "address",
          "name": "owner",
          "type": "address"
        },
        {
          "internalType": "string",
          "name": "id",
          "type": "string"
        }
      ],
      "name": "NotParticipant",
      "type": "error"
    },
    {
      "inputs": [
        {
          "internalType": "address",
          "name": "owner",
          "type": "address"
        }
      ],
      "name": "OwnableInvalidOwner",
      "type": "error"
    },
    {
      "inputs": [
        {
          "internalType": "address",
          "name": "account",
          "type": "address"
        }
      ],
      "name": "OwnableUnauthorizedAccount",
      "type": "error"
    },
    {
      "inputs": [],
      "name": "UUPSUnauthorizedCallContext",
      "type": "error"
    },
    {
      "inputs": [
        {
          "internalType": "bytes32",
          "name": "slot",
          "type": "bytes32"
        }
      ],
      "name": "UUPSUnsupportedProxiableUUID",
      "type": "error"
    },
    {
      "inputs": [
        {
          "internalType": "address",
          "name": "caller",
          "type": "address"
        }
      ],
      "name": "UnauthorizedCaller",
      "type": "error"
    },
    {
      "anonymous": false,
      "inputs": [
        {
          "indexed": true,
          "internalType": "address",
          "name": "owner",
          "type": "address"
        },
        {
          "indexed": true,
          "internalType": "string",
          "name": "id",
          "type": "string"
        },
        {
          "indexed": false,
          "internalType": "string",
          "name": "description",
          "type": "string"
        },
        {
          "indexed": false,
          "internalType": "uint256",
          "name": "timestamp",
          "type": "uint256"
        },
        {
          "indexed": false,
          "internalType": "uint256",
          "name": "participantCount",
          "type": "uint256"
        }
      ],
      "name": "GroupMilestoneAdded",
      "type": "event"
    },
    {
      "anonymous": false,
      "inputs": [
        {
          "indexed": false,
          "internalType": "uint64",
          "name": "version",
          "type": "uint64"
        }
      ],
      "name": "Initialized",
      "type": "event"
    },
    {
      "anonymous": false,
      "inputs": [
        {
          "indexed": true,
          "internalType": "address",
          "name": "owner",
          "type": "address"
        },
        {
          "indexed": true,
          "internalType": "string",
          "name": "id",
          "type": "string"
        },
        {
          "indexed": false,
          "internalType": "string",
          "name": "description",
          "type": "string"
        },
        {
          "indexed": false,
          "internalType": "uint256",
          "name": "timestamp",
          "type": "uint256"
        }
      ],
      "name": "MilestoneAdded",
      "type": "event"
    },
    {
      "anonymous": false,
      "inputs": [
        {
          "indexed": true,
          "internalType": "address",
          "name": "owner",
          "type": "address"
        },
        {
          "indexed": true,
          "internalType": "string",
          "name": "id",
          "type": "string"
        }
      ],
      "name": "MilestoneFinalized",
      "type": "event"
    },
    {
      "anonymous": false,
      "inputs": [
        {
          "indexed": true,
          "internalType": "address",
          "name": "owner",
          "type": "address"
        },
        {
          "indexed": true,
          "internalType": "string",
          "name": "id",
          "type": "string"
        }
      ],
      "name": "MilestoneRemoved",
      "type": "event"
    },
    {
      "anonymous": false,
      "inputs": [
        {
          "indexed": true,
          "internalType": "address",
          "name": "owner",
          "type": "address"
        },
        {
          "indexed": true,
          "internalType": "address",
          "name": "signer",
          "type": "address"
        },
        {
          "indexed": true,
          "internalType": "string",
          "name": "id",
          "type": "string"
        },
        {
          "indexed": false,
          "internalType": "uint256",
          "name": "currentSignatureCount",
          "type": "uint256"
        },
        {
          "indexed": false,
          "internalType": "uint256",
          "name": "requiredSignatures",
          "type": "uint256"
        }
      ],
      "name": "MilestoneSigned",
      "type": "event"
    },
    {
      "anonymous": false,
      "inputs": [
        {
          "indexed": true,
          "internalType": "address",
          "name": "previousOwner",
          "type": "address"
        },
        {
          "indexed": true,
          "internalType": "address",
          "name": "newOwner",
          "type": "address"
        }
      ],
      "name": "OwnershipTransferred",
      "type": "event"
    },
    {
      "anonymous": false,
      "inputs": [
        {
          "indexed": true,
          "internalType": "address",
          "name": "implementation",
          "type": "address"
        }
      ],
      "name": "Upgraded",
      "type": "event"
    },
    {
      "inputs": [],
      "name": "UPGRADE_INTERFACE_VERSION",
      "outputs": [
        {
          "internalType": "string",
          "name": "",
          "type": "string"
        }
      ],
      "stateMutability": "view",
      "type": "function"
    },
    {
      "inputs": [
        {
          "internalType": "string",
          "name": "description",
          "type": "string"
        },
        {
          "internalType": "address[]",
          "name": "participants",
          "type": "address[]"
        },
        {
          "internalType": "string",
          "name": "hash",
          "type": "string"
        },
        {
          "internalType": "string",
          "name": "id",
          "type": "string"
        }
      ],
      "name": "addGroupMilestone",
      "outputs": [],
      "stateMutability": "nonpayable",
      "type": "function"
    },
    {
      "inputs": [
        {
          "internalType": "string",
          "name": "description",
          "type": "string"
        },
        {
          "internalType": "string",
          "name": "hash",
          "type": "string"
        },
        {
          "internalType": "string",
          "name": "id",
          "type": "string"
        }
      ],
      "name": "addMilestone",
      "outputs": [],
      "stateMutability": "nonpayable",
      "type": "function"
    },
    {
      "inputs": [],
      "name": "admin",
      "outputs": [
        {
          "internalType": "address",
          "name": "",
          "type": "address"
        }
      ],
      "stateMutability": "view",
      "type": "function"
    },
    {
      "inputs": [
        {
          "internalType": "address",
          "name": "_user",
          "type": "address"
        }
      ],
      "name": "getAllMilestones",
      "outputs": [
        {
          "internalType": "string[]",
          "name": "ids",
          "type": "string[]"
        },
        {
          "internalType": "address[]",
          "name": "owners",
          "type": "address[]"
        },
        {
          "internalType": "string[]",
          "name": "descriptions",
          "type": "string[]"
        },
        {
          "internalType": "uint256[]",
          "name": "timeStamps",
          "type": "uint256[]"
        },
        {
          "internalType": "string[]",
          "name": "hashes",
          "type": "string[]"
        },
        {
          "internalType": "bool[]",
          "name": "isPendings",
          "type": "bool[]"
        },
        {
          "internalType": "uint256[]",
          "name": "totalParticipants",
          "type": "uint256[]"
        },
        {
          "internalType": "uint256[]",
          "name": "signatureCounts",
          "type": "uint256[]"
        },
        {
          "internalType": "uint256[]",
          "name": "expiryDates",
          "type": "uint256[]"
        }
      ],
      "stateMutability": "view",
      "type": "function"
    },
    {
      "inputs": [
        {
          "internalType": "address",
          "name": "_owner",
          "type": "address"
        },
        {
          "internalType": "string",
          "name": "id",
          "type": "string"
        }
      ],
      "name": "getMilestone",
      "outputs": [
        {
          "internalType": "address",
          "name": "",
          "type": "address"
        },
        {
          "internalType": "string",
          "name": "",
          "type": "string"
        },
        {
          "internalType": "uint256",
          "name": "",
          "type": "uint256"
        },
        {
          "internalType": "string",
          "name": "",
          "type": "string"
        },
        {
          "internalType": "string",
          "name": "",
          "type": "string"
        },
        {
          "internalType": "bool",
          "name": "",
          "type": "bool"
        },
        {
          "internalType": "uint256",
          "name": "",
          "type": "uint256"
        },
        {
          "internalType": "uint256",
          "name": "",
          "type": "uint256"
        },
        {
          "internalType": "uint256",
          "name": "",
          "type": "uint256"
        }
      ],
      "stateMutability": "view",
      "type": "function"
    },
    {
      "inputs": [
        {
          "internalType": "address",
          "name": "_owner",
          "type": "address"
        },
        {
          "internalType": "string",
          "name": "id",
          "type": "string"
        }
      ],
      "name": "getMilestoneData",
      "outputs": [
        {
          "components": [
            {
              "internalType": "address",
              "name": "owner",
              "type": "address"
            },
            {
              "internalType": "string",
              "name": "description",
              "type": "string"
            },
            {
              "internalType": "uint256",
              "name": "timeStamp",
              "type": "uint256"
            },
            {
              "internalType": "string",
              "name": "hash",
              "type": "string"
            },
            {
              "internalType": "string",
              "name": "id",
              "type": "string"
            },
            {
              "internalType": "bool",
              "name": "isPending",
              "type": "bool"
            },
            {
              "internalType": "uint256",
              "name": "totalParticipants",
              "type": "uint256"
            },
            {
              "internalType": "uint256",
              "name": "signatureCount",
              "type": "uint256"
            },
            {
              "internalType": "uint256",
              "name": "expiryDate",
              "type": "uint256"
            }
          ],
          "internalType": "struct MilestoneTracker.MilestoneData",
          "name": "data",
          "type": "tuple"
        }
      ],
      "stateMutability": "view",
      "type": "function"
    },
    {
      "inputs": [],
      "name": "initialize",
      "outputs": [],
      "stateMutability": "nonpayable",
      "type": "function"
    },
    {
      "inputs": [
        {
          "internalType": "address",
          "name": "forwarder",
          "type": "address"
        }
      ],
      "name": "isTrustedForwarder",
      "outputs": [
        {
          "internalType": "bool",
          "name": "",
          "type": "bool"
        }
      ],
      "stateMutability": "view",
      "type": "function"
    },
    {
      "inputs": [
        {
          "internalType": "address",
          "name": "",
          "type": "address"
        },
        {
          "internalType": "string",
          "name": "",
          "type": "string"
        }
      ],
      "name": "milestoneExists",
      "outputs": [
        {
          "internalType": "bool",
          "name": "",
          "type": "bool"
        }
      ],
      "stateMutability": "view",
      "type": "function"
    },
    {
      "inputs": [
        {
          "internalType": "address",
          "name": "user",
          "type": "address"
        },
        {
          "internalType": "string",
          "name": "id",
          "type": "string"
        }
      ],
      "name": "milestoneExistsFor",
      "outputs": [
        {
          "internalType": "bool",
          "name": "",
          "type": "bool"
        }
      ],
      "stateMutability": "view",
      "type": "function"
    },
    {
      "inputs": [],
      "name": "owner",
      "outputs": [
        {
          "internalType": "address",
          "name": "",
          "type": "address"
        }
      ],
      "stateMutability": "view",
      "type": "function"
    },
    {
      "inputs": [],
      "name": "proxiableUUID",
      "outputs": [
        {
          "internalType": "bytes32",
          "name": "",
          "type": "bytes32"
        }
      ],
      "stateMutability": "view",
      "type": "function"
    },
    {
      "inputs": [
        {
          "internalType": "address",
          "name": "user",
          "type": "address"
        },
        {
          "internalType": "string",
          "name": "id",
          "type": "string"
        }
      ],
      "name": "removeMilestone",
      "outputs": [],
      "stateMutability": "nonpayable",
      "type": "function"
    },
    {
      "inputs": [],
      "name": "renounceOwnership",
      "outputs": [],
      "stateMutability": "nonpayable",
      "type": "function"
    },
    {
      "inputs": [
        {
          "internalType": "address",
          "name": "_owner",
          "type": "address"
        },
        {
          "internalType": "string",
          "name": "_id",
          "type": "string"
        }
      ],
      "name": "signMilestone",
      "outputs": [],
      "stateMutability": "nonpayable",
      "type": "function"
    },
    {
      "inputs": [
        {
          "internalType": "address",
          "name": "newOwner",
          "type": "address"
        }
      ],
      "name": "transferOwnership",
      "outputs": [],
      "stateMutability": "nonpayable",
      "type": "function"
    },
    {
      "inputs": [],
      "name": "trustedForwarder",
      "outputs": [
        {
          "internalType": "address",
          "name": "",
          "type": "address"
        }
      ],
      "stateMutability": "view",
      "type": "function"
    },
    {
      "inputs": [
        {
          "internalType": "address",
          "name": "newImplementation",
          "type": "address"
        },
        {
          "internalType": "bytes",
          "name": "data",
          "type": "bytes"
        }
      ],
      "name": "upgradeToAndCall",
      "outputs": [],
      "stateMutability": "payable",
      "type": "function"
    },
    {
      "inputs": [
        {
          "internalType": "address",
          "name": "",
          "type": "address"
        },
        {
          "internalType": "string",
          "name": "",
          "type": "string"
        }
      ],
      "name": "userMilestoneById",
      "outputs": [
        {
          "internalType": "address",
          "name": "owner",
          "type": "address"
        },
        {
          "internalType": "string",
          "name": "description",
          "type": "string"
        },
        {
          "internalType": "uint256",
          "name": "timeStamp",
          "type": "uint256"
        },
        {
          "internalType": "string",
          "name": "hash",
          "type": "string"
        },
        {
          "internalType": "string",
          "name": "id",
          "type": "string"
        },
        {
          "internalType": "uint256",
          "name": "expiryDate",
          "type": "uint256"
        },
        {
          "internalType": "bool",
          "name": "isPending",
          "type": "bool"
        },
        {
          "internalType": "uint256",
          "name": "totalParticipants",
          "type": "uint256"
        },
        {
          "internalType": "uint256",
          "name": "signatureCount",
          "type": "uint256"
        }
      ],
      "stateMutability": "view",
      "type": "function"
    },
    {
      "inputs": [
        {
          "internalType": "address",
          "name": "",
          "type": "address"
        },
        {
          "internalType": "uint256",
          "name": "",
          "type": "uint256"
        }
      ],
      "name": "userMilestoneIds",
      "outputs": [
        {
          "internalType": "string",
          "name": "",
          "type": "string"
        }
      ],
      "stateMutability": "view",
      "type": "function"
    },
    {
      "inputs": [
        {
          "internalType": "address",
          "name": "_owner",
          "type": "address"
        },
        {
          "internalType": "string",
          "name": "id",
          "type": "string"
        },
        {
          "internalType": "string",
          "name": "hashToVerify",
          "type": "string"
        }
      ],
      "name": "verifyMilestoneHash",
      "outputs": [
        {
          "internalType": "bool",
          "name": "",
          "type": "bool"
        }
      ],
      "stateMutability": "view",
      "type": "function"
    }
  ],
  "bytecode": "0x60c06040523461004f5761001961001461011a565b61013b565b610021610054565b61452461038b823960805181612a59015260a051818181613ae301528181613b490152613d10015261452490f35b61005a565b60405190565b600080fd5b601f801991011690565b634e487b7160e01b600052604160045260246000fd5b906100899061005f565b810190811060018060401b038211176100a157604052565b610069565b906100b96100b2610054565b928361007f565b565b600080fd5b60018060a01b031690565b6100d4906100c0565b90565b6100e0816100cb565b036100e757565b600080fd5b905051906100f9826100d7565b565b9060208282031261011557610112916000016100ec565b90565b6100bb565b6101386148af8038038061012d816100a6565b9283398101906100fb565b90565b6101449061014e565b61014c6102aa565b565b61015790610190565b565b90565b61017061016b610175926100c0565b610159565b6100c0565b90565b6101819061015c565b90565b61018d90610178565b90565b610199906101a7565b6101a230610184565b60a052565b6101b0906101b2565b565b608052565b60401c90565b60ff1690565b6101cf6101d4916101b7565b6101bd565b90565b6101e190546101c3565b90565b60000190565b60001c90565b60018060401b031690565b61020761020c916101ea565b6101f0565b90565b61021990546101fb565b90565b60018060401b031690565b60001b90565b9061023e60018060401b0391610227565b9181191691161790565b61025c6102576102619261021c565b610159565b61021c565b90565b90565b9061027c61027761028392610248565b610264565b825461022d565b9055565b6102909061021c565b9052565b91906102a890600060208501940190610287565b565b6102b2610366565b6102be600082016101d7565b610349576102ce6000820161020f565b6102e66102e060018060401b0361021c565b9161021c565b036102ef575b50565b61030390600060018060401b039101610267565b60018060401b036103407fc7f505b2f371ae2175ee4913f4499e1f2633a7b5936321eed1cdaeb6115181d291610337610054565b91829182610294565b0390a1386102ec565b600063f92ee8a960e01b815280610362600482016101e4565b0390fd5b7ff0c57e16840df040f15088dc2f81fe391c3923bec73e23a9662efc9c229c6a009056fe60806040526004361015610013575b611652565b61001e60003561017d565b80631b9c242d146101785780632578400a146101735780634f1ef2861461016e5780635004a3eb1461016957806352d1902d1461016457806355b18fe41461015f578063572b6c051461015a5780635940aa5b146101555780635c971fa914610150578063715018a61461014b57806374b57b2f146101465780637da0a877146101415780638129fc1c1461013c578063848bbcd3146101375780638da5cb5b14610132578063a73be67c1461012d578063ad3cb1cc14610128578063c4f4846314610123578063d221b3261461011e578063f2fde38b14610119578063f6e9d082146101145763f851a4400361000e5761161d565b6115af565b6114f5565b6114bf565b6113bb565b611316565b611267565b6110f1565b6110b2565b610d7a565b610d45565b610cef565b610c26565b610bf2565b610bb5565b610a91565b610a3e565b610a09565b61099d565b61092c565b61082b565b610720565b60e01c90565b60405190565b600080fd5b600080fd5b600080fd5b60018060a01b031690565b6101ac90610198565b90565b6101b8816101a3565b036101bf57565b600080fd5b905035906101d1826101af565b565b600080fd5b600080fd5b601f801991011690565b634e487b7160e01b600052604160045260246000fd5b90610207906101dd565b810190811067ffffffffffffffff82111761022157604052565b6101e7565b90610239610232610183565b92836101fd565b565b67ffffffffffffffff8111610259576102556020916101dd565b0190565b6101e7565b90826000939282370152565b9092919261027f61027a8261023b565b610226565b9381855260208501908284011161029b576102999261025e565b565b6101d8565b9080601f830112156102be578160206102bb9335910161026a565b90565b6101d3565b919091604081840312610304576102dd83600083016101c4565b92602082013567ffffffffffffffff81116102ff576102fc92016102a0565b90565b610193565b61018e565b90565b61032061031b61032592610198565b610309565b610198565b90565b6103319061030c565b90565b61033d90610328565b90565b9061034a90610334565b600052602052604060002090565b5190565b905090565b60005b838110610375575050906000910152565b806020918301518185015201610364565b6103ab6103a29260209261039981610358565b9485809361035c565b93849101610361565b0190565b90565b90565b6103c16103c6916103af565b6103b2565b9052565b6103da6103e19160209493610386565b80926103b5565b0190565b6103f96103f0610183565b928392836103ca565b03902090565b610408916103e5565b90565b60001c90565b60018060a01b031690565b61042861042d9161040b565b610411565b90565b61043a905461041c565b90565b634e487b7160e01b600052602260045260246000fd5b9060016002830492168015610473575b602083101461046e57565b61043d565b91607f1691610463565b60209181520190565b600052602060002090565b90600092918054906104ac6104a583610453565b809461047d565b9160018116908160001461050557506001146104c8575b505050565b6104d59192939450610486565b916000925b8184106104ed57505001903880806104c3565b600181602092959395548486015201910192906104da565b92949550505060ff19168252151560200201903880806104c3565b9061052a91610491565b90565b9061054d6105469261053d610183565b93848092610520565b03836101fd565b565b90565b61055e6105639161040b565b61054f565b90565b6105709054610552565b90565b60ff1690565b61058561058a9161040b565b610573565b90565b6105979054610579565b90565b906105a96105ae926001610340565b6103ff565b6105ba60008201610430565b916105c76001830161052d565b916105d460028201610566565b916105e16003830161052d565b916105ee6004820161052d565b916105fb60058301610566565b916106086006820161058d565b91610621600961061a60088501610566565b9301610566565b90565b61062d906101a3565b9052565b60209181520190565b6106596106626020936106679361065081610358565b93848093610631565b95869101610361565b6101dd565b0190565b610674906103af565b9052565b151590565b61068690610678565b9052565b946106f8610703916106ea61071e9b96610717986101009b9f9e9c966106d26106dd9161070d9a8e6106c56101208201936000830190610624565b602081840391015261063a565b9260408d019061066b565b8a820360608c015261063a565b9088820360808a015261063a565b9a60a087019061066b565b60c085019061067d565b60e083019061066b565b019061066b565b565b3461075b5761075761073c6107363660046102c3565b9061059a565b9561074e999799959195949294610183565b998a998a61068a565b0390f35b610189565b600080fd5b600080fd5b909182601f830112156107a45781359167ffffffffffffffff831161079f57602001926001830284011161079a57565b610765565b610760565b6101d3565b606081830312610810576107c082600083016101c4565b92602082013567ffffffffffffffff811161080b57836107e191840161076a565b929093604082013567ffffffffffffffff811161080657610802920161076a565b9091565b610193565b610193565b61018e565b91906108299060006020850194019061067d565b565b3461085f5761085b61084a6108413660046107a9565b939290926118ef565b610852610183565b91829182610815565b0390f35b610189565b67ffffffffffffffff81116108825761087e6020916101dd565b0190565b6101e7565b9092919261089c61089782610864565b610226565b938185526020850190828401116108b8576108b69261025e565b565b6101d8565b9080601f830112156108db578160206108d893359101610887565b90565b6101d3565b919091604081840312610921576108fa83600083016101c4565b92602082013567ffffffffffffffff811161091c5761091992016108bd565b90565b610193565b61018e565b60000190565b61094061093a3660046108e0565b90611930565b610948610183565b8061095281610926565b0390f35b9190916040818403126109985761097083600083016101c4565b92602082013567ffffffffffffffff81116109935761098f920161076a565b9091565b610193565b61018e565b346109ce576109ca6109b96109b3366004610956565b9161193c565b6109c1610183565b91829182610815565b0390f35b610189565b60009103126109de57565b61018e565b90565b6109ef906109e3565b9052565b9190610a07906000602085019401906109e6565b565b34610a3957610a193660046109d3565b610a35610a246119de565b610a2c610183565b918291826109f3565b0390f35b610189565b34610a6d57610a57610a51366004610956565b91611e62565b610a5f610183565b80610a6981610926565b0390f35b610189565b90602082820312610a8c57610a89916000016101c4565b90565b61018e565b34610ac157610abd610aac610aa7366004610a72565b611e6f565b610ab4610183565b91829182610815565b0390f35b610189565b909182601f83011215610b005781359167ffffffffffffffff8311610afb576020019260208302840111610af657565b610765565b610760565b6101d3565b9091608082840312610bb057600082013567ffffffffffffffff8111610bab5783610b3191840161076a565b929093602082013567ffffffffffffffff8111610ba65781610b54918401610ac6565b929093604082013567ffffffffffffffff8111610ba15783610b7791840161076a565b929093606082013567ffffffffffffffff8111610b9c57610b98920161076a565b9091565b610193565b610193565b610193565b610193565b61018e565b34610bed57610bd7610bc8366004610b05565b96959095949194939293612359565b610bdf610183565b80610be981610926565b0390f35b610189565b34610c2157610c0b610c05366004610956565b916127b4565b610c13610183565b80610c1d81610926565b0390f35b610189565b34610c5457610c363660046109d3565b610c3e6127e7565b610c46610183565b80610c5081610926565b0390f35b610189565b94610cc7610cd291610cb9610ced9b96610ce6986101009b9f9e9c96610ca1610cac91610cdc9a8e610c946101208201936000830190610624565b602081840391015261063a565b9260408d019061066b565b8a820360608c015261063a565b9088820360808a015261063a565b9a60a087019061067d565b60c085019061066b565b60e083019061066b565b019061066b565b565b34610d2a57610d26610d0b610d05366004610956565b916129ec565b95610d1d999799959195949294610183565b998a998a610c59565b0390f35b610189565b9190610d4390600060208501940190610624565b565b34610d7557610d553660046109d3565b610d71610d60612a4e565b610d68610183565b91829182610d2f565b0390f35b610189565b34610da857610d8a3660046109d3565b610d92612d67565b610d9a610183565b80610da481610926565b0390f35b610189565b5190565b60209181520190565b60200190565b610ddf610de8602093610ded93610dd681610358565b9384809361047d565b95869101610361565b6101dd565b0190565b90610dfb91610dc0565b90565b60200190565b90610e18610e1183610dad565b8092610db1565b9081610e2960208302840194610dba565b926000915b838310610e3d57505050505090565b90919293946020610e5f610e5983856001950387528951610df1565b97610dfe565b9301930191939290610e2e565b5190565b60209181520190565b60200190565b610e88906101a3565b9052565b90610e9981602093610e7f565b0190565b60200190565b90610ec0610eba610eb384610e6c565b8093610e70565b92610e79565b9060005b818110610ed15750505090565b909192610eea610ee46001928651610e8c565b94610e9d565b9101919091610ec4565b5190565b60209181520190565b60200190565b610f10906103af565b9052565b90610f2181602093610f07565b0190565b60200190565b90610f48610f42610f3b84610ef4565b8093610ef8565b92610f01565b9060005b818110610f595750505090565b909192610f72610f6c6001928651610f14565b94610f25565b9101919091610f4c565b5190565b60209181520190565b60200190565b610f9890610678565b9052565b90610fa981602093610f8f565b0190565b60200190565b90610fd0610fca610fc384610f7c565b8093610f80565b92610f89565b9060005b818110610fe15750505090565b909192610ffa610ff46001928651610f9c565b94610fad565b9101919091610fd4565b979461107690611068611092966110598c6110af9e9c9861104b6110849961103d6110a09f9a6101208601908682036000880152610e04565b908482036020860152610ea3565b916040818403910152610e04565b908c6060818403910152610f2b565b908a820360808c0152610e04565b9088820360a08a0152610fb3565b9086820360c0880152610f2b565b9084820360e0860152610f2b565b91610100818403910152610f2b565b90565b346110ec576110e86110cd6110c8366004610a72565b6133d6565b956110df999799959195949294610183565b998a998a611004565b0390f35b610189565b34611121576111013660046109d3565b61111d61110c613436565b611114610183565b91829182610d2f565b0390f35b610189565b61112f816103af565b0361113657565b600080fd5b9050359061114882611126565b565b9190604083820312611173578061116761117092600086016101c4565b9360200161113b565b90565b61018e565b9061118290610334565b600052602052604060002090565b634e487b7160e01b600052603260045260246000fd5b5490565b600052602060002090565b600052602060002090565b6111c9816111a6565b8210156111e4576111db6001916111aa565b91020190600090565b611190565b634e487b7160e01b600052600060045260246000fd5b90600010611213576112109061052d565b90565b6111e9565b611223906002611178565b61122c816111a6565b8210156112495761124691611240916111c0565b906111ff565b90565b600080fd5b611264916020820191600081840391015261063a565b90565b346112985761129461128361127d36600461114a565b90611218565b61128b610183565b9182918261124e565b0390f35b610189565b906112af6112aa8361023b565b610226565b918252565b60007f352e302e30000000000000000000000000000000000000000000000000000000910152565b6112e6600561129d565b906112f3602083016112b4565b565b6112fd6112dc565b90565b6113086112f5565b90565b611313611300565b90565b34611346576113263660046109d3565b61134261133161130b565b611339610183565b9182918261124e565b0390f35b610189565b9061135590610334565b600052602052604060002090565b61136c916103e5565b90565b1c90565b611383906008611388930261136f565b610573565b90565b906113969154611373565b90565b6113b36113b8926113ae60039360009461134b565b611363565b61138b565b90565b346113ec576113e86113d76113d13660046102c3565b90611399565b6113df610183565b91829182610815565b0390f35b610189565b906114a3906101008061146261145061142c610120860161141a60008a01516000890190610e7f565b60208901518782036020890152610dc0565b61143e60408901516040880190610f07565b60608801518682036060880152610dc0565b60808701518582036080870152610dc0565b9461147560a082015160a0860190610f8f565b61148760c082015160c0860190610f07565b61149960e082015160e0860190610f07565b0151910190610f07565b90565b6114bc91602082019160008184039101526113f1565b90565b346114f0576114ec6114db6114d5366004610956565b9161371a565b6114e3610183565b918291826114a6565b0390f35b610189565b346115235761150d611508366004610a72565b613798565b611515610183565b8061151f81610926565b0390f35b610189565b906060828203126115aa57600082013567ffffffffffffffff81116115a5578161155391840161076a565b929093602082013567ffffffffffffffff81116115a0578361157691840161076a565b929093604082013567ffffffffffffffff811161159b57611597920161076a565b9091565b610193565b610193565b610193565b61018e565b346115e4576115ce6115c2366004611528565b94939093929192613ab6565b6115d6610183565b806115e081610926565b0390f35b610189565b6115f99060086115fe930261136f565b610411565b90565b9061160c91546115e9565b90565b61161a600080611601565b90565b3461164d5761162d3660046109d3565b61164961163861160f565b611640610183565b91829182610d2f565b0390f35b610189565b600080fd5b600090565b90918261166c816116739361035c565b809361025e565b0190565b611688906020949361168f9361165c565b80926103b5565b0190565b90916116aa906116a1610183565b93849384611677565b03902090565b90916116bb92611693565b90565b91906116d8816116d1816116dd95610631565b809561025e565b6101dd565b0190565b916117079391926116fa60408201946000830190610624565b60208185039101526116be565b90565b959493929190809682849861173e61173861173361172a6003859061134b565b8d8690916116b0565b61058d565b15610678565b61175257505061174f96975061183a565b90565b906117788a929192611762610183565b938493632e0e1ad560e21b8552600485016116e1565b0390fd5b909161178792611693565b90565b90565b90600092918054906117a86117a183610453565b809461035c565b916001811690816000146117fc57506001146117c4575b505050565b6117d19192939450610486565b6000905b8382106117e857505001903880806117bf565b6001816020925484860152019101906117d5565b92949550505060ff191682528015150201903880806117bf565b61181f9161178d565b90565b60200190565b5190565b90916118379261165c565b90565b611893600361186f61186a6118eb9899966118e5986118626118cd9861188498506001610340565b91909161177c565b61178a565b01611878610183565b92839160208301611816565b602082018103825203826101fd565b6118a561189f82611828565b91611822565b20946118be6118b2610183565b9384926020840161182c565b602082018103825203826101fd565b6118df6118d982611828565b91611822565b206109e3565b916109e3565b1490565b90611904949392916118ff611657565b61170a565b90565b9061191991611914613ad2565b61191b565b565b9061192e9161192981613b85565b613bfd565b565b9061193a91611907565b565b906119659261195861196093611950611657565b50600361134b565b9190916116b0565b61058d565b90565b600090565b61197e90611979613cff565b6119d2565b90565b90565b60001b90565b61199e6119996119a392611981565b611984565b6109e3565b90565b6119cf7f360894a13ba1a3210667c828492db98dca3e2076cc3735a920a3ca505d382bbc61198a565b90565b506119db6119a6565b90565b6119ee6119e9611968565b61196d565b90565b919033611a0d611a07611a02612a4e565b6101a3565b916101a3565b141580611a73575b80611a51575b611a2a57611a2892611a9c565b565b611a4d611a35613d5e565b600091829163d86ad9cf60e01b835260048301610d2f565b0390fd5b5033611a6c611a66611a61613436565b6101a3565b916101a3565b1415611a1b565b50611a7c613d5e565b611a95611a8f611a8a613436565b6101a3565b916101a3565b1415611a15565b92919083818395611acb611ac5611ac0611ab86003859061134b565b858b916116b0565b61058d565b15610678565b611ade575050611adc939450611c63565b565b90611b0487929192611aee610183565b938493632e0e1ad560e21b8552600485016116e1565b0390fd5b90611b1290610334565b600052602052604060002090565b611b47611b549593949294611b3d60608401966000850190610624565b6020830190610624565b60408185039101526116be565b90565b90611b6360ff91611984565b9181191691161790565b611b7690610678565b90565b90565b90611b91611b8c611b9892611b6d565b611b79565b8254611b57565b9055565b634e487b7160e01b600052601160045260246000fd5b611bbb906103af565b6000198114611bca5760010190565b611b9c565b90611bdc60001991611984565b9181191691161790565b611bfa611bf5611bff926103af565b610309565b6103af565b90565b90565b90611c1a611c15611c2192611be6565b611c02565b8254611bcf565b9055565b611c39611c30610183565b9283928361182c565b03902090565b916020611c61929493611c5a6040820196600083019061066b565b019061066b565b565b919091611c6e613d5e565b90611c8e611c89611c8160018490610340565b86869161177c565b61178a565b91611ca4611c9e6006850161058d565b15610678565b611e3857611cc7611cc1611cbc600786018490611b08565b61058d565b15610678565b611e0d57611ce36000611cde600786018490611b08565b611b7c565b611d0160098401611cfb611cf682610566565b611bb2565b90611c05565b819085908592611d1360098701610566565b93611d5d611d2360088901610566565b91611d57611d517fd955b88241fc6cba9370941fc909a3795737279a96ce7dfc4c9f9fff3b9753e095610334565b95610334565b95611c25565b94611d72611d69610183565b92839283611c3f565b0390a4611d8160098301610566565b611d9e611d98611d9360088601610566565b6103af565b916103af565b14611daa575b50505050565b611dbc611dee92600660009101611b7c565b9291611de87f036ed56e03f80fd8fc40481c8c469d9d5f5210b6de8f1907d3283b220c616a0794610334565b92611c25565b91611df7610183565b80611e0181610926565b0390a338808080611da4565b90611e348486939293611e1e610183565b94859463c923961560e01b865260048601611b20565b0390fd5b8385611e5e849192611e48610183565b938493637dd8c72760e01b8552600485016116e1565b0390fd5b90611e6d92916119f1565b565b611e77611657565b50611e91611e8b611e86612a4e565b6101a3565b916101a3565b1490565b9695949392919033611eb6611eb0611eab612a4e565b6101a3565b916101a3565b141580611f1c575b80611efa575b611ed357611ed197611f45565b565b611ef6611ede613d5e565b600091829163d86ad9cf60e01b835260048301610d2f565b0390fd5b5033611f15611f0f611f0a613436565b6101a3565b916101a3565b1415611ec4565b50611f25613d5e565b611f3e611f38611f33613436565b6101a3565b916101a3565b1415611ebe565b9796959493929190611f55613d5e565b9886889a611f7a611f758d611f6c6003859061134b565b908590916116b0565b61058d565b611f8d575050611f8b98995061225d565b565b90611fb38c929192611f9d610183565b9384936358c6304560e11b8552600485016116e1565b0390fd5b5090565b90565b600052602060002090565b5490565b611fd681611fc9565b821015611ff157611fe8600191611fbe565b91020190600090565b611190565b5090565b601f602091010490565b1b90565b9190600861202491029161201e60001984612004565b92612004565b9181191691161790565b919061204461203f61204c93611be6565b611c02565b908354612008565b9055565b600090565b61206791612061612050565b9161202e565b565b5b818110612075575050565b806120836000600193612055565b0161206a565b9190601f8111612099575b505050565b6120a56120ca93610486565b9060206120b184611ffa565b830193106120d2575b6120c390611ffa565b0190612069565b388080612094565b91506120c3819290506120ba565b906120f1906000199060080261136f565b191690565b81612100916120e0565b906002021790565b916121139082611ff6565b9067ffffffffffffffff82116121d557612137826121318554610453565b85612089565b600090601f831160011461216c5791809161215b93600092612160575b50506120f6565b90555b565b90915001353880612154565b601f1983169161217b85610486565b9260005b8181106121bd575091600293918560019694106121a3575b5050500201905561215e565b6121b3910135601f8416906120e0565b9055388080612197565b9193602060018192878701358155019501920161217f565b6101e7565b9291906121ec576121ea92612108565b565b6111e9565b919082549268010000000000000000841015612222578361221a91600161222096018155611fcd565b906121da565b565b6101e7565b61225461224960409361225b96989795606085019185830360008701526116be565b96602083019061066b565b019061066b565b565b909293612311612342916122c5866122bd8987899e9d9c998e8e6123549c612283613d5e565b996122a261229d6122958d6001610340565b85879161177c565b61178a565b986122b58a988d98929394959697611fb7565b964298613d72565b8b8991613e32565b6122e660016122e16122d96003859061134b565b8b8d916116b0565b611b7c565b6123056122fd6122f860028490611178565b611fbb565b898b916121f1565b96979294954299611fb7565b9161233c7f816e0a9a08f1436d5ab1c561858563a232943b0ad6254e19655506214ab6a55f97610334565b97611c25565b9661234b610183565b94859485612227565b0390a3565b9061236997969594939291611e95565b565b91903361238761238161237c612a4e565b6101a3565b916101a3565b1415806123ed575b806123cb575b6123a4576123a292612416565b565b6123c76123af613d5e565b600091829163d86ad9cf60e01b835260048301610d2f565b0390fd5b50336123e66123e06123db613436565b6101a3565b916101a3565b1415612395565b506123f6613d5e565b61240f612409612404613436565b6101a3565b916101a3565b141561238f565b9291908381839561244561243f61243a6124326003859061134b565b858b916116b0565b61058d565b15610678565b612458575050612456939450612630565b565b9061247e87929192612468610183565b938493632e0e1ad560e21b8552600485016116e1565b0390fd5b60207f69636970616e74732063616e2072656d6f766520697400000000000000000000917f4f6e6c7920746865206d696c6573746f6e65206f776e6572206f72207061727460008201520152565b6124dd6036604092610631565b6124e681612482565b0190565b61250090602081019060008183039101526124d0565b90565b1561250a57565b612512610183565b62461bcd60e51b815280612528600482016124ea565b0390fd5b90565b61254361253e6125489261252c565b610309565b610198565b90565b6125549061252f565b90565b9061256860018060a01b0391611984565b9181191691161790565b90565b9061258a61258561259192610334565b612572565b8254612557565b9055565b9190601f81116125a5575b505050565b6125b16125d6936111b5565b9060206125bd84611ffa565b830193106125de575b6125cf90611ffa565b0190612069565b3880806125a0565b91506125cf819290506125c6565b61260160006125fb8354610453565b83612595565b600080019055565b612612906125ec565b565b61262861262361262d9261252c565b610309565b6103af565b90565b6127749092919261272161265961265461264c60018590610340565b87879161177c565b61178a565b612661613d5e565b61267361266d856101a3565b916101a3565b14801561278c575b61268490612503565b61269a612691600061254b565b60008301612575565b6126a660018201612609565b6126bc6126b36000612614565b60028301611c05565b6126c860038201612609565b6126d460048201612609565b6126e2600060068301611b7c565b6126f86126ef6000612614565b60098301611c05565b61270e6127056000612614565b60088301611c05565b600561271a6000612614565b9101611c05565b612742600061273d6127356003859061134b565b8787916116b0565b611b7c565b929161276e7fb7acc9827958344561774ec6877640d64ec42308d91a3c1b55a2a50acfb02c6d94610334565b92611c25565b9161277d610183565b8061278781610926565b0390a3565b506126846127ad6127a8600784016127a2613d5e565b90611b08565b61058d565b905061267b565b906127bf929161236b565b565b6127c9613ea2565b6127d16127d3565b565b6127e56127e0600061254b565b613ef1565b565b6127ef6127c1565b565b600090565b606090565b9a999897969594939291903361282061281a612815612a4e565b6101a3565b916101a3565b14158061288f575b8061286d575b6128465761283b9b6128b8565b909192939495969798565b612869612851613d5e565b600091829163d86ad9cf60e01b835260048301610d2f565b0390fd5b503361288861288261287d613436565b6101a3565b916101a3565b141561282e565b50612898613d5e565b6128b16128ab6128a6613436565b6101a3565b916101a3565b1415612828565b9b9a99989796959493929190889c8a8c9e8f6003826128d69161134b565b90836128e1926116b0565b6128ea9061058d565b156128f490610678565b6129105750506129059c9d50612961565b909192939495969798565b8f82612936839192612920610183565b938493632e0e1ad560e21b8552600485016116e1565b0390fd5b61294490516101a3565b90565b61295190516103af565b90565b61295e9051610678565b90565b906129809b99989796959493929150505050505050505091909161371a565b9061298d6000830161293a565b906020830151926129a060408201612947565b926060820151926080830151926129b960a08201612954565b926129c660c08301612947565b926129e06101006129d960e08601612947565b9401612947565b91989796959493929190565b90612a4392916129fa6127f1565b612a026127f6565b612a0a612050565b612a126127f6565b612a1a6127f6565b612a22611657565b91612a2b612050565b93612a34612050565b95612a3d612050565b976127fb565b909192939495969798565b612a566127f1565b507f000000000000000000000000000000000000000000000000000000000000000090565b60401c90565b612a8d612a9291612a7b565b610573565b90565b612a9f9054612a81565b90565b67ffffffffffffffff1690565b612abb612ac09161040b565b612aa2565b90565b612acd9054612aaf565b90565b67ffffffffffffffff1690565b612af1612aec612af69261252c565b610309565b612ad0565b90565b90565b612b10612b0b612b1592612af9565b610309565b612ad0565b90565b612b2190610328565b90565b90612b3767ffffffffffffffff91611984565b9181191691161790565b612b55612b50612b5a92612ad0565b610309565b612ad0565b90565b90565b90612b75612b70612b7c92612b41565b612b5d565b8254612b24565b9055565b60401b90565b90612b9a68ff000000000000000091612b80565b9181191691161790565b90612bb9612bb4612bc092611b6d565b611b79565b8254612b86565b9055565b612bcd90612afc565b9052565b9190612be590600060208501940190612bc4565b565b612bef613f5f565b612c04612bfe60008301612a95565b15610678565b612c1060008301612ac3565b80612c24612c1e6000612add565b91612ad0565b1480612d42575b90612c3f612c396001612afc565b91612ad0565b1480612d19575b612c51909115610678565b9081612d08575b50612ceb57612c73612c6a6001612afc565b60008401612b60565b80612cd8575b612c81612d49565b612c89575b50565b612c97906000809101612ba4565b6001612ccf7fc7f505b2f371ae2175ee4913f4499e1f2633a7b5936321eed1cdaeb6115181d291612cc6610183565b91829182612bd1565b0390a138612c86565b612ce6600160008401612ba4565b612c79565b600063f92ee8a960e01b815280612d0460048201610926565b0390fd5b612d13915015610678565b38612c58565b50612c51612d2630612b18565b3b612d3a612d346000612614565b916103af565b149050612c46565b5081612c2b565b612d51613f8d565b612d5a33613fb5565b612d65336000612575565b565b612d6f612be7565b565b606090565b606090565b606090565b606090565b98979695949392919033612da8612da2612d9d612a4e565b6101a3565b916101a3565b141580612e17575b80612df5575b612dce57612dc3996130a9565b909192939495969798565b612df1612dd9613d5e565b600091829163d86ad9cf60e01b835260048301610d2f565b0390fd5b5033612e10612e0a612e05613436565b6101a3565b916101a3565b1415612db6565b50612e20613d5e565b612e39612e33612e2e613436565b6101a3565b916101a3565b1415612db0565b6001612e4c91016103af565b90565b612e589061052d565b90565b67ffffffffffffffff8111612e735760208091020190565b6101e7565b90612e8a612e8583612e5b565b610226565b918252565b606090565b60005b828110612ea357505050565b602090612eae612e8f565b8184015201612e97565b90612edd612ec583612e78565b92602080612ed38693612e5b565b9201910390612e94565b565b67ffffffffffffffff8111612ef75760208091020190565b6101e7565b90612f0e612f0983612edf565b610226565b918252565b369037565b90612f3d612f2583612efc565b92602080612f338693612edf565b9201910390612f13565b565b67ffffffffffffffff8111612f575760208091020190565b6101e7565b90612f6e612f6983612f3f565b610226565b918252565b369037565b90612f9d612f8583612f5c565b92602080612f938693612f3f565b9201910390612f73565b565b67ffffffffffffffff8111612fb75760208091020190565b6101e7565b90612fce612fc983612f9f565b610226565b918252565b369037565b90612ffd612fe583612fbc565b92602080612ff38693612f9f565b9201910390612fd3565b565b9061300982610dad565b81101561301a576020809102010190565b611190565b9061302982610e6c565b81101561303a576020809102010190565b611190565b90613049906101a3565b9052565b9061305782610ef4565b811015613068576020809102010190565b611190565b90613077906103af565b9052565b9061308582610f7c565b811015613096576020809102010190565b611190565b906130a590610678565b9052565b9998995050505050505050506130bf6000612614565b6130d36130ce60028590611178565b6111a6565b6130dd6000612614565b5b806130f16130eb846103af565b916103af565b101561315a5761313261312d61311c61311661310f60028a90611178565b85906111c0565b50612e4f565b6131286003899061134b565b611363565b61058d565b613145575b61314090612e40565b6130de565b9161315261314091611bb2565b929050613137565b50928392918061316990612eb8565b8161317390612f18565b8261317d90612eb8565b8361318790612f78565b8461319190612eb8565b918561319c90612fd8565b93866131a790612f78565b95876131b290612f78565b976131bc90612f78565b9960006131c890612614565b60006131d390612614565b9d6131e98f6131e3905b926103af565b916103af565b10156133c4578a6132358f61322a61322361321b61321561322f9461321060028990611178565b6111c0565b50612e4f565b94600361134b565b8490611363565b61058d565b15610678565b6133b35760018c61324591610340565b8161324f916103ff565b6132589061178a565b90849083906132678284612fff565b5261327191612fff565b51508060000161328090610430565b858361328b9161301f565b906132959161303f565b80600101869083906132a690612e4f565b6132b08284612fff565b526132ba91612fff565b5150806002016132c990610566565b87836132d49161304d565b906132de9161306d565b80600301889083906132ef90612e4f565b6132f98284612fff565b5261330391612fff565b5150806006016133129061058d565b898361331d9161307b565b906133279161309b565b8060080161333490610566565b8a8361333f9161304d565b906133499161306d565b8060090161335690610566565b8b836133619161304d565b9061336b9161306d565b60050161337790610566565b8c826133829161304d565b9061338c9161306d565b61339590611bb2565b9b6131e96133a66131e39f5b612e40565b9e908f91839f93926131dd565b509b6131e96133a66131e39f6133a1565b5092999398509a509850949194939293565b61342b906133e2612d71565b6133ea612d76565b6133f2612d71565b6133fa612d7b565b613402612d71565b61340a612d80565b91613413612d7b565b9361341c612d7b565b95613425612d7b565b97612d85565b909192939495969798565b61343e6127f1565b50613452600061344c613fc0565b01610430565b90565b613460610120610226565b90565b600090565b600090565b600090565b61347a613455565b90602080808080808080808a61348e613463565b815201613499612e8f565b8152016134a4613468565b8152016134af612e8f565b8152016134ba612e8f565b8152016134c561346d565b8152016134d0613468565b8152016134db613468565b8152016134e6613468565b81525050565b6134f4613472565b90565b93929190809482849661352861352261351d6135156003859061134b565b858c916116b0565b61058d565b15610678565b61353c575050613539949550613610565b90565b906135628892919261354c610183565b938493632e0e1ad560e21b8552600485016116e1565b0390fd5b60207f6c6573746f6e6500000000000000000000000000000000000000000000000000917f4f6e6c79206d696c6573746f6e65206f776e65722063616e2076696577206d6960008201520152565b6135c16027604092610631565b6135ca81613566565b0190565b6135e490602081019060008183039101526135b4565b90565b156135ee57565b6135f6610183565b62461bcd60e51b81528061360c600482016135ce565b0390fd5b6136566136516137179461370d9496613649600595986136423361363c613636846101a3565b916101a3565b146135e7565b6001610340565b91909161177c565b61178a565b61366e61366560008301610430565b6000870161303f565b6001810161367f6020870191612e4f565b905261369961369060028301610566565b6040870161306d565b600381016136aa6060870191612e4f565b9052600481016136bd6080870191612e4f565b90526136d76136ce6006830161058d565b60a0870161309b565b6136ef6136e660088301610566565b60c0870161306d565b6137076136fe60098301610566565b60e0870161306d565b01610566565b610100830161306d565b90565b9061372d92916137286134ec565b6134f7565b90565b6137419061373c613ea2565b613743565b565b8061375f613759613754600061254b565b6101a3565b916101a3565b1461376f5761376d90613ef1565b565b61379461377c600061254b565b6000918291631e4fbdf760e01b835260048301610d2f565b0390fd5b6137a190613730565b565b9493929190336137c26137bc6137b7612a4e565b6101a3565b916101a3565b141580613828575b80613806575b6137df576137dd95613851565b565b6138026137ea613d5e565b600091829163d86ad9cf60e01b835260048301610d2f565b0390fd5b503361382161381b613816613436565b6101a3565b916101a3565b14156137d0565b50613831613d5e565b61384a61384461383f613436565b6101a3565b916101a3565b14156137ca565b95949392919061385f613d5e565b9684869861388261387d6138756003849061134b565b848d916116b0565b61058d565b613895575050613893969750613955565b565b906138bb8a9291926138a5610183565b9384936358c6304560e11b8552600485016116e1565b0390fd5b906138ca9291612108565b565b6138e06138db6138e592612af9565b610309565b6103af565b90565b90565b6138ff6138fa613904926138e8565b610309565b6103af565b90565b61391661391c919392936103af565b926103af565b820180921161392757565b611b9c565b93929061394b60209161395394604088019188830360008a01526116be565b94019061066b565b565b9493929091613a24906139bc613969613d5e565b9361398961398461397c60018890610340565b898b9161177c565b61178a565b926139978660008601612575565b6139a68a8890600187016138bf565b6139b34260028601611c05565b600384016138bf565b6139cb858790600484016138bf565b6139d9600060068301611b7c565b6139ef6139e66000612614565b60098301611c05565b613a056139fc60016138cc565b60088301611c05565b6005613a1d42613a176203f4806138eb565b90613907565b9101611c05565b613a456001613a40613a386003859061134b565b8688916116b0565b611b7c565b613a64613a5c613a5760028490611178565b611fbb565b8486916121f1565b919293613ab1613a9f4296613a997f1cda5b5fd2ad27ed0b771f516ec8f15a77b7623efaf8d8402b775f2e6527eec596610334565b96611c25565b95613aa8610183565b9384938461392c565b0390a3565b90613ac495949392916137a3565b565b613acf90610328565b90565b613adb30613ac6565b613b0d613b077f00000000000000000000000000000000000000000000000000000000000000006101a3565b916101a3565b148015613b38575b613b1b57565b600063703e46dd60e11b815280613b3460048201610926565b0390fd5b50613b41613fe4565b613b73613b6d7f00000000000000000000000000000000000000000000000000000000000000006101a3565b916101a3565b1415613b15565b50613b83613ea2565b565b613b8e90613b7a565b565b613b999061030c565b90565b613ba590613b90565b90565b613bb190610328565b90565b60e01b90565b613bc3816109e3565b03613bca57565b600080fd5b90505190613bdc82613bba565b565b90602082820312613bf857613bf591600001613bcf565b90565b61018e565b9190613c2b6020613c15613c1086613b9c565b613ba8565b6352d1902d90613c23610183565b938492613bb4565b82528180613c3b60048201610926565b03915afa8091600092613ccf575b5015600014613c7f575050906001613c5f57505b565b613c7b906000918291634c9c8ce360e01b835260048301610d2f565b0390fd5b9283613c9a613c94613c8f6119a6565b6109e3565b916109e3565b03613caf57613caa92935061400b565b613c5d565b613ccb846000918291632a87526960e21b8352600483016109f3565b0390fd5b613cf191925060203d8111613cf8575b613ce981836101fd565b810190613bde565b9038613c49565b503d613cdf565b613d0830613ac6565b613d3a613d347f00000000000000000000000000000000000000000000000000000000000000006101a3565b916101a3565b03613d4157565b600063703e46dd60e11b815280613d5a60048201610926565b0390fd5b613d666127f1565b50613d6f61416e565b90565b979295613dbf613e0e9a96613df596613da88c613e079b6001613dc89960059f99613da09060008601612575565b9192016138bf565b613db68c60028b9101611c05565b60038c016138bf565b600489016138bf565b613dd6600160068801611b7c565b613dec613de36000612614565b60098801611c05565b60088601611c05565b613e016203f4806138eb565b90613907565b9101611c05565b565b9190811015613e20576020020190565b611190565b35613e2f816101af565b90565b9291613e3e6000612614565b5b80613e5c613e56613e51868690611fb7565b6103af565b916103af565b1015613e9b57613e9690613e916001613e8c60078901613e86613e8189898891613e10565b613e25565b90611b08565b611b7c565b612e40565b613e3f565b5050509050565b613eaa613436565b613ec3613ebd613eb8613d5e565b6101a3565b916101a3565b03613eca57565b613eed613ed5613d5e565b600091829163118cdaa760e01b835260048301610d2f565b0390fd5b613ef9613fc0565b613f13613f0860008301610430565b916000849101612575565b90613f47613f417f8be0079c531659141344cd1fd0a4f28419497f9722a3daafe3b4186f6b6457e093610334565b91610334565b91613f50610183565b80613f5a81610926565b0390a3565b7ff0c57e16840df040f15088dc2f81fe391c3923bec73e23a9662efc9c229c6a0090565b613f8b6141f7565b565b613f95613f83565b565b613fa890613fa36141f7565b613faa565b565b613fb390614293565b565b613fbe90613f97565b565b7f9016d09d72d40fdae2fd8ceac6b6234c7706214fd39c1cd1e609a0528c19930090565b613fec6127f1565b506140086000614002613ffd6119a6565b61429e565b01610430565b90565b90614015826142a1565b816140407fbc7cd75a20ee27fd9adebab32041f755214dbc6bffa90cc0225b39da2e5c2d3b91610334565b90614049610183565b8061405381610926565b0390a261405f81611828565b61407261406c6000612614565b916103af565b116000146140875761408391614378565b505b565b50506140916142f9565b614085565b5090565b6140a96140af919392936103af565b926103af565b82039182116140ba57565b611b9c565b600080fd5b600080fd5b909392938483116140e95784116140e4576001820201920390565b6140c4565b6140bf565b6bffffffffffffffffffffffff191690565b9061410e6141159183614096565b91356140ee565b9060148110614123575b5090565b614141906bffffffffffffffffffffffff1990601403600802612004565b163861411f565b60601c90565b61415a61415f91614148565b61030c565b90565b61416b9061414e565b90565b6141766127f1565b5061418360003690614096565b61418b6143a8565b61419433611e6f565b806141dc575b6000146141cf576141c16141c7916141cc936141b9600092369261409a565b9080926140c9565b90614100565b614162565b90565b50506141d96143bc565b90565b50816141f06141ea836103af565b916103af565b101561419a565b6142086142026143c9565b15610678565b61420e57565b6000631afcd79f60e31b81528061422760048201610926565b0390fd5b61423c906142376141f7565b61423e565b565b8061425a61425461424f600061254b565b6101a3565b916101a3565b1461426a5761426890613ef1565b565b61428f614277600061254b565b6000918291631e4fbdf760e01b835260048301610d2f565b0390fd5b61429c9061422b565b565b90565b803b6142b66142b06000612614565b916103af565b146142d9576142d79060006142d16142cc6119a6565b61429e565b01612575565b565b6142f5906000918291634c9c8ce360e01b835260048301610d2f565b0390fd5b3461430d6143076000612614565b916103af565b1161431457565b600063b398979f60e01b81528061432d60048201610926565b0390fd5b606090565b9061434861434383610864565b610226565b918252565b3d60001461436a5761435e3d614336565b903d6000602084013e5b565b614372614331565b90614368565b6000806143a593614387614331565b508390602081019051915af49061439c61434d565b909190916143e8565b90565b6143b0612050565b506143b961448f565b90565b6143c46127f1565b503390565b6143d1611657565b506143e560006143df613f5f565b01612a95565b90565b906143fc906143f5614331565b5015610678565b60001461440957506144a5565b61441282611828565b61442561441f6000612614565b916103af565b1480614454575b614434575090565b614450906000918291639996b31560e01b835260048301610d2f565b0390fd5b50803b61446a6144646000612614565b916103af565b1461442c565b90565b61448761448261448c92614470565b610309565b6103af565b90565b614497612050565b506144a26014614473565b90565b6144ae81611828565b6144c16144bb6000612614565b916103af565b116000146144d157805190602001fd5b600063d6bda27560e01b8152806144ea60048201610926565b0390fdfea2646970667358221220c1dc0f945ff9d47b8c955eb10d76031220d4cdee885f4dfa27a429f1a8de2d8764736f6c634300081c0033",
  "linkReferences": {},
  "deployedLinkReferences": {}
}