{
  "_format": "hh-sol-artifact-1",
  "contractName": "MSTToken",
  "sourceName": "contracts/MSTToken.sol",
  "abi": [
    {
      "inputs": [
        {
          "internalType": "address",
          "name": "trustedForwarder",
          "type": "address"
        }
      ],
      "stateMutability": "nonpayable",
      "type": "constructor"
    },
    {
      "inputs": [
        {
          "internalType": "address",
          "name": "target",
          "type": "address"
        }
      ],
      "name": "AddressEmptyCode",
      "type": "error"
    },
    {
      "inputs": [],
      "name": "ECDSAInvalidSignature",
      "type": "error"
    },
    {
      "inputs": [
        {
          "internalType": "uint256",
          "name": "length",
          "type": "uint256"
        }
      ],
      "name": "ECDSAInvalidSignatureLength",
      "type": "error"
    },
    {
      "inputs": [
        {
          "internalType": "bytes32",
          "name": "s",
          "type": "bytes32"
        }
      ],
      "name": "ECDSAInvalidSignatureS",
      "type": "error"
    },
    {
      "inputs": [
        {
          "internalType": "address",
          "name": "implementation",
          "type": "address"
        }
      ],
      "name": "ERC1967InvalidImplementation",
      "type": "error"
    },
    {
      "inputs": [],
      "name": "ERC1967NonPayable",
      "type": "error"
    },
    {
      "inputs": [
        {
          "internalType": "address",
          "name": "spender",
          "type": "address"
        },
        {
          "internalType": "uint256",
          "name": "allowance",
          "type": "uint256"
        },
        {
          "internalType": "uint256",
          "name": "needed",
          "type": "uint256"
        }
      ],
      "name": "ERC20InsufficientAllowance",
      "type": "error"
    },
    {
      "inputs": [
        {
          "internalType": "address",
          "name": "sender",
          "type": "address"
        },
        {
          "internalType": "uint256",
          "name": "balance",
          "type": "uint256"
        },
        {
          "internalType": "uint256",
          "name": "needed",
          "type": "uint256"
        }
      ],
      "name": "ERC20InsufficientBalance",
      "type": "error"
    },
    {
      "inputs": [
        {
          "internalType": "address",
          "name": "approver",
          "type": "address"
        }
      ],
      "name": "ERC20InvalidApprover",
      "type": "error"
    },
    {
      "inputs": [
        {
          "internalType": "address",
          "name": "receiver",
          "type": "address"
        }
      ],
      "name": "ERC20InvalidReceiver",
      "type": "error"
    },
    {
      "inputs": [
        {
          "internalType": "address",
          "name": "sender",
          "type": "address"
        }
      ],
      "name": "ERC20InvalidSender",
      "type": "error"
    },
    {
      "inputs": [
        {
          "internalType": "address",
          "name": "spender",
          "type": "address"
        }
      ],
      "name": "ERC20InvalidSpender",
      "type": "error"
    },
    {
      "inputs": [
        {
          "internalType": "uint256",
          "name": "deadline",
          "type": "uint256"
        }
      ],
      "name": "ERC2612ExpiredSignature",
      "type": "error"
    },
    {
      "inputs": [
        {
          "internalType": "address",
          "name": "signer",
          "type": "address"
        },
        {
          "internalType": "address",
          "name": "owner",
          "type": "address"
        }
      ],
      "name": "ERC2612InvalidSigner",
      "type": "error"
    },
    {
      "inputs": [],
      "name": "FailedCall",
      "type": "error"
    },
    {
      "inputs": [
        {
          "internalType": "address",
          "name": "account",
          "type": "address"
        },
        {
          "internalType": "uint256",
          "name": "currentNonce",
          "type": "uint256"
        }
      ],
      "name": "InvalidAccountNonce",
      "type": "error"
    },
    {
      "inputs": [],
      "name": "InvalidInitialization",
      "type": "error"
    },
    {
      "inputs": [],
      "name": "NotInitializing",
      "type": "error"
    },
    {
      "inputs": [
        {
          "internalType": "address",
          "name": "owner",
          "type": "address"
        }
      ],
      "name": "OwnableInvalidOwner",
      "type": "error"
    },
    {
      "inputs": [
        {
          "internalType": "address",
          "name": "account",
          "type": "address"
        }
      ],
      "name": "OwnableUnauthorizedAccount",
      "type": "error"
    },
    {
      "inputs": [],
      "name": "UUPSUnauthorizedCallContext",
      "type": "error"
    },
    {
      "inputs": [
        {
          "internalType": "bytes32",
          "name": "slot",
          "type": "bytes32"
        }
      ],
      "name": "UUPSUnsupportedProxiableUUID",
      "type": "error"
    },
    {
      "anonymous": false,
      "inputs": [
        {
          "indexed": true,
          "internalType": "address",
          "name": "owner",
          "type": "address"
        },
        {
          "indexed": true,
          "internalType": "address",
          "name": "spender",
          "type": "address"
        },
        {
          "indexed": false,
          "internalType": "uint256",
          "name": "value",
          "type": "uint256"
        }
      ],
      "name": "Approval",
      "type": "event"
    },
    {
      "anonymous": false,
      "inputs": [],
      "name": "EIP712DomainChanged",
      "type": "event"
    },
    {
      "anonymous": false,
      "inputs": [
        {
          "indexed": false,
          "internalType": "uint64",
          "name": "version",
          "type": "uint64"
        }
      ],
      "name": "Initialized",
      "type": "event"
    },
    {
      "anonymous": false,
      "inputs": [
        {
          "indexed": true,
          "internalType": "address",
          "name": "previousOwner",
          "type": "address"
        },
        {
          "indexed": true,
          "internalType": "address",
          "name": "newOwner",
          "type": "address"
        }
      ],
      "name": "OwnershipTransferred",
      "type": "event"
    },
    {
      "anonymous": false,
      "inputs": [
        {
          "indexed": true,
          "internalType": "address",
          "name": "from",
          "type": "address"
        },
        {
          "indexed": true,
          "internalType": "address",
          "name": "to",
          "type": "address"
        },
        {
          "indexed": false,
          "internalType": "uint256",
          "name": "value",
          "type": "uint256"
        }
      ],
      "name": "Transfer",
      "type": "event"
    },
    {
      "anonymous": false,
      "inputs": [
        {
          "indexed": true,
          "internalType": "address",
          "name": "implementation",
          "type": "address"
        }
      ],
      "name": "Upgraded",
      "type": "event"
    },
    {
      "inputs": [],
      "name": "DOMAIN_SEPARATOR",
      "outputs": [
        {
          "internalType": "bytes32",
          "name": "",
          "type": "bytes32"
        }
      ],
      "stateMutability": "view",
      "type": "function"
    },
    {
      "inputs": [],
      "name": "MST_TIER1_COST",
      "outputs": [
        {
          "internalType": "uint256",
          "name": "",
          "type": "uint256"
        }
      ],
      "stateMutability": "view",
      "type": "function"
    },
    {
      "inputs": [],
      "name": "MST_TIER2_COST",
      "outputs": [
        {
          "internalType": "uint256",
          "name": "",
          "type": "uint256"
        }
      ],
      "stateMutability": "view",
      "type": "function"
    },
    {
      "inputs": [],
      "name": "RESET_INTERVAL",
      "outputs": [
        {
          "internalType": "uint256",
          "name": "",
          "type": "uint256"
        }
      ],
      "stateMutability": "view",
      "type": "function"
    },
    {
      "inputs": [],
      "name": "UPGRADE_INTERFACE_VERSION",
      "outputs": [
        {
          "internalType": "string",
          "name": "",
          "type": "string"
        }
      ],
      "stateMutability": "view",
      "type": "function"
    },
    {
      "inputs": [
        {
          "internalType": "address",
          "name": "owner",
          "type": "address"
        },
        {
          "internalType": "address",
          "name": "spender",
          "type": "address"
        }
      ],
      "name": "allowance",
      "outputs": [
        {
          "internalType": "uint256",
          "name": "",
          "type": "uint256"
        }
      ],
      "stateMutability": "view",
      "type": "function"
    },
    {
      "inputs": [
        {
          "internalType": "address",
          "name": "spender",
          "type": "address"
        },
        {
          "internalType": "uint256",
          "name": "value",
          "type": "uint256"
        }
      ],
      "name": "approve",
      "outputs": [
        {
          "internalType": "bool",
          "name": "",
          "type": "bool"
        }
      ],
      "stateMutability": "nonpayable",
      "type": "function"
    },
    {
      "inputs": [
        {
          "internalType": "address",
          "name": "account",
          "type": "address"
        }
      ],
      "name": "balanceOf",
      "outputs": [
        {
          "internalType": "uint256",
          "name": "",
          "type": "uint256"
        }
      ],
      "stateMutability": "view",
      "type": "function"
    },
    {
      "inputs": [
        {
          "internalType": "address",
          "name": "user",
          "type": "address"
        }
      ],
      "name": "canWrite",
      "outputs": [
        {
          "internalType": "bool",
          "name": "",
          "type": "bool"
        }
      ],
      "stateMutability": "view",
      "type": "function"
    },
    {
      "inputs": [],
      "name": "decimals",
      "outputs": [
        {
          "internalType": "uint8",
          "name": "",
          "type": "uint8"
        }
      ],
      "stateMutability": "view",
      "type": "function"
    },
    {
      "inputs": [],
      "name": "eip712Domain",
      "outputs": [
        {
          "internalType": "bytes1",
          "name": "fields",
          "type": "bytes1"
        },
        {
          "internalType": "string",
          "name": "name",
          "type": "string"
        },
        {
          "internalType": "string",
          "name": "version",
          "type": "string"
        },
        {
          "internalType": "uint256",
          "name": "chainId",
          "type": "uint256"
        },
        {
          "internalType": "address",
          "name": "verifyingContract",
          "type": "address"
        },
        {
          "internalType": "bytes32",
          "name": "salt",
          "type": "bytes32"
        },
        {
          "internalType": "uint256[]",
          "name": "extensions",
          "type": "uint256[]"
        }
      ],
      "stateMutability": "view",
      "type": "function"
    },
    {
      "inputs": [
        {
          "internalType": "address",
          "name": "",
          "type": "address"
        }
      ],
      "name": "hasMinted",
      "outputs": [
        {
          "internalType": "bool",
          "name": "",
          "type": "bool"
        }
      ],
      "stateMutability": "view",
      "type": "function"
    },
    {
      "inputs": [],
      "name": "initialize",
      "outputs": [],
      "stateMutability": "nonpayable",
      "type": "function"
    },
    {
      "inputs": [
        {
          "internalType": "address",
          "name": "forwarder",
          "type": "address"
        }
      ],
      "name": "isTrustedForwarder",
      "outputs": [
        {
          "internalType": "bool",
          "name": "",
          "type": "bool"
        }
      ],
      "stateMutability": "view",
      "type": "function"
    },
    {
      "inputs": [
        {
          "internalType": "address",
          "name": "to",
          "type": "address"
        },
        {
          "internalType": "uint256",
          "name": "amount",
          "type": "uint256"
        }
      ],
      "name": "mint",
      "outputs": [],
      "stateMutability": "nonpayable",
      "type": "function"
    },
    {
      "inputs": [],
      "name": "mintedUsersCount",
      "outputs": [
        {
          "internalType": "uint256",
          "name": "",
          "type": "uint256"
        }
      ],
      "stateMutability": "view",
      "type": "function"
    },
    {
      "inputs": [],
      "name": "name",
      "outputs": [
        {
          "internalType": "string",
          "name": "",
          "type": "string"
        }
      ],
      "stateMutability": "view",
      "type": "function"
    },
    {
      "inputs": [
        {
          "internalType": "address",
          "name": "owner",
          "type": "address"
        }
      ],
      "name": "nonces",
      "outputs": [
        {
          "internalType": "uint256",
          "name": "",
          "type": "uint256"
        }
      ],
      "stateMutability": "view",
      "type": "function"
    },
    {
      "inputs": [],
      "name": "owner",
      "outputs": [
        {
          "internalType": "address",
          "name": "",
          "type": "address"
        }
      ],
      "stateMutability": "view",
      "type": "function"
    },
    {
      "inputs": [
        {
          "internalType": "address",
          "name": "owner",
          "type": "address"
        },
        {
          "internalType": "address",
          "name": "spender",
          "type": "address"
        },
        {
          "internalType": "uint256",
          "name": "value",
          "type": "uint256"
        },
        {
          "internalType": "uint256",
          "name": "deadline",
          "type": "uint256"
        },
        {
          "internalType": "uint8",
          "name": "v",
          "type": "uint8"
        },
        {
          "internalType": "bytes32",
          "name": "r",
          "type": "bytes32"
        },
        {
          "internalType": "bytes32",
          "name": "s",
          "type": "bytes32"
        }
      ],
      "name": "permit",
      "outputs": [],
      "stateMutability": "nonpayable",
      "type": "function"
    },
    {
      "inputs": [],
      "name": "proxiableUUID",
      "outputs": [
        {
          "internalType": "bytes32",
          "name": "",
          "type": "bytes32"
        }
      ],
      "stateMutability": "view",
      "type": "function"
    },
    {
      "inputs": [
        {
          "internalType": "address",
          "name": "user",
          "type": "address"
        }
      ],
      "name": "recordWrite",
      "outputs": [],
      "stateMutability": "nonpayable",
      "type": "function"
    },
    {
      "inputs": [],
      "name": "renounceOwnership",
      "outputs": [],
      "stateMutability": "nonpayable",
      "type": "function"
    },
    {
      "inputs": [
        {
          "internalType": "enum MSTToken.Tier",
          "name": "_tier",
          "type": "uint8"
        }
      ],
      "name": "subscribe",
      "outputs": [],
      "stateMutability": "nonpayable",
      "type": "function"
    },
    {
      "inputs": [
        {
          "internalType": "address",
          "name": "",
          "type": "address"
        }
      ],
      "name": "subscriptions",
      "outputs": [
        {
          "internalType": "enum MSTToken.Tier",
          "name": "tier",
          "type": "uint8"
        },
        {
          "internalType": "uint256",
          "name": "writesUsed",
          "type": "uint256"
        },
        {
          "internalType": "uint256",
          "name": "readsUsed",
          "type": "uint256"
        },
        {
          "internalType": "uint256",
          "name": "lastReset",
          "type": "uint256"
        }
      ],
      "stateMutability": "view",
      "type": "function"
    },
    {
      "inputs": [],
      "name": "symbol",
      "outputs": [
        {
          "internalType": "string",
          "name": "",
          "type": "string"
        }
      ],
      "stateMutability": "view",
      "type": "function"
    },
    {
      "inputs": [
        {
          "internalType": "address",
          "name": "to",
          "type": "address"
        },
        {
          "internalType": "uint256",
          "name": "amount",
          "type": "uint256"
        }
      ],
      "name": "topUp",
      "outputs": [],
      "stateMutability": "nonpayable",
      "type": "function"
    },
    {
      "inputs": [],
      "name": "totalSupply",
      "outputs": [
        {
          "internalType": "uint256",
          "name": "",
          "type": "uint256"
        }
      ],
      "stateMutability": "view",
      "type": "function"
    },
    {
      "inputs": [
        {
          "internalType": "address",
          "name": "to",
          "type": "address"
        },
        {
          "internalType": "uint256",
          "name": "value",
          "type": "uint256"
        }
      ],
      "name": "transfer",
      "outputs": [
        {
          "internalType": "bool",
          "name": "",
          "type": "bool"
        }
      ],
      "stateMutability": "nonpayable",
      "type": "function"
    },
    {
      "inputs": [
        {
          "internalType": "address",
          "name": "from",
          "type": "address"
        },
        {
          "internalType": "address",
          "name": "to",
          "type": "address"
        },
        {
          "internalType": "uint256",
          "name": "value",
          "type": "uint256"
        }
      ],
      "name": "transferFrom",
      "outputs": [
        {
          "internalType": "bool",
          "name": "",
          "type": "bool"
        }
      ],
      "stateMutability": "nonpayable",
      "type": "function"
    },
    {
      "inputs": [
        {
          "internalType": "address",
          "name": "newOwner",
          "type": "address"
        }
      ],
      "name": "transferOwnership",
      "outputs": [],
      "stateMutability": "nonpayable",
      "type": "function"
    },
    {
      "inputs": [],
      "name": "trustedForwarder",
      "outputs": [
        {
          "internalType": "address",
          "name": "",
          "type": "address"
        }
      ],
      "stateMutability": "view",
      "type": "function"
    },
    {
      "inputs": [
        {
          "internalType": "address",
          "name": "newImplementation",
          "type": "address"
        },
        {
          "internalType": "bytes",
          "name": "data",
          "type": "bytes"
        }
      ],
      "name": "upgradeToAndCall",
      "outputs": [],
      "stateMutability": "payable",
      "type": "function"
    },
    {
      "inputs": [
        {
          "internalType": "address",
          "name": "to",
          "type": "address"
        },
        {
          "internalType": "uint256",
          "name": "amount",
          "type": "uint256"
        }
      ],
      "name": "withdrawMST",
      "outputs": [],
      "stateMutability": "nonpayable",
      "type": "function"
    }
  ],
  "bytecode": "0x60c06040523461004f5761001961001461011a565b61013b565b610021610054565b6140fa610380823960805181611dfa015260a051818181612b9f01528181612c050152612dc801526140fa90f35b61005a565b60405190565b600080fd5b601f801991011690565b634e487b7160e01b600052604160045260246000fd5b906100899061005f565b810190811060018060401b038211176100a157604052565b610069565b906100b96100b2610054565b928361007f565b565b600080fd5b60018060a01b031690565b6100d4906100c0565b90565b6100e0816100cb565b036100e757565b600080fd5b905051906100f9826100d7565b565b9060208282031261011557610112916000016100ec565b90565b6100bb565b61013861447a8038038061012d816100a6565b9283398101906100fb565b90565b61014490610185565b61014c61029f565b565b90565b61016561016061016a926100c0565b61014e565b6100c0565b90565b61017690610151565b90565b6101829061016d565b90565b61018e9061019c565b61019730610179565b60a052565b6101a5906101a7565b565b608052565b60401c90565b60ff1690565b6101c46101c9916101ac565b6101b2565b90565b6101d690546101b8565b90565b60000190565b60001c90565b60018060401b031690565b6101fc610201916101df565b6101e5565b90565b61020e90546101f0565b90565b60018060401b031690565b60001b90565b9061023360018060401b039161021c565b9181191691161790565b61025161024c61025692610211565b61014e565b610211565b90565b90565b9061027161026c6102789261023d565b610259565b8254610222565b9055565b61028590610211565b9052565b919061029d9060006020850194019061027c565b565b6102a761035b565b6102b3600082016101cc565b61033e576102c360008201610204565b6102db6102d560018060401b03610211565b91610211565b036102e4575b50565b6102f890600060018060401b03910161025c565b60018060401b036103357fc7f505b2f371ae2175ee4913f4499e1f2633a7b5936321eed1cdaeb6115181d29161032c610054565b91829182610289565b0390a1386102e1565b600063f92ee8a960e01b815280610357600482016101d9565b0390fd5b7ff0c57e16840df040f15088dc2f81fe391c3923bec73e23a9662efc9c229c6a009056fe60806040526004361015610013575b61125a565b61001e60003561023d565b806306fdde0314610238578063095ea7b31461023357806318160ddd1461022e57806323b872dd146102295780632e6c156d14610224578063313ce5671461021f5780633239b71b1461021a5780633644e5151461021557806338e21cce1461021057806340c10f191461020b57806349c7e639146102065780634f1ef2861461020157806352d1902d146101fc578063572b6c05146101f757806364113134146101f257806370a08231146101ed578063715018a6146101e857806371980573146101e35780637be84569146101de5780637da0a877146101d95780637ecebe00146101d45780638129fc1c146101cf57806384b0196e146101ca5780638da5cb5b146101c557806395d89b41146101c0578063a9059cbb146101bb578063ad3cb1cc146101b6578063d505accf146101b1578063d6f7ddf9146101ac578063d96f3b83146101a7578063dd62ed3e146101a2578063f046395a1461019d578063f2fde38b146101985763f6d4f3450361000e57611227565b6111f4565b6111bb565b611055565b610ff2565b610f7f565b610f45565b610e57565b610d85565b610d50565b610d1b565b610cdf565b610b98565b610b63565b610b2e565b610ad6565b610a62565b6109f6565b6109c1565b61098c565b61091e565b6108e9565b6108bf565b610760565b6106ef565b6106ba565b6105ec565b610591565b61053d565b6104e0565b6104a4565b610434565b6103db565b6102e9565b60e01c90565b60405190565b600080fd5b600080fd5b600091031261025e57565b61024e565b5190565b60209181520190565b60005b838110610284575050906000910152565b806020918301518185015201610273565b601f801991011690565b6102be6102c76020936102cc936102b581610263565b93848093610267565b95869101610270565b610295565b0190565b6102e6916020820191600081840391015261029f565b90565b34610319576102f9366004610253565b610315610304611382565b61030c610243565b918291826102d0565b0390f35b610249565b600080fd5b60018060a01b031690565b61033790610323565b90565b6103438161032e565b0361034a57565b600080fd5b9050359061035c8261033a565b565b90565b61036a8161035e565b0361037157565b600080fd5b9050359061038382610361565b565b91906040838203126103ae57806103a26103ab926000860161034f565b93602001610376565b90565b61024e565b151590565b6103c1906103b3565b9052565b91906103d9906000602085019401906103b8565b565b3461040c576104086103f76103f1366004610385565b906113a6565b6103ff610243565b918291826103c5565b0390f35b610249565b61041a9061035e565b9052565b919061043290600060208501940190610411565b565b3461046457610444366004610253565b61046061044f6113cd565b610457610243565b9182918261041e565b0390f35b610249565b909160608284031261049f5761049c610485846000850161034f565b93610493816020860161034f565b93604001610376565b90565b61024e565b346104d5576104d16104c06104ba366004610469565b916113ec565b6104c8610243565b918291826103c5565b0390f35b610249565b60000190565b3461050f576104f96104f3366004610385565b90611503565b610501610243565b8061050b816104da565b0390f35b610249565b60ff1690565b61052390610514565b9052565b919061053b9060006020850194019061051a565b565b3461056d5761054d366004610253565b610569610558611533565b610560610243565b91829182610527565b0390f35b610249565b9060208282031261058c576105899160000161034f565b90565b61024e565b346105c1576105bd6105ac6105a7366004610572565b61158a565b6105b4610243565b918291826103c5565b0390f35b610249565b90565b6105d2906105c6565b9052565b91906105ea906000602085019401906105c9565b565b3461061c576105fc366004610253565b61061861060761163f565b61060f610243565b918291826105d6565b0390f35b610249565b90565b61063861063361063d92610323565b610621565b610323565b90565b61064990610624565b90565b61065590610640565b90565b906106629061064c565b600052602052604060002090565b1c90565b60ff1690565b61068a90600861068f9302610670565b610674565b90565b9061069d915461067a565b90565b6106b7906106b2600291600092610658565b610692565b90565b346106ea576106e66106d56106d0366004610572565b6106a0565b6106dd610243565b918291826103c5565b0390f35b610249565b3461071e57610708610702366004610385565b9061190c565b610710610243565b8061071a816104da565b0390f35b610249565b6003111561072d57565b600080fd5b9050359061073f82610723565b565b9060208282031261075b5761075891600001610732565b90565b61024e565b3461078e57610778610773366004610741565b611b4a565b610780610243565b8061078a816104da565b0390f35b610249565b600080fd5b600080fd5b634e487b7160e01b600052604160045260246000fd5b906107bd90610295565b810190811067ffffffffffffffff8211176107d757604052565b61079d565b906107ef6107e8610243565b92836107b3565b565b67ffffffffffffffff811161080f5761080b602091610295565b0190565b61079d565b90826000939282370152565b90929192610835610830826107f1565b6107dc565b938185526020850190828401116108515761084f92610814565b565b610798565b9080601f830112156108745781602061087193359101610820565b90565b610793565b9190916040818403126108ba57610893836000830161034f565b92602082013567ffffffffffffffff81116108b5576108b29201610856565b90565b61031e565b61024e565b6108d36108cd366004610879565b90611ca2565b6108db610243565b806108e5816104da565b0390f35b34610919576108f9366004610253565b610915610904611d19565b61090c610243565b918291826105d6565b0390f35b610249565b3461094e5761094a610939610934366004610572565b611d2c565b610941610243565b918291826103c5565b0390f35b610249565b90565b61096690600861096b9302610670565b610953565b90565b906109799154610956565b90565b610989600160009061096e565b90565b346109bc5761099c366004610253565b6109b86109a761097c565b6109af610243565b9182918261041e565b0390f35b610249565b346109f1576109ed6109dc6109d7366004610572565b611d6a565b6109e4610243565b9182918261041e565b0390f35b610249565b34610a2457610a06366004610253565b610a0e611de0565b610a16610243565b80610a20816104da565b0390f35b610249565b90565b610a40610a3b610a4592610a29565b610621565b61035e565b90565b610a5462278d00610a2c565b90565b610a5f610a48565b90565b34610a9257610a72366004610253565b610a8e610a7d610a57565b610a85610243565b9182918261041e565b0390f35b610249565b90565b610aae610aa9610ab392610a97565b610621565b61035e565b90565b610ac8681b1ae4d6e2ef500000610a9a565b90565b610ad3610ab6565b90565b34610b0657610ae6366004610253565b610b02610af1610acb565b610af9610243565b9182918261041e565b0390f35b610249565b610b149061032e565b9052565b9190610b2c90600060208501940190610b0b565b565b34610b5e57610b3e366004610253565b610b5a610b49611def565b610b51610243565b91829182610b18565b0390f35b610249565b34610b9357610b8f610b7e610b79366004610572565b611e1c565b610b86610243565b9182918261041e565b0390f35b610249565b34610bc657610ba8366004610253565b610bb0612216565b610bb8610243565b80610bc2816104da565b0390f35b610249565b60ff60f81b1690565b610bdd90610bcb565b9052565b5190565b60209181520190565b60200190565b610bfd9061035e565b9052565b90610c0e81602093610bf4565b0190565b60200190565b90610c35610c2f610c2884610be1565b8093610be5565b92610bee565b9060005b818110610c465750505090565b909192610c5f610c596001928651610c01565b94610c12565b9101919091610c39565b93959194610cbb610cb0610ccf95610ca2610cc595610cdc9c9a610c9560e08c019260008d0190610bd4565b8a820360208c015261029f565b9088820360408a015261029f565b976060870190610411565b6080850190610b0b565b60a08301906105c9565b60c0818403910152610c18565b90565b34610d1657610cef366004610253565b610d12610cfa612362565b93610d09979597939193610243565b97889788610c69565b0390f35b610249565b34610d4b57610d2b366004610253565b610d47610d36612479565b610d3e610243565b91829182610b18565b0390f35b610249565b34610d8057610d60366004610253565b610d7c610d6b612498565b610d73610243565b918291826102d0565b0390f35b610249565b34610db657610db2610da1610d9b366004610385565b906124b7565b610da9610243565b918291826103c5565b0390f35b610249565b67ffffffffffffffff8111610dd957610dd5602091610295565b0190565b61079d565b90610df0610deb83610dbb565b6107dc565b918252565b60007f352e302e30000000000000000000000000000000000000000000000000000000910152565b610e276005610dde565b90610e3460208301610df5565b565b610e3e610e1d565b90565b610e49610e36565b90565b610e54610e41565b90565b34610e8757610e67366004610253565b610e83610e72610e4c565b610e7a610243565b918291826102d0565b0390f35b610249565b610e9581610514565b03610e9c57565b600080fd5b90503590610eae82610e8c565b565b610eb9816105c6565b03610ec057565b600080fd5b90503590610ed282610eb0565b565b60e081830312610f4057610eeb826000830161034f565b92610ef9836020840161034f565b92610f078160408501610376565b92610f158260608301610376565b92610f3d610f268460808501610ea1565b93610f348160a08601610ec5565b9360c001610ec5565b90565b61024e565b34610f7a57610f64610f58366004610ed4565b95949094939193612587565b610f6c610243565b80610f76816104da565b0390f35b610249565b34610fae57610f98610f92366004610385565b9061269d565b610fa0610243565b80610faa816104da565b0390f35b610249565b90565b610fca610fc5610fcf92610fb3565b610621565b61035e565b90565b610fe468056bc75e2d63100000610fb6565b90565b610fef610fd2565b90565b3461102257611002366004610253565b61101e61100d610fe7565b611015610243565b9182918261041e565b0390f35b610249565b9190604083820312611050578061104461104d926000860161034f565b9360200161034f565b90565b61024e565b346110865761108261107161106b366004611027565b906126c1565b611079610243565b9182918261041e565b0390f35b610249565b906110959061064c565b600052602052604060002090565b60001c90565b60ff1690565b6110bb6110c0916110a3565b6110a9565b90565b6110cd90546110af565b90565b6110dc6110e1916110a3565b610953565b90565b6110ee90546110d0565b90565b6110fc90600061108b565b90611109600083016110c3565b91611116600182016110e4565b9161112f6003611128600285016110e4565b93016110e4565b90565b634e487b7160e01b600052602160045260246000fd5b6003111561115257565b611132565b9061116182611148565b565b61116c90611157565b90565b61117890611163565b9052565b6111b26111b9946111a860609498979561119e608086019a600087019061116f565b6020850190610411565b6040830190610411565b0190610411565b565b346111ef576111eb6111d66111d1366004610572565b6110f1565b906111e2949294610243565b9485948561117c565b0390f35b610249565b346112225761120c611207366004610572565b61275a565b611214610243565b8061121e816104da565b0390f35b610249565b346112555761123f61123a366004610572565b6128f7565b611247610243565b80611251816104da565b0390f35b610249565b600080fd5b606090565b634e487b7160e01b600052602260045260246000fd5b906001600283049216801561129a575b602083101461129557565b611264565b91607f169161128a565b60209181520190565b600052602060002090565b90600092918054906112d36112cc8361127a565b80946112a4565b9160018116908160001461132c57506001146112ef575b505050565b6112fc91929394506112ad565b916000925b81841061131457505001903880806112ea565b60018160209295939554848601520191019290611301565b92949550505060ff19168252151560200201903880806112ea565b90611351916112b8565b90565b9061137461136d92611364610243565b93848092611347565b03836107b3565b565b61137f90611354565b90565b61138a61125f565b5061139e6003611398612902565b01611376565b90565b600090565b6113c3916113b26113a1565b506113bb612926565b91909161293a565b600190565b600090565b6113d56113c8565b506113e960026113e3612902565b016110e4565b90565b91611416926113f96113a1565b5061140e611405612926565b8290849161298b565b919091612a1a565b600190565b9061142d91611428612abd565b6114bf565b565b61143890610640565b90565b60007f496e73756666696369656e74204d535400000000000000000000000000000000910152565b6114706010602092610267565b6114798161143b565b0190565b6114939060208101906000818303910152611463565b90565b1561149d57565b6114a5610243565b62461bcd60e51b8152806114bb6004820161147d565b0390fd5b611501916114f06114d76114d23061142f565b611d6a565b6114e96114e38461035e565b9161035e565b1015611496565b6114f93061142f565b919091612a1a565b565b9061150d9161141b565b565b600090565b90565b61152b61152661153092611514565b610621565b610514565b90565b61153b61150f565b506115466012611517565b90565b90565b90565b61156361155e6115689261154c565b610621565b61035e565b90565b90565b61158261157d6115879261156b565b610621565b61035e565b90565b6115a16115a6916115996113a1565b50600061108b565b611549565b6115b2600082016110c3565b6115c56115bf6000611157565b91611157565b14611617576115d6600082016110c3565b6115e96115e36001611157565b91611157565b146115f45750600190565b600161160091016110e4565b61161361160d603261156e565b9161035e565b1090565b600161162391016110e4565b611636611630600561154f565b9161035e565b1090565b600090565b61164761163a565b50611650612b0c565b90565b9061166591611660612abd565b611883565b565b611673611678916110a3565b610674565b90565b6116859054611667565b90565b60007f5573657220616c7265616479206d696e74656400000000000000000000000000910152565b6116bd6013602092610267565b6116c681611688565b0190565b6116e090602081019060008183039101526116b0565b90565b156116ea57565b6116f2610243565b62461bcd60e51b815280611708600482016116ca565b0390fd5b90565b61172361171e6117289261170c565b610621565b61035e565b90565b60007f4d696e74206c696d697420726561636865640000000000000000000000000000910152565b6117606012602092610267565b6117698161172b565b0190565b6117839060208101906000818303910152611753565b90565b1561178d57565b611795610243565b62461bcd60e51b8152806117ab6004820161176d565b0390fd5b60001b90565b906117c160ff916117af565b9181191691161790565b6117d4906103b3565b90565b90565b906117ef6117ea6117f6926117cb565b6117d7565b82546117b5565b9055565b634e487b7160e01b600052601160045260246000fd5b6118199061035e565b60001981146118285760010190565b6117fa565b9061183a600019916117af565b9181191691161790565b61185861185361185d9261035e565b610621565b61035e565b90565b90565b9061187861187361187f92611844565b611860565b825461182d565b9055565b9061190a916118ad6118a86118a261189d60028590610658565b61167b565b156103b3565b6116e3565b6118d36118ba60016110e4565b6118cd6118c7606461170f565b9161035e565b10611786565b6118e960016118e460028490610658565b6117da565b6119056118fe6118f960016110e4565b611810565b6001611863565b612b20565b565b9061191691611653565b565b60007f496e76616c696420746965720000000000000000000000000000000000000000910152565b61194d600c602092610267565b61195681611918565b0190565b6119709060208101906000818303910152611940565b90565b1561197a57565b611982610243565b62461bcd60e51b8152806119986004820161195a565b0390fd5b60207f6e20746965720000000000000000000000000000000000000000000000000000917f496e73756666696369656e74204d535420666f7220737562736372697074696f60008201520152565b6119f76026604092610267565b611a008161199c565b0190565b611a1a90602081019060008183039101526119ea565b90565b15611a2457565b611a2c610243565b62461bcd60e51b815280611a4260048201611a04565b0390fd5b611a5060806107dc565b90565b90611a5d90611157565b9052565b90565b611a78611a73611a7d92611a61565b610621565b61035e565b90565b90611a8a9061035e565b9052565b611a989051611157565b90565b611aa490611157565b90565b90565b90611abf611aba611ac692611a9b565b611aa7565b82546117b5565b9055565b611ad4905161035e565b90565b90611b3660606003611b3c94611afc60008201611af660008801611a8e565b90611aaa565b611b1560018201611b0f60208801611aca565b90611863565b611b2e60028201611b2860408801611aca565b90611863565b019201611aca565b90611863565b565b90611b4891611ad7565b565b611c479080611b62611b5c6001611157565b91611157565b148015611c59575b611b7390611973565b80611b87611b816001611157565b91611157565b14600014611c4957611be0611b9a610fd2565b5b611bc7611bae611ba9612926565b611d6a565b611bc0611bba8461035e565b9161035e565b1015611a1d565b611bcf612926565b90611bd93061142f565b9091612a1a565b611c2f6000611c26611c1d6000611c18611c0f4295611c0a611c00611a46565b9960008b01611a53565b611a64565b60208801611a80565b611a64565b60408501611a80565b60608301611a80565b611c426000611c3c612926565b9061108b565b611b3e565b565b611be0611c54610ab6565b611b9b565b50611b7381611c71611c6b6002611157565b91611157565b149050611b6a565b90611c8b91611c86612b8e565b611c8d565b565b90611ca091611c9b81612c41565b612cb5565b565b90611cac91611c79565b565b611cbf90611cba612db7565b611d0d565b90565b90565b611cd9611cd4611cde92611cc2565b6117af565b6105c6565b90565b611d0a7f360894a13ba1a3210667c828492db98dca3e2076cc3735a920a3ca505d382bbc611cc5565b90565b50611d16611ce1565b90565b611d29611d2461163a565b611cae565b90565b611d346113a1565b50611d4e611d48611d43611def565b61032e565b9161032e565b1490565b90611d5c9061064c565b600052602052604060002090565b611d8a611d8f91611d796113c8565b506000611d84612902565b01611d52565b6110e4565b90565b611d9a612abd565b611da2611dcc565b565b611db8611db3611dbd92611a61565b610621565b610323565b90565b611dc990611da4565b90565b611dde611dd96000611dc0565b612e54565b565b611de8611d92565b565b600090565b611df7611dea565b507f000000000000000000000000000000000000000000000000000000000000000090565b611e2e90611e286113c8565b50612ec2565b90565b60401c90565b611e43611e4891611e31565b610674565b90565b611e559054611e37565b90565b67ffffffffffffffff1690565b611e71611e76916110a3565b611e58565b90565b611e839054611e65565b90565b67ffffffffffffffff1690565b611ea7611ea2611eac92611a61565b610621565b611e86565b90565b90565b611ec6611ec1611ecb92611eaf565b610621565b611e86565b90565b611ed790610640565b90565b90611eed67ffffffffffffffff916117af565b9181191691161790565b611f0b611f06611f1092611e86565b610621565b611e86565b90565b90565b90611f2b611f26611f3292611ef7565b611f13565b8254611eda565b9055565b60401b90565b90611f5068ff000000000000000091611f36565b9181191691161790565b90611f6f611f6a611f76926117cb565b6117d7565b8254611f3c565b9055565b611f8390611eb2565b9052565b9190611f9b90600060208501940190611f7a565b565b611fa5612eea565b611fba611fb460008301611e4b565b156103b3565b611fc660008301611e79565b80611fda611fd46000611e93565b91611e86565b14806120f8575b90611ff5611fef6001611eb2565b91611e86565b14806120cf575b6120079091156103b3565b90816120be575b506120a1576120296120206001611eb2565b60008401611f16565b8061208e575b6120376121b6565b61203f575b50565b61204d906000809101611f5a565b60016120857fc7f505b2f371ae2175ee4913f4499e1f2633a7b5936321eed1cdaeb6115181d29161207c610243565b91829182611f87565b0390a13861203c565b61209c600160008401611f5a565b61202f565b600063f92ee8a960e01b8152806120ba600482016104da565b0390fd5b6120c99150156103b3565b3861200e565b506120076120dc30611ece565b3b6120f06120ea6000611a64565b9161035e565b149050611ffc565b5081611fe1565b60007f4d696c6573746f6e6520546f6b656e0000000000000000000000000000000000910152565b612131600f610dde565b9061213e602083016120ff565b565b612148612127565b90565b60007f4d53540000000000000000000000000000000000000000000000000000000000910152565b61217d6003610dde565b9061218a6020830161214b565b565b612194612173565b90565b90565b6121ae6121a96121b392612197565b610621565b61035e565b90565b6121cf6121c1612140565b6121c961218c565b90612f2e565b6121df6121da612140565b612fad565b6121e833612fd6565b6121f0612feb565b6122146121fb612926565b61220e69d3c21bcecceda100000061219a565b90612b20565b565b61221e611f9d565b565b600090565b606090565b90565b61223961223e916110a3565b61222a565b90565b61224b905461222d565b90565b61226261225d61226792611a61565b6117af565b6105c6565b90565b60007f4549503731323a20556e696e697469616c697a65640000000000000000000000910152565b61229f6015602092610267565b6122a88161226a565b0190565b6122c29060208101906000818303910152612292565b90565b156122cc57565b6122d4610243565b62461bcd60e51b8152806122ea600482016122ac565b0390fd5b6122f790610640565b90565b67ffffffffffffffff81116123125760208091020190565b61079d565b90612329612324836122fa565b6107dc565b918252565b369037565b9061235861234083612317565b9260208061234e86936122fa565b920191039061232e565b565b600f60f81b90565b61236a612220565b5061237361125f565b5061237c61125f565b506123856113c8565b5061238e611dea565b5061239761163a565b506123a0612225565b506123d96123ac612ff5565b6123b860008201612241565b6123cb6123c5600061224e565b916105c6565b149081612426575b506122c5565b6123e1613019565b906123ea613038565b9046906123f6306122ee565b90612401600061224e565b9061241461240f6000611a64565b612333565b9061241d61235a565b96959493929190565b6124339150600101612241565b612446612440600061224e565b916105c6565b14386123d3565b60018060a01b031690565b612464612469916110a3565b61244d565b90565b6124769054612458565b90565b612481611dea565b50612495600061248f613057565b0161246c565b90565b6124a061125f565b506124b460046124ae612902565b01611376565b90565b6124d4916124c36113a1565b506124cc612926565b919091612a1a565b600190565b7f6e71edae12b1b97f4d1f60370fef10105fa2faae0126114a169c64845d6126c990565b91946125466125509298979561253c60a0966125326125579a61252860c08a019e60008b01906105c9565b6020890190610b0b565b6040870190610b0b565b6060850190610411565b6080830190610411565b0190610411565b565b60200190565b5190565b91602061258592949361257e60408201966000830190610b0b565b0190610b0b565b565b9695919392949094426125a261259c8361035e565b9161035e565b1161265d579061260b6126149493926125f36125bc6124d9565b6125e48c80948c916125ce8d9161308a565b91926125d8610243565b978896602088016124fd565b602082018103825203826107b3565b6126056125ff8261255f565b91612559565b206130c6565b929091926130e3565b806126276126218761032e565b9161032e565b0361263c575061263a929391909161293a565b565b849061265960009283926325c0072360e11b845260048401612563565b0390fd5b61267990600091829163313c898160e11b83526004830161041e565b0390fd5b9061268f9161268a612abd565b612691565b565b9061269b91612b20565b565b906126a79161267d565b565b906126b39061064c565b600052602052604060002090565b6126ef916126e56126ea926126d46113c8565b5060016126df612902565b016126a9565b611d52565b6110e4565b90565b612703906126fe612abd565b612705565b565b8061272161271b6127166000611dc0565b61032e565b9161032e565b146127315761272f90612e54565b565b61275661273e6000611dc0565b6000918291631e4fbdf760e01b835260048301610b18565b0390fd5b612763906126f2565b565b61277461277a9193929361035e565b9261035e565b820180921161278557565b6117fa565b6127d69080426127c96127c36127be6127b060036127aa6000889061108b565b016110e4565b6127b8610a48565b90612765565b61035e565b9161035e565b10156127d8575b506128bc565b565b612832906127fd6127e96000611a64565b60016127f76000859061108b565b01611863565b61281e61280a6000611a64565b60026128186000859061108b565b01611863565b600361282c4292600061108b565b01611863565b386127d0565b60007f5772697465206c696d6974206578636565646564000000000000000000000000910152565b61286d6014602092610267565b61287681612838565b0190565b6128909060208101906000818303910152612860565b90565b1561289a57565b6128a2610243565b62461bcd60e51b8152806128b86004820161287a565b0390fd5b60016128dd6128f5926128d66128d18261158a565b612893565b600061108b565b016128ef6128ea826110e4565b611810565b90611863565b565b6129009061278a565b565b7f52c63247e1f47db19d5ce0460030c497f067ca4cebf71ba98eeadabe20bace0090565b61292e611dea565b506129376131e6565b90565b91612948929160019261326f565b565b60409061297461297b949695939661296a60608401986000850190610b0b565b6020830190610411565b0190610411565b565b90612988910361035e565b90565b9291926129998183906126c1565b90816129af6129a960001961035e565b9161035e565b106129bc575b5050509050565b816129cf6129c98761035e565b9161035e565b106129f6576129ed93946129e491939261297d565b9060009261326f565b803880806129b5565b50612a16849291926000938493637dc7a0d960e11b85526004850161294a565b0390fd5b9182612a37612a31612a2c6000611dc0565b61032e565b9161032e565b14612a945781612a58612a52612a4d6000611dc0565b61032e565b9161032e565b14612a6b57612a699291909161339d565b565b612a90612a786000611dc0565b600091829163ec442f0560e01b835260048301610b18565b0390fd5b612ab9612aa16000611dc0565b6000918291634b637e8f60e11b835260048301610b18565b0390fd5b612ac5612479565b612ade612ad8612ad3612926565b61032e565b9161032e565b03612ae557565b612b08612af0612926565b600091829163118cdaa760e01b835260048301610b18565b0390fd5b612b1461163a565b50612b1d61359d565b90565b80612b3c612b36612b316000611dc0565b61032e565b9161032e565b14612b5957612b5791612b4f6000611dc0565b91909161339d565b565b612b7e612b666000611dc0565b600091829163ec442f0560e01b835260048301610b18565b0390fd5b612b8b90610640565b90565b612b9730612b82565b612bc9612bc37f000000000000000000000000000000000000000000000000000000000000000061032e565b9161032e565b148015612bf4575b612bd757565b600063703e46dd60e11b815280612bf0600482016104da565b0390fd5b50612bfd613609565b612c2f612c297f000000000000000000000000000000000000000000000000000000000000000061032e565b9161032e565b1415612bd1565b50612c3f612abd565b565b612c4a90612c36565b565b612c5590610624565b90565b612c6190612c4c565b90565b612c6d90610640565b90565b60e01b90565b90505190612c8382610eb0565b565b90602082820312612c9f57612c9c91600001612c76565b90565b61024e565b612cac610243565b3d6000823e3d90fd5b9190612ce36020612ccd612cc886612c58565b612c64565b6352d1902d90612cdb610243565b938492612c70565b82528180612cf3600482016104da565b03915afa8091600092612d87575b5015600014612d37575050906001612d1757505b565b612d33906000918291634c9c8ce360e01b835260048301610b18565b0390fd5b9283612d52612d4c612d47611ce1565b6105c6565b916105c6565b03612d6757612d62929350613630565b612d15565b612d83846000918291632a87526960e21b8352600483016105d6565b0390fd5b612da991925060203d8111612db0575b612da181836107b3565b810190612c85565b9038612d01565b503d612d97565b612dc030612b82565b612df2612dec7f000000000000000000000000000000000000000000000000000000000000000061032e565b9161032e565b03612df957565b600063703e46dd60e11b815280612e12600482016104da565b0390fd5b90612e2760018060a01b03916117af565b9181191691161790565b90565b90612e49612e44612e509261064c565b612e31565b8254612e16565b9055565b612e5c613057565b612e76612e6b6000830161246c565b916000849101612e34565b90612eaa612ea47f8be0079c531659141344cd1fd0a4f28419497f9722a3daafe3b4186f6b6457e09361064c565b9161064c565b91612eb3610243565b80612ebd816104da565b0390a3565b612ee2612ee791612ed16113c8565b506000612edc6136bb565b01611d52565b6110e4565b90565b7ff0c57e16840df040f15088dc2f81fe391c3923bec73e23a9662efc9c229c6a0090565b90612f2091612f1b6136df565b612f22565b565b90612f2c9161392d565b565b90612f3891612f0e565b565b612f4b90612f466136df565b612f99565b565b60007f3100000000000000000000000000000000000000000000000000000000000000910152565b612f7f6001610dde565b90612f8c60208301612f4d565b565b612f96612f75565b90565b612fab90612fa5612f8e565b906139d5565b565b612fb690612f3a565b565b612fc990612fc46136df565b612fcb565b565b612fd490613a49565b565b612fdf90612fb8565b565b612fe96136df565b565b612ff3612fe1565b565b7fa16a46d94261c7517cc8ff89f61c0ce93598e3c849801011dee649a6a557d10090565b61302161125f565b50613035600261302f612ff5565b01611376565b90565b61304061125f565b50613054600361304e612ff5565b01611376565b90565b7f9016d09d72d40fdae2fd8ceac6b6234c7706214fd39c1cd1e609a0528c19930090565b6001613087910161035e565b90565b6130a7906130966113c8565b5060006130a16136bb565b01611d52565b6130c36130b3826110e4565b916130bd8361307b565b90611863565b90565b6130e0906130d261163a565b506130db612b0c565b613a54565b90565b926130fe92613107946130f4611dea565b5092909192613b0c565b90929192613c2b565b90565b5090565b61311d6131239193929361035e565b9261035e565b820391821161312e57565b6117fa565b600080fd5b600080fd5b9093929384831161315d578411613158576001820201920390565b613138565b613133565b6bffffffffffffffffffffffff191690565b1b90565b9061318661318d918361310a565b9135613162565b906014811061319b575b5090565b6131b9906bffffffffffffffffffffffff1990601403600802613174565b1638613197565b60601c90565b6131d26131d7916131c0565b610624565b90565b6131e3906131c6565b90565b6131ee611dea565b506131fb6000369061310a565b613203613d03565b61320c33611d2c565b80613254575b6000146132475761323961323f9161324493613231600092369261310e565b90809261313d565b90613178565b6131da565b90565b5050613251613d17565b90565b50816132686132628361035e565b9161035e565b1015613212565b9092613279612902565b8261329561328f61328a6000611dc0565b61032e565b9161032e565b1461336657846132b66132b06132ab6000611dc0565b61032e565b9161032e565b1461333d576132dd906132d86132d1600187930186906126a9565b8790611d52565b611863565b6132e7575b505050565b91909161333261332061331a7f8c5be1e5ebec7d5bd14f71427d1e84f3dd0314c0f7b2291e5b200ac8c7c3b9259361064c565b9361064c565b93613329610243565b9182918261041e565b0390a33880806132e2565b61336261334a6000611dc0565b6000918291634a1406b160e11b835260048301610b18565b0390fd5b61338b6133736000611dc0565b600091829163e602df0560e01b835260048301610b18565b0390fd5b9061339a910161035e565b90565b9190916133a8612902565b816133c46133be6133b96000611dc0565b61032e565b9161032e565b146000146134b3576133ec836133e660028401916133e1836110e4565b612765565b90611863565b5b836134096134036133fe6000611dc0565b61032e565b9161032e565b14600014613483576134329061342c600285920191613427836110e4565b61297d565b90611863565b5b91909161347e61346c6134667fddf252ad1be2c89b69c2b068fc378daa952ba7f163c4a11628f55a4df523b3ef9361064c565b9361064c565b93613475610243565b9182918261041e565b0390a3565b6134ae906134a861349960008693018790611d52565b916134a3836110e4565b61338f565b90611863565b613433565b6134c96134c4600083018490611d52565b6110e4565b806134dc6134d68661035e565b9161035e565b10613507576134ef61350291859061297d565b6134fd600084018590611d52565b611863565b6133ed565b9161352791509192600093849363391434e360e21b85526004850161294a565b0390fd5b7f8b73c3c69bb8fe3d512ecc4cf759cc79239f7b179b0ffacaa9a75d522b39400f90565b9095949261359b9461358a6135949261358060809661357660a088019c60008901906105c9565b60208701906105c9565b60408501906105c9565b6060830190610411565b0190610b0b565b565b6135a561163a565b506135ae61352b565b6135f36135b9613d27565b916135e46135c5613dde565b466135cf306122ee565b916135d8610243565b9687956020870161354f565b602082018103825203826107b3565b6136056135ff8261255f565b91612559565b2090565b613611611dea565b5061362d6000613627613622611ce1565b613e95565b0161246c565b90565b9061363a82613e98565b816136657fbc7cd75a20ee27fd9adebab32041f755214dbc6bffa90cc0225b39da2e5c2d3b9161064c565b9061366e610243565b80613678816104da565b0390a26136848161255f565b6136976136916000611a64565b9161035e565b116000146136ac576136a891613f6f565b505b565b50506136b6613ef0565b6136aa565b7f5ab42ced628888259c08ac98db1eb0cf702fc1501344311d8b100cd1bfe4bb0090565b6136f06136ea613f9f565b156103b3565b6136f657565b6000631afcd79f60e31b81528061370f600482016104da565b0390fd5b90613725916137206136df565b613909565b565b601f602091010490565b9190600861374d91029161374760001984613174565b92613174565b9181191691161790565b919061376d61376861377593611844565b611860565b908354613731565b9055565b61378b916137856113c8565b91613757565b565b5b818110613799575050565b806137a76000600193613779565b0161378e565b9190601f81116137bd575b505050565b6137c96137ee936112ad565b9060206137d584613727565b830193106137f6575b6137e790613727565b019061378d565b3880806137b8565b91506137e7819290506137de565b906138159060001990600802610670565b191690565b8161382491613804565b906002021790565b9061383681610263565b9067ffffffffffffffff82116138f85761385a82613854855461127a565b856137ad565b602090601f831160011461388f5791809161387e93600092613883575b505061381a565b90555b565b90915001513880613877565b601f1983169161389e856112ad565b9260005b8181106138e0575091600293918560019694106138c6575b50505002019055613881565b6138d6910151601f841690613804565b90553880806138ba565b919360206001819287870151815501950192016138a2565b61079d565b906139079161382c565b565b600461392b9261392461391a612902565b93600385016138fd565b91016138fd565b565b9061393791613713565b565b9061394b916139466136df565b613985565b565b613956906105c6565b90565b613962906110a3565b90565b9061397a6139756139819261394d565b613959565b825461182d565b9055565b6139aa6139d3926139a1613997612ff5565b93600285016138fd565b600383016138fd565b6139c06139b7600061224e565b60008301613965565b60016139cc600061224e565b9101613965565b565b906139df91613939565b565b6139f2906139ed6136df565b6139f4565b565b80613a10613a0a613a056000611dc0565b61032e565b9161032e565b14613a2057613a1e90612e54565b565b613a45613a2d6000611dc0565b6000918291631e4fbdf760e01b835260048301610b18565b0390fd5b613a52906139e1565b565b604291613a5f61163a565b50604051917f19010000000000000000000000000000000000000000000000000000000000008352600283015260228201522090565b600090565b613aa6613aab916110a3565b611844565b90565b90565b613ac5613ac0613aca92613aae565b610621565b61035e565b90565b613b03613b0a94613af9606094989795613aef608086019a60008701906105c9565b602085019061051a565b60408301906105c9565b01906105c9565b565b939293613b17611dea565b50613b20613a95565b50613b2961163a565b50613b3385613a9a565b613b65613b5f7f7fffffffffffffffffffffffffffffff5d576e7357a4501ddfe92f46681b20a0613ab1565b9161035e565b11613bf95790613b8960209495600094939293613b80610243565b94859485613acd565b838052039060015afa15613bf457613ba26000516117af565b80613bbe613bb8613bb36000611dc0565b61032e565b9161032e565b14613bd657600091613bd0600061224e565b91929190565b50613be16000611dc0565b600191613bee600061224e565b91929190565b612ca4565b505050613c066000611dc0565b9060039291929190565b60041115613c1a57565b611132565b90613c2982613c10565b565b80613c3f613c396000613c1f565b91613c1f565b14600014613c4b575050565b80613c5f613c596001613c1f565b91613c1f565b14600014613c8457600063f645eedf60e01b815280613c80600482016104da565b0390fd5b80613c98613c926002613c1f565b91613c1f565b14600014613cc857613cc4613cac83613a9a565b600091829163fce698f760e01b83526004830161041e565b0390fd5b613cdb613cd56003613c1f565b91613c1f565b14613ce35750565b613cff9060009182916335e2f38360e21b8352600483016105d6565b0390fd5b613d0b6113c8565b50613d14613fdd565b90565b613d1f611dea565b503390565b90565b613d2f61163a565b50613d38612ff5565b613d40613019565b613d51613d4c82613d24565b61255f565b613d64613d5e6000611a64565b9161035e565b11600014613d8c57613d769150613d24565b613d88613d828261255f565b91612559565b2090565b506000613d999101612241565b80613dad613da7600061224e565b916105c6565b1415600014613db95790565b507fc5d2460186f7233c927e7db2dcc703c0e500b653ca82273b7bfad8045d85a47090565b613de661163a565b50613def612ff5565b613df7613038565b613e08613e0382613d24565b61255f565b613e1b613e156000611a64565b9161035e565b11600014613e4357613e2d9150613d24565b613e3f613e398261255f565b91612559565b2090565b506001613e509101612241565b80613e64613e5e600061224e565b916105c6565b1415600014613e705790565b507fc5d2460186f7233c927e7db2dcc703c0e500b653ca82273b7bfad8045d85a47090565b90565b803b613ead613ea76000611a64565b9161035e565b14613ed057613ece906000613ec8613ec3611ce1565b613e95565b01612e34565b565b613eec906000918291634c9c8ce360e01b835260048301610b18565b0390fd5b34613f04613efe6000611a64565b9161035e565b11613f0b57565b600063b398979f60e01b815280613f24600482016104da565b0390fd5b606090565b90613f3f613f3a836107f1565b6107dc565b918252565b3d600014613f6157613f553d613f2d565b903d6000602084013e5b565b613f69613f28565b90613f5f565b600080613f9c93613f7e613f28565b508390602081019051915af490613f93613f44565b90919091613ff3565b90565b613fa76113a1565b50613fbb6000613fb5612eea565b01611e4b565b90565b90565b613fd5613fd0613fda92613fbe565b610621565b61035e565b90565b613fe56113c8565b50613ff06014613fc1565b90565b9061400790614000613f28565b50156103b3565b600014614014575061407b565b61401d8261255f565b61403061402a6000611a64565b9161035e565b148061405f575b61403f575090565b61405b906000918291639996b31560e01b835260048301610b18565b0390fd5b50803b61407561406f6000611a64565b9161035e565b14614037565b6140848161255f565b6140976140916000611a64565b9161035e565b116000146140a757805190602001fd5b600063d6bda27560e01b8152806140c0600482016104da565b0390fdfea2646970667358221220457d1d2a88ae870b1ef2d14dacbd843f553d7b2e5abc3e7e7d1670b37dde80c264736f6c634300081c0033",
  "linkReferences": {},
  "deployedLinkReferences": {}
}